{"contracts/RogueCoin.sol":{"RogueCoin":{"abi":[{"inputs":[],"stateMutability":"nonpayable","type":"constructor"},{"inputs":[{"internalType":"address","name":"spender","type":"address"},{"internalType":"uint256","name":"allowance","type":"uint256"},{"internalType":"uint256","name":"needed","type":"uint256"}],"name":"ERC20InsufficientAllowance","type":"error"},{"inputs":[{"internalType":"address","name":"sender","type":"address"},{"internalType":"uint256","name":"balance","type":"uint256"},{"internalType":"uint256","name":"needed","type":"uint256"}],"name":"ERC20InsufficientBalance","type":"error"},{"inputs":[{"internalType":"address","name":"approver","type":"address"}],"name":"ERC20InvalidApprover","type":"error"},{"inputs":[{"internalType":"address","name":"receiver","type":"address"}],"name":"ERC20InvalidReceiver","type":"error"},{"inputs":[{"internalType":"address","name":"sender","type":"address"}],"name":"ERC20InvalidSender","type":"error"},{"inputs":[{"internalType":"address","name":"spender","type":"address"}],"name":"ERC20InvalidSpender","type":"error"},{"inputs":[],"name":"EnforcedPause","type":"error"},{"inputs":[],"name":"ExpectedPause","type":"error"},{"inputs":[{"internalType":"address","name":"owner","type":"address"}],"name":"OwnableInvalidOwner","type":"error"},{"inputs":[{"internalType":"address","name":"account","type":"address"}],"name":"OwnableUnauthorizedAccount","type":"error"},{"inputs":[],"name":"ReentrancyGuardReentrantCall","type":"error"},{"anonymous":false,"inputs":[{"indexed":false,"internalType":"address","name":"account","type":"address"},{"indexed":false,"internalType":"bool","name":"blacklisted","type":"bool"}],"name":"AddressBlacklisted","type":"event"},{"anonymous":false,"inputs":[{"indexed":false,"internalType":"address","name":"account","type":"address"},{"indexed":false,"internalType":"bool","name":"excluded","type":"bool"}],"name":"AddressExcludedFromLimits","type":"event"},{"anonymous":false,"inputs":[{"indexed":true,"internalType":"address","name":"owner","type":"address"},{"indexed":true,"internalType":"address","name":"spender","type":"address"},{"indexed":false,"internalType":"uint256","name":"value","type":"uint256"}],"name":"Approval","type":"event"},{"anonymous":false,"inputs":[{"indexed":false,"internalType":"uint256","name":"newAmount","type":"uint256"}],"name":"MaxTransactionAmountUpdated","type":"event"},{"anonymous":false,"inputs":[{"indexed":false,"internalType":"uint256","name":"newAmount","type":"uint256"}],"name":"MaxWalletAmountUpdated","type":"event"},{"anonymous":false,"inputs":[{"indexed":true,"internalType":"address","name":"previousOwner","type":"address"},{"indexed":true,"internalType":"address","name":"newOwner","type":"address"}],"name":"OwnershipTransferred","type":"event"},{"anonymous":false,"inputs":[{"indexed":false,"internalType":"address","name":"account","type":"address"}],"name":"Paused","type":"event"},{"anonymous":false,"inputs":[{"indexed":false,"internalType":"uint256","name":"amount","type":"uint256"},{"indexed":false,"internalType":"uint256","name":"timestamp","type":"uint256"}],"name":"TeamTokensReleased","type":"event"},{"anonymous":false,"inputs":[{"indexed":false,"internalType":"uint256","name":"timestamp","type":"uint256"}],"name":"TradingEnabled","type":"event"},{"anonymous":false,"inputs":[{"indexed":true,"internalType":"address","name":"from","type":"address"},{"indexed":true,"internalType":"address","name":"to","type":"address"},{"indexed":false,"internalType":"uint256","name":"value","type":"uint256"}],"name":"Transfer","type":"event"},{"anonymous":false,"inputs":[{"indexed":false,"internalType":"address","name":"account","type":"address"}],"name":"Unpaused","type":"event"},{"inputs":[{"internalType":"address","name":"owner","type":"address"},{"internalType":"address","name":"spender","type":"address"}],"name":"allowance","outputs":[{"internalType":"uint256","name":"","type":"uint256"}],"stateMutability":"view","type":"function"},{"inputs":[{"internalType":"address","name":"spender","type":"address"},{"internalType":"uint256","name":"value","type":"uint256"}],"name":"approve","outputs":[{"internalType":"bool","name":"","type":"bool"}],"stateMutability":"nonpayable","type":"function"},{"inputs":[{"internalType":"address","name":"account","type":"address"}],"name":"balanceOf","outputs":[{"internalType":"uint256","name":"","type":"uint256"}],"stateMutability":"view","type":"function"},{"inputs":[{"internalType":"uint256","name":"value","type":"uint256"}],"name":"burn","outputs":[],"stateMutability":"nonpayable","type":"function"},{"inputs":[{"internalType":"address","name":"account","type":"address"},{"internalType":"uint256","name":"value","type":"uint256"}],"name":"burnFrom","outputs":[],"stateMutability":"nonpayable","type":"function"},{"inputs":[],"name":"decimals","outputs":[{"internalType":"uint8","name":"","type":"uint8"}],"stateMutability":"view","type":"function"},{"inputs":[],"name":"enableTrading","outputs":[],"stateMutability":"nonpayable","type":"function"},{"inputs":[],"name":"getReleasableTeamTokens","outputs":[{"internalType":"uint256","name":"","type":"uint256"}],"stateMutability":"view","type":"function"},{"inputs":[],"name":"getTokenDistribution","outputs":[{"internalType":"uint256","name":"totalSupply","type":"uint256"},{"internalType":"uint256","name":"teamAllocation","type":"uint256"},{"internalType":"uint256","name":"liquidityAllocation","type":"uint256"},{"internalType":"uint256","name":"communityAllocation","type":"uint256"},{"internalType":"uint256","name":"airdropAllocation","type":"uint256"},{"internalType":"uint256","name":"gameTreasury","type":"uint256"}],"stateMutability":"pure","type":"function"},{"inputs":[{"internalType":"address","name":"","type":"address"}],"name":"isBlacklisted","outputs":[{"internalType":"bool","name":"","type":"bool"}],"stateMutability":"view","type":"function"},{"inputs":[{"internalType":"address","name":"","type":"address"}],"name":"isExcludedFromLimits","outputs":[{"internalType":"bool","name":"","type":"bool"}],"stateMutability":"view","type":"function"},{"inputs":[],"name":"launchTimestamp","outputs":[{"internalType":"uint256","name":"","type":"uint256"}],"stateMutability":"view","type":"function"},{"inputs":[],"name":"maxTransactionAmount","outputs":[{"internalType":"uint256","name":"","type":"uint256"}],"stateMutability":"view","type":"function"},{"inputs":[],"name":"maxWalletAmount","outputs":[{"internalType":"uint256","name":"","type":"uint256"}],"stateMutability":"view","type":"function"},{"inputs":[],"name":"name","outputs":[{"internalType":"string","name":"","type":"string"}],"stateMutability":"view","type":"function"},{"inputs":[],"name":"owner","outputs":[{"internalType":"address","name":"","type":"address"}],"stateMutability":"view","type":"function"},{"inputs":[],"name":"pause","outputs":[],"stateMutability":"nonpayable","type":"function"},{"inputs":[],"name":"paused","outputs":[{"internalType":"bool","name":"","type":"bool"}],"stateMutability":"view","type":"function"},{"inputs":[{"internalType":"address","name":"tokenAddress","type":"address"},{"internalType":"uint256","name":"tokenAmount","type":"uint256"}],"name":"recoverERC20","outputs":[],"stateMutability":"nonpayable","type":"function"},{"inputs":[],"name":"releaseTeamTokens","outputs":[],"stateMutability":"nonpayable","type":"function"},{"inputs":[],"name":"removeLimits","outputs":[],"stateMutability":"nonpayable","type":"function"},{"inputs":[],"name":"renounceOwnership","outputs":[],"stateMutability":"nonpayable","type":"function"},{"inputs":[{"internalType":"address","name":"account","type":"address"},{"internalType":"bool","name":"blacklisted","type":"bool"}],"name":"setBlacklisted","outputs":[],"stateMutability":"nonpayable","type":"function"},{"inputs":[{"internalType":"address","name":"account","type":"address"},{"internalType":"bool","name":"excluded","type":"bool"}],"name":"setExcludedFromLimits","outputs":[],"stateMutability":"nonpayable","type":"function"},{"inputs":[{"internalType":"uint256","name":"_maxTransactionAmount","type":"uint256"}],"name":"setMaxTransactionAmount","outputs":[],"stateMutability":"nonpayable","type":"function"},{"inputs":[{"internalType":"uint256","name":"_maxWalletAmount","type":"uint256"}],"name":"setMaxWalletAmount","outputs":[],"stateMutability":"nonpayable","type":"function"},{"inputs":[{"internalType":"address","name":"_teamWallet","type":"address"}],"name":"setTeamWallet","outputs":[],"stateMutability":"nonpayable","type":"function"},{"inputs":[],"name":"symbol","outputs":[{"internalType":"string","name":"","type":"string"}],"stateMutability":"view","type":"function"},{"inputs":[],"name":"teamTokensReleased","outputs":[{"internalType":"uint256","name":"","type":"uint256"}],"stateMutability":"view","type":"function"},{"inputs":[],"name":"teamVestingStart","outputs":[{"internalType":"uint256","name":"","type":"uint256"}],"stateMutability":"view","type":"function"},{"inputs":[],"name":"teamWallet","outputs":[{"internalType":"address","name":"","type":"address"}],"stateMutability":"view","type":"function"},{"inputs":[],"name":"totalSupply","outputs":[{"internalType":"uint256","name":"","type":"uint256"}],"stateMutability":"view","type":"function"},{"inputs":[],"name":"tradingEnabled","outputs":[{"internalType":"bool","name":"","type":"bool"}],"stateMutability":"view","type":"function"},{"inputs":[{"internalType":"address","name":"to","type":"address"},{"internalType":"uint256","name":"value","type":"uint256"}],"name":"transfer","outputs":[{"internalType":"bool","name":"","type":"bool"}],"stateMutability":"nonpayable","type":"function"},{"inputs":[{"internalType":"address","name":"from","type":"address"},{"internalType":"address","name":"to","type":"address"},{"internalType":"uint256","name":"value","type":"uint256"}],"name":"transferFrom","outputs":[{"internalType":"bool","name":"","type":"bool"}],"stateMutability":"nonpayable","type":"function"},{"inputs":[{"internalType":"address","name":"newOwner","type":"address"}],"name":"transferOwnership","outputs":[],"stateMutability":"nonpayable","type":"function"},{"inputs":[],"name":"unpause","outputs":[],"stateMutability":"nonpayable","type":"function"}],"evm":{"bytecode":{"linkReferences":{},"object":"60806040526009805460ff191690553480156200001b57600080fd5b5033604051806040016040528060098152602001682937b3bab2a1b7b4b760b91b8152506040518060400160405280600381526020016252474360e81b81525081600390816200006c91906200079f565b5060046200007b82826200079f565b5050506001600160a01b038116620000ae57604051631e4fbdf760e01b8152600060048201526024015b60405180910390fd5b620000b9816200024e565b5060016006556064620000da6b033b2e3c9fd0803ce8000000600262000881565b620000e69190620008a1565b6007556064620001046b033b2e3c9fd0803ce8000000600262000881565b620001109190620008a1565b600855600b80546001600160a01b0319163390811790915542600d556000818152600e6020526040808220805460ff199081166001908117909255308452919092208054909116909117905562000173906aa56fa5b99019a5c8000000620002a8565b6200018a336af8277896582678ac000000620002a8565b620001a1336a295be96e64066972000000620002a8565b620001b8336af8277896582678ac000000620002a8565b620001cf306a7c13bc4b2c133c56000000620002a8565b33600060008051602062001fe0833981519152620002056a7c13bc4b2c133c560000006b033b2e3c9fd0803ce8000000620008c4565b60405190815260200160405180910390a36040516a7c13bc4b2c133c560000008152309060009060008051602062001fe08339815191529060200160405180910390a3620008f0565b600580546001600160a01b03838116610100818102610100600160a81b031985161790945560405193909204169182907f8be0079c531659141344cd1fd0a4f28419497f9722a3daafe3b4186f6b6457e090600090a35050565b6001600160a01b038216620002d45760405163ec442f0560e01b815260006004820152602401620000a5565b620002e260008383620002e6565b5050565b60095460ff1680620003075750336000908152600e602052604090205460ff165b620003555760405162461bcd60e51b815260206004820152601360248201527f54726164696e67206e6f7420656e61626c6564000000000000000000000000006044820152606401620000a5565b6001600160a01b0383166000908152600f6020526040902054839060ff1615620003c25760405162461bcd60e51b815260206004820152601660248201527f4164647265737320697320626c61636b6c6973746564000000000000000000006044820152606401620000a5565b6001600160a01b0383166000908152600f6020526040902054839060ff16156200042f5760405162461bcd60e51b815260206004820152601660248201527f4164647265737320697320626c61636b6c6973746564000000000000000000006044820152606401620000a5565b6001600160a01b03851615806200044d57506001600160a01b038416155b806200047157506001600160a01b0385166000908152600e602052604090205460ff165b806200049557506001600160a01b0384166000908152600e602052604090205460ff165b15620004ae57620004a885858562000596565b6200058f565b600754831115620005025760405162461bcd60e51b815260206004820152601e60248201527f45786365656473206d6178207472616e73616374696f6e20616d6f756e7400006044820152606401620000a5565b6008548362000526866001600160a01b031660009081526020819052604090205490565b620005329190620008da565b1115620005825760405162461bcd60e51b815260206004820152601960248201527f45786365656473206d61782077616c6c657420616d6f756e74000000000000006044820152606401620000a5565b6200058f85858562000596565b5050505050565b620005a0620005b2565b620005ad838383620005d9565b505050565b60055460ff1615620005d75760405163d93c066560e01b815260040160405180910390fd5b565b6001600160a01b03831662000608578060026000828254620005fc9190620008da565b909155506200067c9050565b6001600160a01b038316600090815260208190526040902054818110156200065d5760405163391434e360e21b81526001600160a01b03851660048201526024810182905260448101839052606401620000a5565b6001600160a01b03841660009081526020819052604090209082900390555b6001600160a01b0382166200069a57600280548290039055620006b9565b6001600160a01b03821660009081526020819052604090208054820190555b816001600160a01b0316836001600160a01b031660008051602062001fe083398151915283604051620006ee91815260200190565b60405180910390a3505050565b634e487b7160e01b600052604160045260246000fd5b600181811c908216806200072657607f821691505b6020821081036200074757634e487b7160e01b600052602260045260246000fd5b50919050565b601f821115620005ad57600081815260208120601f850160051c81016020861015620007765750805b601f850160051c820191505b81811015620007975782815560010162000782565b505050505050565b81516001600160401b03811115620007bb57620007bb620006fb565b620007d381620007cc845462000711565b846200074d565b602080601f8311600181146200080b5760008415620007f25750858301515b600019600386901b1c1916600185901b17855562000797565b600085815260208120601f198616915b828110156200083c578886015182559484019460019091019084016200081b565b50858210156200085b5787850151600019600388901b60f8161c191681555b5050505050600190811b01905550565b634e487b7160e01b600052601160045260246000fd5b80820281158282048414176200089b576200089b6200086b565b92915050565b600082620008bf57634e487b7160e01b600052601260045260246000fd5b500490565b818103818111156200089b576200089b6200086b565b808201808211156200089b576200089b6200086b565b6116e080620009006000396000f3fe608060405234801561001057600080fd5b50600436106102275760003560e01c806370a0823111610130578063a2de66fc116100b8578063d01dd6d21161007c578063d01dd6d2146104ac578063dd62ed3e146104bf578063ea7f9888146104f8578063f2fde38b14610501578063fe575a871461051457600080fd5b8063a2de66fc14610476578063a9059cbb1461047e578063aa4bde2814610491578063c8c8ebe41461049a578063cd881742146104a357600080fd5b80638456cb59116100ff5780638456cb59146104355780638980f11f1461043d5780638a8c523c146104505780638da5cb5b1461045857806395d89b411461046e57600080fd5b806370a08231146103e9578063715018a614610412578063751039fc1461041a57806379cc67901461042257600080fd5b806336fddb04116101b35780634ada218b116101825780634ada218b1461037a57806359927044146103875780635c975abb146103b25780635cce86cd146103bd57806365cf7c9b146103e057600080fd5b806336fddb04146102e45780633975e4ea146102f75780633f4ba83a1461035f57806342966c681461036757600080fd5b806318160ddd116101fa57806318160ddd1461028a5780631e293c101461029c57806323b872dd146102af57806327a14fc2146102c2578063313ce567146102d557600080fd5b806306fdde031461022c578063095ea7b31461024a57806314c411c71461026d5780631525ff7d14610277575b600080fd5b610234610537565b604051610241919061145b565b60405180910390f35b61025d6102583660046114c5565b6105c9565b6040519015158152602001610241565b6102756105e3565b005b6102756102853660046114ef565b61072c565b6002545b604051908152602001610241565b6102756102aa366004611511565b61079e565b61025d6102bd36600461152a565b61083b565b6102756102d0366004611511565b61085f565b60405160128152602001610241565b6102756102f2366004611574565b6108f5565b604080516b033b2e3c9fd0803ce800000081526a7c13bc4b2c133c5600000060208201526aa56fa5b99019a5c8000000918101919091526af8277896582678ac000000606082018190526a295be96e64066972000000608083015260a082015260c001610241565b610275610961565b610275610375366004611511565b610971565b60095461025d9060ff1681565b600b5461039a906001600160a01b031681565b6040516001600160a01b039091168152602001610241565b60055460ff1661025d565b61025d6103cb3660046114ef565b600e6020526000908152604090205460ff1681565b61028e600a5481565b61028e6103f73660046114ef565b6001600160a01b031660009081526020819052604090205490565b61027561097e565b610275610990565b6102756104303660046114c5565b610a24565b610275610a3d565b61027561044b3660046114c5565b610a4d565b610275610b4a565b60055461010090046001600160a01b031661039a565b610234610bea565b61028e610bf9565b61025d61048c3660046114c5565b610c77565b61028e60085481565b61028e60075481565b61028e600c5481565b6102756104ba366004611574565b610c85565b61028e6104cd3660046115ab565b6001600160a01b03918216600090815260016020908152604080832093909416825291909152205490565b61028e600d5481565b61027561050f3660046114ef565b610ce9565b61025d6105223660046114ef565b600f6020526000908152604090205460ff1681565b606060038054610546906115de565b80601f0160208091040260200160405190810160405280929190818152602001828054610572906115de565b80156105bf5780601f10610594576101008083540402835291602001916105bf565b820191906000526020600020905b8154815290600101906020018083116105a257829003601f168201915b5050505050905090565b6000336105d7818585610d24565b60019150505b92915050565b6105eb610d31565b600b546001600160a01b0316331480610625575060055461010090046001600160a01b03166001600160a01b0316336001600160a01b0316145b6106655760405162461bcd60e51b815260206004820152600c60248201526b155b985d5d1a1bdc9a5e995960a21b60448201526064015b60405180910390fd5b600061066f610bf9565b9050600081116106b85760405162461bcd60e51b81526020600482015260146024820152734e6f20746f6b656e7320746f2072656c6561736560601b604482015260640161065c565b80600c60008282546106ca919061162e565b9091555050600b546106e79030906001600160a01b031683610d5b565b604080518281524260208201527ff8d4e868d21b6cfbdbbdec864799e9a4026da7f0e1e517581108bdba1949e96f910160405180910390a15061072a6001600655565b565b610734610dba565b6001600160a01b03811661077c5760405162461bcd60e51b815260206004820152600f60248201526e496e76616c6964206164647265737360881b604482015260640161065c565b600b80546001600160a01b0319166001600160a01b0392909216919091179055565b6107a6610dba565b6107be6103e86b033b2e3c9fd0803ce8000000611641565b8110156107ff5760405162461bcd60e51b815260206004820152600f60248201526e546f6f20726573747269637469766560881b604482015260640161065c565b60078190556040518181527f7c1cb3702d8e1fa6d24b12dd90670ab69c6d66d58233103d37da8b07d6b850ac906020015b60405180910390a150565b600033610849858285610ded565b610854858585610d5b565b506001949350505050565b610867610dba565b61087f6103e86b033b2e3c9fd0803ce8000000611641565b8110156108c05760405162461bcd60e51b815260206004820152600f60248201526e546f6f20726573747269637469766560881b604482015260640161065c565b60088190556040518181527f4b39c36d20c57d220f61fd25c4349d4435cc03ef6c2a680942f15333c3c3e00190602001610830565b6108fd610dba565b6001600160a01b0382166000818152600e6020908152604091829020805460ff19168515159081179091558251938452908301527fc595fc2efde600a18f1717c9d6b918b40327c77877aee714804fe0061853da7991015b60405180910390a15050565b610969610dba565b61072a610e6c565b61097b3382610eb9565b50565b610986610dba565b61072a6000610eef565b610998610dba565b6b033b2e3c9fd0803ce8000000600781905560088190556040519081527f7c1cb3702d8e1fa6d24b12dd90670ab69c6d66d58233103d37da8b07d6b850ac9060200160405180910390a16040516b033b2e3c9fd0803ce800000081527f4b39c36d20c57d220f61fd25c4349d4435cc03ef6c2a680942f15333c3c3e001906020015b60405180910390a1565b610a2f823383610ded565b610a398282610eb9565b5050565b610a45610dba565b61072a610f49565b610a55610dba565b306001600160a01b03831603610aad5760405162461bcd60e51b815260206004820152601960248201527f43616e6e6f74207265636f7665722052474320746f6b656e7300000000000000604482015260640161065c565b816001600160a01b031663a9059cbb610ad46005546001600160a01b036101009091041690565b6040516001600160e01b031960e084901b1681526001600160a01b039091166004820152602481018490526044016020604051808303816000875af1158015610b21573d6000803e3d6000fd5b505050506040513d601f19601f82011682018060405250810190610b459190611663565b505050565b610b52610dba565b60095460ff1615610ba55760405162461bcd60e51b815260206004820152601760248201527f54726164696e6720616c726561647920656e61626c6564000000000000000000604482015260640161065c565b6009805460ff1916600117905542600a8190556040517fb3da2db3dfc3778f99852546c6e9ab39ec253f9de7b0847afec61bd27878e92391610a1a9190815260200190565b606060048054610546906115de565b6000600d54421015610c0b5750600090565b6000600d5442610c1b9190611680565b905060006303b538008210610c3c57506a7c13bc4b2c133c56000000610c63565b6303b53800610c56836a7c13bc4b2c133c56000000611693565b610c609190611641565b90505b600c54610c709082611680565b9250505090565b6000336105d7818585610d5b565b610c8d610dba565b6001600160a01b0382166000818152600f6020908152604091829020805460ff19168515159081179091558251938452908301527f97b7af35c8c05eca90f543eb78b16fdf2664d3e6c9a907286f310647d9813b719101610955565b610cf1610dba565b6001600160a01b038116610d1b57604051631e4fbdf760e01b81526000600482015260240161065c565b61097b81610eef565b610b458383836001610f86565b600260065403610d5457604051633ee5aeb560e01b815260040160405180910390fd5b6002600655565b6001600160a01b038316610d8557604051634b637e8f60e11b81526000600482015260240161065c565b6001600160a01b038216610daf5760405163ec442f0560e01b81526000600482015260240161065c565b610b4583838361105b565b6005546001600160a01b0361010090910416331461072a5760405163118cdaa760e01b815233600482015260240161065c565b6001600160a01b03838116600090815260016020908152604080832093861683529290522054600019811015610e665781811015610e5757604051637dc7a0d960e11b81526001600160a01b0384166004820152602481018290526044810183905260640161065c565b610e6684848484036000610f86565b50505050565b610e746112dc565b6005805460ff191690557f5db9ee0a495bf2e6ff9c91a7834c1ba4fdd244a5e8aa4e537bd38aeae4b073aa335b6040516001600160a01b039091168152602001610a1a565b6001600160a01b038216610ee357604051634b637e8f60e11b81526000600482015260240161065c565b610a398260008361105b565b600580546001600160a01b03838116610100818102610100600160a81b031985161790945560405193909204169182907f8be0079c531659141344cd1fd0a4f28419497f9722a3daafe3b4186f6b6457e090600090a35050565b610f516112ff565b6005805460ff191660011790557f62e78cea01bee320cd4e420270b5ea74000d11b0c9f74754ebdbfc544b05a258610ea13390565b6001600160a01b038416610fb05760405163e602df0560e01b81526000600482015260240161065c565b6001600160a01b038316610fda57604051634a1406b160e11b81526000600482015260240161065c565b6001600160a01b0380851660009081526001602090815260408083209387168352929052208290558015610e6657826001600160a01b0316846001600160a01b03167f8c5be1e5ebec7d5bd14f71427d1e84f3dd0314c0f7b2291e5b200ac8c7c3b9258460405161104d91815260200190565b60405180910390a350505050565b60095460ff168061107b5750336000908152600e602052604090205460ff165b6110bd5760405162461bcd60e51b8152602060048201526013602482015272151c98591a5b99c81b9bdd08195b98589b1959606a1b604482015260640161065c565b6001600160a01b0383166000908152600f6020526040902054839060ff16156111215760405162461bcd60e51b81526020600482015260166024820152751059191c995cdcc81a5cc8189b1858dadb1a5cdd195960521b604482015260640161065c565b6001600160a01b0383166000908152600f6020526040902054839060ff16156111855760405162461bcd60e51b81526020600482015260166024820152751059191c995cdcc81a5cc8189b1858dadb1a5cdd195960521b604482015260640161065c565b6001600160a01b03851615806111a257506001600160a01b038416155b806111c557506001600160a01b0385166000908152600e602052604090205460ff165b806111e857506001600160a01b0384166000908152600e602052604090205460ff165b156111fd576111f8858585611323565b6112d5565b60075483111561124f5760405162461bcd60e51b815260206004820152601e60248201527f45786365656473206d6178207472616e73616374696f6e20616d6f756e740000604482015260640161065c565b60085483611272866001600160a01b031660009081526020819052604090205490565b61127c919061162e565b11156112ca5760405162461bcd60e51b815260206004820152601960248201527f45786365656473206d61782077616c6c657420616d6f756e7400000000000000604482015260640161065c565b6112d5858585611323565b5050505050565b60055460ff1661072a57604051638dfc202b60e01b815260040160405180910390fd5b60055460ff161561072a5760405163d93c066560e01b815260040160405180910390fd5b61132b6112ff565b610b458383836001600160a01b03831661135c578060026000828254611351919061162e565b909155506113ce9050565b6001600160a01b038316600090815260208190526040902054818110156113af5760405163391434e360e21b81526001600160a01b0385166004820152602481018290526044810183905260640161065c565b6001600160a01b03841660009081526020819052604090209082900390555b6001600160a01b0382166113ea57600280548290039055611409565b6001600160a01b03821660009081526020819052604090208054820190555b816001600160a01b0316836001600160a01b03167fddf252ad1be2c89b69c2b068fc378daa952ba7f163c4a11628f55a4df523b3ef8360405161144e91815260200190565b60405180910390a3505050565b600060208083528351808285015260005b818110156114885785810183015185820160400152820161146c565b506000604082860101526040601f19601f8301168501019250505092915050565b80356001600160a01b03811681146114c057600080fd5b919050565b600080604083850312156114d857600080fd5b6114e1836114a9565b946020939093013593505050565b60006020828403121561150157600080fd5b61150a826114a9565b9392505050565b60006020828403121561152357600080fd5b5035919050565b60008060006060848603121561153f57600080fd5b611548846114a9565b9250611556602085016114a9565b9150604084013590509250925092565b801515811461097b57600080fd5b6000806040838503121561158757600080fd5b611590836114a9565b915060208301356115a081611566565b809150509250929050565b600080604083850312156115be57600080fd5b6115c7836114a9565b91506115d5602084016114a9565b90509250929050565b600181811c908216806115f257607f821691505b60208210810361161257634e487b7160e01b600052602260045260246000fd5b50919050565b634e487b7160e01b600052601160045260246000fd5b808201808211156105dd576105dd611618565b60008261165e57634e487b7160e01b600052601260045260246000fd5b500490565b60006020828403121561167557600080fd5b815161150a81611566565b818103818111156105dd576105dd611618565b80820281158282048414176105dd576105dd61161856fea2646970667358221220026ea343536cec032c323cd59a827e369521af6a90a48d9949a9a9e4f3b87f7b64736f6c63430008140033ddf252ad1be2c89b69c2b068fc378daa952ba7f163c4a11628f55a4df523b3ef","opcodes":"PUSH1 0x80 PUSH1 0x40 MSTORE PUSH1 0x9 DUP1 SLOAD PUSH1 0xFF NOT AND SWAP1 SSTORE CALLVALUE DUP1 ISZERO PUSH3 0x1B JUMPI PUSH1 0x0 DUP1 REVERT JUMPDEST POP CALLER PUSH1 0x40 MLOAD DUP1 PUSH1 0x40 ADD PUSH1 0x40 MSTORE DUP1 PUSH1 0x9 DUP2 MSTORE PUSH1 0x20 ADD PUSH9 0x2937B3BAB2A1B7B4B7 PUSH1 0xB9 SHL DUP2 MSTORE POP PUSH1 0x40 MLOAD DUP1 PUSH1 0x40 ADD PUSH1 0x40 MSTORE DUP1 PUSH1 0x3 DUP2 MSTORE PUSH1 0x20 ADD PUSH3 0x524743 PUSH1 0xE8 SHL DUP2 MSTORE POP DUP2 PUSH1 0x3 SWAP1 DUP2 PUSH3 0x6C SWAP2 SWAP1 PUSH3 0x79F JUMP JUMPDEST POP PUSH1 0x4 PUSH3 0x7B DUP3 DUP3 PUSH3 0x79F JUMP JUMPDEST POP POP POP PUSH1 0x1 PUSH1 0x1 PUSH1 0xA0 SHL SUB DUP2 AND PUSH3 0xAE JUMPI PUSH1 0x40 MLOAD PUSH4 0x1E4FBDF7 PUSH1 0xE0 SHL DUP2 MSTORE PUSH1 0x0 PUSH1 0x4 DUP3 ADD MSTORE PUSH1 0x24 ADD JUMPDEST PUSH1 0x40 MLOAD DUP1 SWAP2 SUB SWAP1 REVERT JUMPDEST PUSH3 0xB9 DUP2 PUSH3 0x24E JUMP JUMPDEST POP PUSH1 0x1 PUSH1 0x6 SSTORE PUSH1 0x64 PUSH3 0xDA PUSH12 0x33B2E3C9FD0803CE8000000 PUSH1 0x2 PUSH3 0x881 JUMP JUMPDEST PUSH3 0xE6 SWAP2 SWAP1 PUSH3 0x8A1 JUMP JUMPDEST PUSH1 0x7 SSTORE PUSH1 0x64 PUSH3 0x104 PUSH12 0x33B2E3C9FD0803CE8000000 PUSH1 0x2 PUSH3 0x881 JUMP JUMPDEST PUSH3 0x110 SWAP2 SWAP1 PUSH3 0x8A1 JUMP JUMPDEST PUSH1 0x8 SSTORE PUSH1 0xB DUP1 SLOAD PUSH1 0x1 PUSH1 0x1 PUSH1 0xA0 SHL SUB NOT AND CALLER SWAP1 DUP2 OR SWAP1 SWAP2 SSTORE TIMESTAMP PUSH1 0xD SSTORE PUSH1 0x0 DUP2 DUP2 MSTORE PUSH1 0xE PUSH1 0x20 MSTORE PUSH1 0x40 DUP1 DUP3 KECCAK256 DUP1 SLOAD PUSH1 0xFF NOT SWAP1 DUP2 AND PUSH1 0x1 SWAP1 DUP2 OR SWAP1 SWAP3 SSTORE ADDRESS DUP5 MSTORE SWAP2 SWAP1 SWAP3 KECCAK256 DUP1 SLOAD SWAP1 SWAP2 AND SWAP1 SWAP2 OR SWAP1 SSTORE PUSH3 0x173 SWAP1 PUSH11 0xA56FA5B99019A5C8000000 PUSH3 0x2A8 JUMP JUMPDEST PUSH3 0x18A CALLER PUSH11 0xF8277896582678AC000000 PUSH3 0x2A8 JUMP JUMPDEST PUSH3 0x1A1 CALLER PUSH11 0x295BE96E64066972000000 PUSH3 0x2A8 JUMP JUMPDEST PUSH3 0x1B8 CALLER PUSH11 0xF8277896582678AC000000 PUSH3 0x2A8 JUMP JUMPDEST PUSH3 0x1CF ADDRESS PUSH11 0x7C13BC4B2C133C56000000 PUSH3 0x2A8 JUMP JUMPDEST CALLER PUSH1 0x0 PUSH1 0x0 DUP1 MLOAD PUSH1 0x20 PUSH3 0x1FE0 DUP4 CODECOPY DUP2 MLOAD SWAP2 MSTORE PUSH3 0x205 PUSH11 0x7C13BC4B2C133C56000000 PUSH12 0x33B2E3C9FD0803CE8000000 PUSH3 0x8C4 JUMP JUMPDEST PUSH1 0x40 MLOAD SWAP1 DUP2 MSTORE PUSH1 0x20 ADD PUSH1 0x40 MLOAD DUP1 SWAP2 SUB SWAP1 LOG3 PUSH1 0x40 MLOAD PUSH11 0x7C13BC4B2C133C56000000 DUP2 MSTORE ADDRESS SWAP1 PUSH1 0x0 SWAP1 PUSH1 0x0 DUP1 MLOAD PUSH1 0x20 PUSH3 0x1FE0 DUP4 CODECOPY DUP2 MLOAD SWAP2 MSTORE SWAP1 PUSH1 0x20 ADD PUSH1 0x40 MLOAD DUP1 SWAP2 SUB SWAP1 LOG3 PUSH3 0x8F0 JUMP JUMPDEST PUSH1 0x5 DUP1 SLOAD PUSH1 0x1 PUSH1 0x1 PUSH1 0xA0 SHL SUB DUP4 DUP2 AND PUSH2 0x100 DUP2 DUP2 MUL PUSH2 0x100 PUSH1 0x1 PUSH1 0xA8 SHL SUB NOT DUP6 AND OR SWAP1 SWAP5 SSTORE PUSH1 0x40 MLOAD SWAP4 SWAP1 SWAP3 DIV AND SWAP2 DUP3 SWAP1 PUSH32 0x8BE0079C531659141344CD1FD0A4F28419497F9722A3DAAFE3B4186F6B6457E0 SWAP1 PUSH1 0x0 SWAP1 LOG3 POP POP JUMP JUMPDEST PUSH1 0x1 PUSH1 0x1 PUSH1 0xA0 SHL SUB DUP3 AND PUSH3 0x2D4 JUMPI PUSH1 0x40 MLOAD PUSH4 0xEC442F05 PUSH1 0xE0 SHL DUP2 MSTORE PUSH1 0x0 PUSH1 0x4 DUP3 ADD MSTORE PUSH1 0x24 ADD PUSH3 0xA5 JUMP JUMPDEST PUSH3 0x2E2 PUSH1 0x0 DUP4 DUP4 PUSH3 0x2E6 JUMP JUMPDEST POP POP JUMP JUMPDEST PUSH1 0x9 SLOAD PUSH1 0xFF AND DUP1 PUSH3 0x307 JUMPI POP CALLER PUSH1 0x0 SWAP1 DUP2 MSTORE PUSH1 0xE PUSH1 0x20 MSTORE PUSH1 0x40 SWAP1 KECCAK256 SLOAD PUSH1 0xFF AND JUMPDEST PUSH3 0x355 JUMPI PUSH1 0x40 MLOAD PUSH3 0x461BCD PUSH1 0xE5 SHL DUP2 MSTORE PUSH1 0x20 PUSH1 0x4 DUP3 ADD MSTORE PUSH1 0x13 PUSH1 0x24 DUP3 ADD MSTORE PUSH32 0x54726164696E67206E6F7420656E61626C656400000000000000000000000000 PUSH1 0x44 DUP3 ADD MSTORE PUSH1 0x64 ADD PUSH3 0xA5 JUMP JUMPDEST PUSH1 0x1 PUSH1 0x1 PUSH1 0xA0 SHL SUB DUP4 AND PUSH1 0x0 SWAP1 DUP2 MSTORE PUSH1 0xF PUSH1 0x20 MSTORE PUSH1 0x40 SWAP1 KECCAK256 SLOAD DUP4 SWAP1 PUSH1 0xFF AND ISZERO PUSH3 0x3C2 JUMPI PUSH1 0x40 MLOAD PUSH3 0x461BCD PUSH1 0xE5 SHL DUP2 MSTORE PUSH1 0x20 PUSH1 0x4 DUP3 ADD MSTORE PUSH1 0x16 PUSH1 0x24 DUP3 ADD MSTORE PUSH32 0x4164647265737320697320626C61636B6C697374656400000000000000000000 PUSH1 0x44 DUP3 ADD MSTORE PUSH1 0x64 ADD PUSH3 0xA5 JUMP JUMPDEST PUSH1 0x1 PUSH1 0x1 PUSH1 0xA0 SHL SUB DUP4 AND PUSH1 0x0 SWAP1 DUP2 MSTORE PUSH1 0xF PUSH1 0x20 MSTORE PUSH1 0x40 SWAP1 KECCAK256 SLOAD DUP4 SWAP1 PUSH1 0xFF AND ISZERO PUSH3 0x42F JUMPI PUSH1 0x40 MLOAD PUSH3 0x461BCD PUSH1 0xE5 SHL DUP2 MSTORE PUSH1 0x20 PUSH1 0x4 DUP3 ADD MSTORE PUSH1 0x16 PUSH1 0x24 DUP3 ADD MSTORE PUSH32 0x4164647265737320697320626C61636B6C697374656400000000000000000000 PUSH1 0x44 DUP3 ADD MSTORE PUSH1 0x64 ADD PUSH3 0xA5 JUMP JUMPDEST PUSH1 0x1 PUSH1 0x1 PUSH1 0xA0 SHL SUB DUP6 AND ISZERO DUP1 PUSH3 0x44D JUMPI POP PUSH1 0x1 PUSH1 0x1 PUSH1 0xA0 SHL SUB DUP5 AND ISZERO JUMPDEST DUP1 PUSH3 0x471 JUMPI POP PUSH1 0x1 PUSH1 0x1 PUSH1 0xA0 SHL SUB DUP6 AND PUSH1 0x0 SWAP1 DUP2 MSTORE PUSH1 0xE PUSH1 0x20 MSTORE PUSH1 0x40 SWAP1 KECCAK256 SLOAD PUSH1 0xFF AND JUMPDEST DUP1 PUSH3 0x495 JUMPI POP PUSH1 0x1 PUSH1 0x1 PUSH1 0xA0 SHL SUB DUP5 AND PUSH1 0x0 SWAP1 DUP2 MSTORE PUSH1 0xE PUSH1 0x20 MSTORE PUSH1 0x40 SWAP1 KECCAK256 SLOAD PUSH1 0xFF AND JUMPDEST ISZERO PUSH3 0x4AE JUMPI PUSH3 0x4A8 DUP6 DUP6 DUP6 PUSH3 0x596 JUMP JUMPDEST PUSH3 0x58F JUMP JUMPDEST PUSH1 0x7 SLOAD DUP4 GT ISZERO PUSH3 0x502 JUMPI PUSH1 0x40 MLOAD PUSH3 0x461BCD PUSH1 0xE5 SHL DUP2 MSTORE PUSH1 0x20 PUSH1 0x4 DUP3 ADD MSTORE PUSH1 0x1E PUSH1 0x24 DUP3 ADD MSTORE PUSH32 0x45786365656473206D6178207472616E73616374696F6E20616D6F756E740000 PUSH1 0x44 DUP3 ADD MSTORE PUSH1 0x64 ADD PUSH3 0xA5 JUMP JUMPDEST PUSH1 0x8 SLOAD DUP4 PUSH3 0x526 DUP7 PUSH1 0x1 PUSH1 0x1 PUSH1 0xA0 SHL SUB AND PUSH1 0x0 SWAP1 DUP2 MSTORE PUSH1 0x20 DUP2 SWAP1 MSTORE PUSH1 0x40 SWAP1 KECCAK256 SLOAD SWAP1 JUMP JUMPDEST PUSH3 0x532 SWAP2 SWAP1 PUSH3 0x8DA JUMP JUMPDEST GT ISZERO PUSH3 0x582 JUMPI PUSH1 0x40 MLOAD PUSH3 0x461BCD PUSH1 0xE5 SHL DUP2 MSTORE PUSH1 0x20 PUSH1 0x4 DUP3 ADD MSTORE PUSH1 0x19 PUSH1 0x24 DUP3 ADD MSTORE PUSH32 0x45786365656473206D61782077616C6C657420616D6F756E7400000000000000 PUSH1 0x44 DUP3 ADD MSTORE PUSH1 0x64 ADD PUSH3 0xA5 JUMP JUMPDEST PUSH3 0x58F DUP6 DUP6 DUP6 PUSH3 0x596 JUMP JUMPDEST POP POP POP POP POP JUMP JUMPDEST PUSH3 0x5A0 PUSH3 0x5B2 JUMP JUMPDEST PUSH3 0x5AD DUP4 DUP4 DUP4 PUSH3 0x5D9 JUMP JUMPDEST POP POP POP JUMP JUMPDEST PUSH1 0x5 SLOAD PUSH1 0xFF AND ISZERO PUSH3 0x5D7 JUMPI PUSH1 0x40 MLOAD PUSH4 0xD93C0665 PUSH1 0xE0 SHL DUP2 MSTORE PUSH1 0x4 ADD PUSH1 0x40 MLOAD DUP1 SWAP2 SUB SWAP1 REVERT JUMPDEST JUMP JUMPDEST PUSH1 0x1 PUSH1 0x1 PUSH1 0xA0 SHL SUB DUP4 AND PUSH3 0x608 JUMPI DUP1 PUSH1 0x2 PUSH1 0x0 DUP3 DUP3 SLOAD PUSH3 0x5FC SWAP2 SWAP1 PUSH3 0x8DA JUMP JUMPDEST SWAP1 SWAP2 SSTORE POP PUSH3 0x67C SWAP1 POP JUMP JUMPDEST PUSH1 0x1 PUSH1 0x1 PUSH1 0xA0 SHL SUB DUP4 AND PUSH1 0x0 SWAP1 DUP2 MSTORE PUSH1 0x20 DUP2 SWAP1 MSTORE PUSH1 0x40 SWAP1 KECCAK256 SLOAD DUP2 DUP2 LT ISZERO PUSH3 0x65D JUMPI PUSH1 0x40 MLOAD PUSH4 0x391434E3 PUSH1 0xE2 SHL DUP2 MSTORE PUSH1 0x1 PUSH1 0x1 PUSH1 0xA0 SHL SUB DUP6 AND PUSH1 0x4 DUP3 ADD MSTORE PUSH1 0x24 DUP2 ADD DUP3 SWAP1 MSTORE PUSH1 0x44 DUP2 ADD DUP4 SWAP1 MSTORE PUSH1 0x64 ADD PUSH3 0xA5 JUMP JUMPDEST PUSH1 0x1 PUSH1 0x1 PUSH1 0xA0 SHL SUB DUP5 AND PUSH1 0x0 SWAP1 DUP2 MSTORE PUSH1 0x20 DUP2 SWAP1 MSTORE PUSH1 0x40 SWAP1 KECCAK256 SWAP1 DUP3 SWAP1 SUB SWAP1 SSTORE JUMPDEST PUSH1 0x1 PUSH1 0x1 PUSH1 0xA0 SHL SUB DUP3 AND PUSH3 0x69A JUMPI PUSH1 0x2 DUP1 SLOAD DUP3 SWAP1 SUB SWAP1 SSTORE PUSH3 0x6B9 JUMP JUMPDEST PUSH1 0x1 PUSH1 0x1 PUSH1 0xA0 SHL SUB DUP3 AND PUSH1 0x0 SWAP1 DUP2 MSTORE PUSH1 0x20 DUP2 SWAP1 MSTORE PUSH1 0x40 SWAP1 KECCAK256 DUP1 SLOAD DUP3 ADD SWAP1 SSTORE JUMPDEST DUP2 PUSH1 0x1 PUSH1 0x1 PUSH1 0xA0 SHL SUB AND DUP4 PUSH1 0x1 PUSH1 0x1 PUSH1 0xA0 SHL SUB AND PUSH1 0x0 DUP1 MLOAD PUSH1 0x20 PUSH3 0x1FE0 DUP4 CODECOPY DUP2 MLOAD SWAP2 MSTORE DUP4 PUSH1 0x40 MLOAD PUSH3 0x6EE SWAP2 DUP2 MSTORE PUSH1 0x20 ADD SWAP1 JUMP JUMPDEST PUSH1 0x40 MLOAD DUP1 SWAP2 SUB SWAP1 LOG3 POP POP POP JUMP JUMPDEST PUSH4 0x4E487B71 PUSH1 0xE0 SHL PUSH1 0x0 MSTORE PUSH1 0x41 PUSH1 0x4 MSTORE PUSH1 0x24 PUSH1 0x0 REVERT JUMPDEST PUSH1 0x1 DUP2 DUP2 SHR SWAP1 DUP3 AND DUP1 PUSH3 0x726 JUMPI PUSH1 0x7F DUP3 AND SWAP2 POP JUMPDEST PUSH1 0x20 DUP3 LT DUP2 SUB PUSH3 0x747 JUMPI PUSH4 0x4E487B71 PUSH1 0xE0 SHL PUSH1 0x0 MSTORE PUSH1 0x22 PUSH1 0x4 MSTORE PUSH1 0x24 PUSH1 0x0 REVERT JUMPDEST POP SWAP2 SWAP1 POP JUMP JUMPDEST PUSH1 0x1F DUP3 GT ISZERO PUSH3 0x5AD JUMPI PUSH1 0x0 DUP2 DUP2 MSTORE PUSH1 0x20 DUP2 KECCAK256 PUSH1 0x1F DUP6 ADD PUSH1 0x5 SHR DUP2 ADD PUSH1 0x20 DUP7 LT ISZERO PUSH3 0x776 JUMPI POP DUP1 JUMPDEST PUSH1 0x1F DUP6 ADD PUSH1 0x5 SHR DUP3 ADD SWAP2 POP JUMPDEST DUP2 DUP2 LT ISZERO PUSH3 0x797 JUMPI DUP3 DUP2 SSTORE PUSH1 0x1 ADD PUSH3 0x782 JUMP JUMPDEST POP POP POP POP POP POP JUMP JUMPDEST DUP2 MLOAD PUSH1 0x1 PUSH1 0x1 PUSH1 0x40 SHL SUB DUP2 GT ISZERO PUSH3 0x7BB JUMPI PUSH3 0x7BB PUSH3 0x6FB JUMP JUMPDEST PUSH3 0x7D3 DUP2 PUSH3 0x7CC DUP5 SLOAD PUSH3 0x711 JUMP JUMPDEST DUP5 PUSH3 0x74D JUMP JUMPDEST PUSH1 0x20 DUP1 PUSH1 0x1F DUP4 GT PUSH1 0x1 DUP2 EQ PUSH3 0x80B JUMPI PUSH1 0x0 DUP5 ISZERO PUSH3 0x7F2 JUMPI POP DUP6 DUP4 ADD MLOAD JUMPDEST PUSH1 0x0 NOT PUSH1 0x3 DUP7 SWAP1 SHL SHR NOT AND PUSH1 0x1 DUP6 SWAP1 SHL OR DUP6 SSTORE PUSH3 0x797 JUMP JUMPDEST PUSH1 0x0 DUP6 DUP2 MSTORE PUSH1 0x20 DUP2 KECCAK256 PUSH1 0x1F NOT DUP7 AND SWAP2 JUMPDEST DUP3 DUP2 LT ISZERO PUSH3 0x83C JUMPI DUP9 DUP7 ADD MLOAD DUP3 SSTORE SWAP5 DUP5 ADD SWAP5 PUSH1 0x1 SWAP1 SWAP2 ADD SWAP1 DUP5 ADD PUSH3 0x81B JUMP JUMPDEST POP DUP6 DUP3 LT ISZERO PUSH3 0x85B JUMPI DUP8 DUP6 ADD MLOAD PUSH1 0x0 NOT PUSH1 0x3 DUP9 SWAP1 SHL PUSH1 0xF8 AND SHR NOT AND DUP2 SSTORE JUMPDEST POP POP POP POP POP PUSH1 0x1 SWAP1 DUP2 SHL ADD SWAP1 SSTORE POP JUMP JUMPDEST PUSH4 0x4E487B71 PUSH1 0xE0 SHL PUSH1 0x0 MSTORE PUSH1 0x11 PUSH1 0x4 MSTORE PUSH1 0x24 PUSH1 0x0 REVERT JUMPDEST DUP1 DUP3 MUL DUP2 ISZERO DUP3 DUP3 DIV DUP5 EQ OR PUSH3 0x89B JUMPI PUSH3 0x89B PUSH3 0x86B JUMP JUMPDEST SWAP3 SWAP2 POP POP JUMP JUMPDEST PUSH1 0x0 DUP3 PUSH3 0x8BF JUMPI PUSH4 0x4E487B71 PUSH1 0xE0 SHL PUSH1 0x0 MSTORE PUSH1 0x12 PUSH1 0x4 MSTORE PUSH1 0x24 PUSH1 0x0 REVERT JUMPDEST POP DIV SWAP1 JUMP JUMPDEST DUP2 DUP2 SUB DUP2 DUP2 GT ISZERO PUSH3 0x89B JUMPI PUSH3 0x89B PUSH3 0x86B JUMP JUMPDEST DUP1 DUP3 ADD DUP1 DUP3 GT ISZERO PUSH3 0x89B JUMPI PUSH3 0x89B PUSH3 0x86B JUMP JUMPDEST PUSH2 0x16E0 DUP1 PUSH3 0x900 PUSH1 0x0 CODECOPY PUSH1 0x0 RETURN INVALID PUSH1 0x80 PUSH1 0x40 MSTORE CALLVALUE DUP1 ISZERO PUSH2 0x10 JUMPI PUSH1 0x0 DUP1 REVERT JUMPDEST POP PUSH1 0x4 CALLDATASIZE LT PUSH2 0x227 JUMPI PUSH1 0x0 CALLDATALOAD PUSH1 0xE0 SHR DUP1 PUSH4 0x70A08231 GT PUSH2 0x130 JUMPI DUP1 PUSH4 0xA2DE66FC GT PUSH2 0xB8 JUMPI DUP1 PUSH4 0xD01DD6D2 GT PUSH2 0x7C JUMPI DUP1 PUSH4 0xD01DD6D2 EQ PUSH2 0x4AC JUMPI DUP1 PUSH4 0xDD62ED3E EQ PUSH2 0x4BF JUMPI DUP1 PUSH4 0xEA7F9888 EQ PUSH2 0x4F8 JUMPI DUP1 PUSH4 0xF2FDE38B EQ PUSH2 0x501 JUMPI DUP1 PUSH4 0xFE575A87 EQ PUSH2 0x514 JUMPI PUSH1 0x0 DUP1 REVERT JUMPDEST DUP1 PUSH4 0xA2DE66FC EQ PUSH2 0x476 JUMPI DUP1 PUSH4 0xA9059CBB EQ PUSH2 0x47E JUMPI DUP1 PUSH4 0xAA4BDE28 EQ PUSH2 0x491 JUMPI DUP1 PUSH4 0xC8C8EBE4 EQ PUSH2 0x49A JUMPI DUP1 PUSH4 0xCD881742 EQ PUSH2 0x4A3 JUMPI PUSH1 0x0 DUP1 REVERT JUMPDEST DUP1 PUSH4 0x8456CB59 GT PUSH2 0xFF JUMPI DUP1 PUSH4 0x8456CB59 EQ PUSH2 0x435 JUMPI DUP1 PUSH4 0x8980F11F EQ PUSH2 0x43D JUMPI DUP1 PUSH4 0x8A8C523C EQ PUSH2 0x450 JUMPI DUP1 PUSH4 0x8DA5CB5B EQ PUSH2 0x458 JUMPI DUP1 PUSH4 0x95D89B41 EQ PUSH2 0x46E JUMPI PUSH1 0x0 DUP1 REVERT JUMPDEST DUP1 PUSH4 0x70A08231 EQ PUSH2 0x3E9 JUMPI DUP1 PUSH4 0x715018A6 EQ PUSH2 0x412 JUMPI DUP1 PUSH4 0x751039FC EQ PUSH2 0x41A JUMPI DUP1 PUSH4 0x79CC6790 EQ PUSH2 0x422 JUMPI PUSH1 0x0 DUP1 REVERT JUMPDEST DUP1 PUSH4 0x36FDDB04 GT PUSH2 0x1B3 JUMPI DUP1 PUSH4 0x4ADA218B GT PUSH2 0x182 JUMPI DUP1 PUSH4 0x4ADA218B EQ PUSH2 0x37A JUMPI DUP1 PUSH4 0x59927044 EQ PUSH2 0x387 JUMPI DUP1 PUSH4 0x5C975ABB EQ PUSH2 0x3B2 JUMPI DUP1 PUSH4 0x5CCE86CD EQ PUSH2 0x3BD JUMPI DUP1 PUSH4 0x65CF7C9B EQ PUSH2 0x3E0 JUMPI PUSH1 0x0 DUP1 REVERT JUMPDEST DUP1 PUSH4 0x36FDDB04 EQ PUSH2 0x2E4 JUMPI DUP1 PUSH4 0x3975E4EA EQ PUSH2 0x2F7 JUMPI DUP1 PUSH4 0x3F4BA83A EQ PUSH2 0x35F JUMPI DUP1 PUSH4 0x42966C68 EQ PUSH2 0x367 JUMPI PUSH1 0x0 DUP1 REVERT JUMPDEST DUP1 PUSH4 0x18160DDD GT PUSH2 0x1FA JUMPI DUP1 PUSH4 0x18160DDD EQ PUSH2 0x28A JUMPI DUP1 PUSH4 0x1E293C10 EQ PUSH2 0x29C JUMPI DUP1 PUSH4 0x23B872DD EQ PUSH2 0x2AF JUMPI DUP1 PUSH4 0x27A14FC2 EQ PUSH2 0x2C2 JUMPI DUP1 PUSH4 0x313CE567 EQ PUSH2 0x2D5 JUMPI PUSH1 0x0 DUP1 REVERT JUMPDEST DUP1 PUSH4 0x6FDDE03 EQ PUSH2 0x22C JUMPI DUP1 PUSH4 0x95EA7B3 EQ PUSH2 0x24A JUMPI DUP1 PUSH4 0x14C411C7 EQ PUSH2 0x26D JUMPI DUP1 PUSH4 0x1525FF7D EQ PUSH2 0x277 JUMPI JUMPDEST PUSH1 0x0 DUP1 REVERT JUMPDEST PUSH2 0x234 PUSH2 0x537 JUMP JUMPDEST PUSH1 0x40 MLOAD PUSH2 0x241 SWAP2 SWAP1 PUSH2 0x145B JUMP JUMPDEST PUSH1 0x40 MLOAD DUP1 SWAP2 SUB SWAP1 RETURN JUMPDEST PUSH2 0x25D PUSH2 0x258 CALLDATASIZE PUSH1 0x4 PUSH2 0x14C5 JUMP JUMPDEST PUSH2 0x5C9 JUMP JUMPDEST PUSH1 0x40 MLOAD SWAP1 ISZERO ISZERO DUP2 MSTORE PUSH1 0x20 ADD PUSH2 0x241 JUMP JUMPDEST PUSH2 0x275 PUSH2 0x5E3 JUMP JUMPDEST STOP JUMPDEST PUSH2 0x275 PUSH2 0x285 CALLDATASIZE PUSH1 0x4 PUSH2 0x14EF JUMP JUMPDEST PUSH2 0x72C JUMP JUMPDEST PUSH1 0x2 SLOAD JUMPDEST PUSH1 0x40 MLOAD SWAP1 DUP2 MSTORE PUSH1 0x20 ADD PUSH2 0x241 JUMP JUMPDEST PUSH2 0x275 PUSH2 0x2AA CALLDATASIZE PUSH1 0x4 PUSH2 0x1511 JUMP JUMPDEST PUSH2 0x79E JUMP JUMPDEST PUSH2 0x25D PUSH2 0x2BD CALLDATASIZE PUSH1 0x4 PUSH2 0x152A JUMP JUMPDEST PUSH2 0x83B JUMP JUMPDEST PUSH2 0x275 PUSH2 0x2D0 CALLDATASIZE PUSH1 0x4 PUSH2 0x1511 JUMP JUMPDEST PUSH2 0x85F JUMP JUMPDEST PUSH1 0x40 MLOAD PUSH1 0x12 DUP2 MSTORE PUSH1 0x20 ADD PUSH2 0x241 JUMP JUMPDEST PUSH2 0x275 PUSH2 0x2F2 CALLDATASIZE PUSH1 0x4 PUSH2 0x1574 JUMP JUMPDEST PUSH2 0x8F5 JUMP JUMPDEST PUSH1 0x40 DUP1 MLOAD PUSH12 0x33B2E3C9FD0803CE8000000 DUP2 MSTORE PUSH11 0x7C13BC4B2C133C56000000 PUSH1 0x20 DUP3 ADD MSTORE PUSH11 0xA56FA5B99019A5C8000000 SWAP2 DUP2 ADD SWAP2 SWAP1 SWAP2 MSTORE PUSH11 0xF8277896582678AC000000 PUSH1 0x60 DUP3 ADD DUP2 SWAP1 MSTORE PUSH11 0x295BE96E64066972000000 PUSH1 0x80 DUP4 ADD MSTORE PUSH1 0xA0 DUP3 ADD MSTORE PUSH1 0xC0 ADD PUSH2 0x241 JUMP JUMPDEST PUSH2 0x275 PUSH2 0x961 JUMP JUMPDEST PUSH2 0x275 PUSH2 0x375 CALLDATASIZE PUSH1 0x4 PUSH2 0x1511 JUMP JUMPDEST PUSH2 0x971 JUMP JUMPDEST PUSH1 0x9 SLOAD PUSH2 0x25D SWAP1 PUSH1 0xFF AND DUP2 JUMP JUMPDEST PUSH1 0xB SLOAD PUSH2 0x39A SWAP1 PUSH1 0x1 PUSH1 0x1 PUSH1 0xA0 SHL SUB AND DUP2 JUMP JUMPDEST PUSH1 0x40 MLOAD PUSH1 0x1 PUSH1 0x1 PUSH1 0xA0 SHL SUB SWAP1 SWAP2 AND DUP2 MSTORE PUSH1 0x20 ADD PUSH2 0x241 JUMP JUMPDEST PUSH1 0x5 SLOAD PUSH1 0xFF AND PUSH2 0x25D JUMP JUMPDEST PUSH2 0x25D PUSH2 0x3CB CALLDATASIZE PUSH1 0x4 PUSH2 0x14EF JUMP JUMPDEST PUSH1 0xE PUSH1 0x20 MSTORE PUSH1 0x0 SWAP1 DUP2 MSTORE PUSH1 0x40 SWAP1 KECCAK256 SLOAD PUSH1 0xFF AND DUP2 JUMP JUMPDEST PUSH2 0x28E PUSH1 0xA SLOAD DUP2 JUMP JUMPDEST PUSH2 0x28E PUSH2 0x3F7 CALLDATASIZE PUSH1 0x4 PUSH2 0x14EF JUMP JUMPDEST PUSH1 0x1 PUSH1 0x1 PUSH1 0xA0 SHL SUB AND PUSH1 0x0 SWAP1 DUP2 MSTORE PUSH1 0x20 DUP2 SWAP1 MSTORE PUSH1 0x40 SWAP1 KECCAK256 SLOAD SWAP1 JUMP JUMPDEST PUSH2 0x275 PUSH2 0x97E JUMP JUMPDEST PUSH2 0x275 PUSH2 0x990 JUMP JUMPDEST PUSH2 0x275 PUSH2 0x430 CALLDATASIZE PUSH1 0x4 PUSH2 0x14C5 JUMP JUMPDEST PUSH2 0xA24 JUMP JUMPDEST PUSH2 0x275 PUSH2 0xA3D JUMP JUMPDEST PUSH2 0x275 PUSH2 0x44B CALLDATASIZE PUSH1 0x4 PUSH2 0x14C5 JUMP JUMPDEST PUSH2 0xA4D JUMP JUMPDEST PUSH2 0x275 PUSH2 0xB4A JUMP JUMPDEST PUSH1 0x5 SLOAD PUSH2 0x100 SWAP1 DIV PUSH1 0x1 PUSH1 0x1 PUSH1 0xA0 SHL SUB AND PUSH2 0x39A JUMP JUMPDEST PUSH2 0x234 PUSH2 0xBEA JUMP JUMPDEST PUSH2 0x28E PUSH2 0xBF9 JUMP JUMPDEST PUSH2 0x25D PUSH2 0x48C CALLDATASIZE PUSH1 0x4 PUSH2 0x14C5 JUMP JUMPDEST PUSH2 0xC77 JUMP JUMPDEST PUSH2 0x28E PUSH1 0x8 SLOAD DUP2 JUMP JUMPDEST PUSH2 0x28E PUSH1 0x7 SLOAD DUP2 JUMP JUMPDEST PUSH2 0x28E PUSH1 0xC SLOAD DUP2 JUMP JUMPDEST PUSH2 0x275 PUSH2 0x4BA CALLDATASIZE PUSH1 0x4 PUSH2 0x1574 JUMP JUMPDEST PUSH2 0xC85 JUMP JUMPDEST PUSH2 0x28E PUSH2 0x4CD CALLDATASIZE PUSH1 0x4 PUSH2 0x15AB JUMP JUMPDEST PUSH1 0x1 PUSH1 0x1 PUSH1 0xA0 SHL SUB SWAP2 DUP3 AND PUSH1 0x0 SWAP1 DUP2 MSTORE PUSH1 0x1 PUSH1 0x20 SWAP1 DUP2 MSTORE PUSH1 0x40 DUP1 DUP4 KECCAK256 SWAP4 SWAP1 SWAP5 AND DUP3 MSTORE SWAP2 SWAP1 SWAP2 MSTORE KECCAK256 SLOAD SWAP1 JUMP JUMPDEST PUSH2 0x28E PUSH1 0xD SLOAD DUP2 JUMP JUMPDEST PUSH2 0x275 PUSH2 0x50F CALLDATASIZE PUSH1 0x4 PUSH2 0x14EF JUMP JUMPDEST PUSH2 0xCE9 JUMP JUMPDEST PUSH2 0x25D PUSH2 0x522 CALLDATASIZE PUSH1 0x4 PUSH2 0x14EF JUMP JUMPDEST PUSH1 0xF PUSH1 0x20 MSTORE PUSH1 0x0 SWAP1 DUP2 MSTORE PUSH1 0x40 SWAP1 KECCAK256 SLOAD PUSH1 0xFF AND DUP2 JUMP JUMPDEST PUSH1 0x60 PUSH1 0x3 DUP1 SLOAD PUSH2 0x546 SWAP1 PUSH2 0x15DE JUMP JUMPDEST DUP1 PUSH1 0x1F ADD PUSH1 0x20 DUP1 SWAP2 DIV MUL PUSH1 0x20 ADD PUSH1 0x40 MLOAD SWAP1 DUP2 ADD PUSH1 0x40 MSTORE DUP1 SWAP3 SWAP2 SWAP1 DUP2 DUP2 MSTORE PUSH1 0x20 ADD DUP3 DUP1 SLOAD PUSH2 0x572 SWAP1 PUSH2 0x15DE JUMP JUMPDEST DUP1 ISZERO PUSH2 0x5BF JUMPI DUP1 PUSH1 0x1F LT PUSH2 0x594 JUMPI PUSH2 0x100 DUP1 DUP4 SLOAD DIV MUL DUP4 MSTORE SWAP2 PUSH1 0x20 ADD SWAP2 PUSH2 0x5BF JUMP JUMPDEST DUP3 ADD SWAP2 SWAP1 PUSH1 0x0 MSTORE PUSH1 0x20 PUSH1 0x0 KECCAK256 SWAP1 JUMPDEST DUP2 SLOAD DUP2 MSTORE SWAP1 PUSH1 0x1 ADD SWAP1 PUSH1 0x20 ADD DUP1 DUP4 GT PUSH2 0x5A2 JUMPI DUP3 SWAP1 SUB PUSH1 0x1F AND DUP3 ADD SWAP2 JUMPDEST POP POP POP POP POP SWAP1 POP SWAP1 JUMP JUMPDEST PUSH1 0x0 CALLER PUSH2 0x5D7 DUP2 DUP6 DUP6 PUSH2 0xD24 JUMP JUMPDEST PUSH1 0x1 SWAP2 POP POP JUMPDEST SWAP3 SWAP2 POP POP JUMP JUMPDEST PUSH2 0x5EB PUSH2 0xD31 JUMP JUMPDEST PUSH1 0xB SLOAD PUSH1 0x1 PUSH1 0x1 PUSH1 0xA0 SHL SUB AND CALLER EQ DUP1 PUSH2 0x625 JUMPI POP PUSH1 0x5 SLOAD PUSH2 0x100 SWAP1 DIV PUSH1 0x1 PUSH1 0x1 PUSH1 0xA0 SHL SUB AND PUSH1 0x1 PUSH1 0x1 PUSH1 0xA0 SHL SUB AND CALLER PUSH1 0x1 PUSH1 0x1 PUSH1 0xA0 SHL SUB AND EQ JUMPDEST PUSH2 0x665 JUMPI PUSH1 0x40 MLOAD PUSH3 0x461BCD PUSH1 0xE5 SHL DUP2 MSTORE PUSH1 0x20 PUSH1 0x4 DUP3 ADD MSTORE PUSH1 0xC PUSH1 0x24 DUP3 ADD MSTORE PUSH12 0x155B985D5D1A1BDC9A5E9959 PUSH1 0xA2 SHL PUSH1 0x44 DUP3 ADD MSTORE PUSH1 0x64 ADD JUMPDEST PUSH1 0x40 MLOAD DUP1 SWAP2 SUB SWAP1 REVERT JUMPDEST PUSH1 0x0 PUSH2 0x66F PUSH2 0xBF9 JUMP JUMPDEST SWAP1 POP PUSH1 0x0 DUP2 GT PUSH2 0x6B8 JUMPI PUSH1 0x40 MLOAD PUSH3 0x461BCD PUSH1 0xE5 SHL DUP2 MSTORE PUSH1 0x20 PUSH1 0x4 DUP3 ADD MSTORE PUSH1 0x14 PUSH1 0x24 DUP3 ADD MSTORE PUSH20 0x4E6F20746F6B656E7320746F2072656C65617365 PUSH1 0x60 SHL PUSH1 0x44 DUP3 ADD MSTORE PUSH1 0x64 ADD PUSH2 0x65C JUMP JUMPDEST DUP1 PUSH1 0xC PUSH1 0x0 DUP3 DUP3 SLOAD PUSH2 0x6CA SWAP2 SWAP1 PUSH2 0x162E JUMP JUMPDEST SWAP1 SWAP2 SSTORE POP POP PUSH1 0xB SLOAD PUSH2 0x6E7 SWAP1 ADDRESS SWAP1 PUSH1 0x1 PUSH1 0x1 PUSH1 0xA0 SHL SUB AND DUP4 PUSH2 0xD5B JUMP JUMPDEST PUSH1 0x40 DUP1 MLOAD DUP3 DUP2 MSTORE TIMESTAMP PUSH1 0x20 DUP3 ADD MSTORE PUSH32 0xF8D4E868D21B6CFBDBBDEC864799E9A4026DA7F0E1E517581108BDBA1949E96F SWAP2 ADD PUSH1 0x40 MLOAD DUP1 SWAP2 SUB SWAP1 LOG1 POP PUSH2 0x72A PUSH1 0x1 PUSH1 0x6 SSTORE JUMP JUMPDEST JUMP JUMPDEST PUSH2 0x734 PUSH2 0xDBA JUMP JUMPDEST PUSH1 0x1 PUSH1 0x1 PUSH1 0xA0 SHL SUB DUP2 AND PUSH2 0x77C JUMPI PUSH1 0x40 MLOAD PUSH3 0x461BCD PUSH1 0xE5 SHL DUP2 MSTORE PUSH1 0x20 PUSH1 0x4 DUP3 ADD MSTORE PUSH1 0xF PUSH1 0x24 DUP3 ADD MSTORE PUSH15 0x496E76616C69642061646472657373 PUSH1 0x88 SHL PUSH1 0x44 DUP3 ADD MSTORE PUSH1 0x64 ADD PUSH2 0x65C JUMP JUMPDEST PUSH1 0xB DUP1 SLOAD PUSH1 0x1 PUSH1 0x1 PUSH1 0xA0 SHL SUB NOT AND PUSH1 0x1 PUSH1 0x1 PUSH1 0xA0 SHL SUB SWAP3 SWAP1 SWAP3 AND SWAP2 SWAP1 SWAP2 OR SWAP1 SSTORE JUMP JUMPDEST PUSH2 0x7A6 PUSH2 0xDBA JUMP JUMPDEST PUSH2 0x7BE PUSH2 0x3E8 PUSH12 0x33B2E3C9FD0803CE8000000 PUSH2 0x1641 JUMP JUMPDEST DUP2 LT ISZERO PUSH2 0x7FF JUMPI PUSH1 0x40 MLOAD PUSH3 0x461BCD PUSH1 0xE5 SHL DUP2 MSTORE PUSH1 0x20 PUSH1 0x4 DUP3 ADD MSTORE PUSH1 0xF PUSH1 0x24 DUP3 ADD MSTORE PUSH15 0x546F6F207265737472696374697665 PUSH1 0x88 SHL PUSH1 0x44 DUP3 ADD MSTORE PUSH1 0x64 ADD PUSH2 0x65C JUMP JUMPDEST PUSH1 0x7 DUP2 SWAP1 SSTORE PUSH1 0x40 MLOAD DUP2 DUP2 MSTORE PUSH32 0x7C1CB3702D8E1FA6D24B12DD90670AB69C6D66D58233103D37DA8B07D6B850AC SWAP1 PUSH1 0x20 ADD JUMPDEST PUSH1 0x40 MLOAD DUP1 SWAP2 SUB SWAP1 LOG1 POP JUMP JUMPDEST PUSH1 0x0 CALLER PUSH2 0x849 DUP6 DUP3 DUP6 PUSH2 0xDED JUMP JUMPDEST PUSH2 0x854 DUP6 DUP6 DUP6 PUSH2 0xD5B JUMP JUMPDEST POP PUSH1 0x1 SWAP5 SWAP4 POP POP POP POP JUMP JUMPDEST PUSH2 0x867 PUSH2 0xDBA JUMP JUMPDEST PUSH2 0x87F PUSH2 0x3E8 PUSH12 0x33B2E3C9FD0803CE8000000 PUSH2 0x1641 JUMP JUMPDEST DUP2 LT ISZERO PUSH2 0x8C0 JUMPI PUSH1 0x40 MLOAD PUSH3 0x461BCD PUSH1 0xE5 SHL DUP2 MSTORE PUSH1 0x20 PUSH1 0x4 DUP3 ADD MSTORE PUSH1 0xF PUSH1 0x24 DUP3 ADD MSTORE PUSH15 0x546F6F207265737472696374697665 PUSH1 0x88 SHL PUSH1 0x44 DUP3 ADD MSTORE PUSH1 0x64 ADD PUSH2 0x65C JUMP JUMPDEST PUSH1 0x8 DUP2 SWAP1 SSTORE PUSH1 0x40 MLOAD DUP2 DUP2 MSTORE PUSH32 0x4B39C36D20C57D220F61FD25C4349D4435CC03EF6C2A680942F15333C3C3E001 SWAP1 PUSH1 0x20 ADD PUSH2 0x830 JUMP JUMPDEST PUSH2 0x8FD PUSH2 0xDBA JUMP JUMPDEST PUSH1 0x1 PUSH1 0x1 PUSH1 0xA0 SHL SUB DUP3 AND PUSH1 0x0 DUP2 DUP2 MSTORE PUSH1 0xE PUSH1 0x20 SWAP1 DUP2 MSTORE PUSH1 0x40 SWAP2 DUP3 SWAP1 KECCAK256 DUP1 SLOAD PUSH1 0xFF NOT AND DUP6 ISZERO ISZERO SWAP1 DUP2 OR SWAP1 SWAP2 SSTORE DUP3 MLOAD SWAP4 DUP5 MSTORE SWAP1 DUP4 ADD MSTORE PUSH32 0xC595FC2EFDE600A18F1717C9D6B918B40327C77877AEE714804FE0061853DA79 SWAP2 ADD JUMPDEST PUSH1 0x40 MLOAD DUP1 SWAP2 SUB SWAP1 LOG1 POP POP JUMP JUMPDEST PUSH2 0x969 PUSH2 0xDBA JUMP JUMPDEST PUSH2 0x72A PUSH2 0xE6C JUMP JUMPDEST PUSH2 0x97B CALLER DUP3 PUSH2 0xEB9 JUMP JUMPDEST POP JUMP JUMPDEST PUSH2 0x986 PUSH2 0xDBA JUMP JUMPDEST PUSH2 0x72A PUSH1 0x0 PUSH2 0xEEF JUMP JUMPDEST PUSH2 0x998 PUSH2 0xDBA JUMP JUMPDEST PUSH12 0x33B2E3C9FD0803CE8000000 PUSH1 0x7 DUP2 SWAP1 SSTORE PUSH1 0x8 DUP2 SWAP1 SSTORE PUSH1 0x40 MLOAD SWAP1 DUP2 MSTORE PUSH32 0x7C1CB3702D8E1FA6D24B12DD90670AB69C6D66D58233103D37DA8B07D6B850AC SWAP1 PUSH1 0x20 ADD PUSH1 0x40 MLOAD DUP1 SWAP2 SUB SWAP1 LOG1 PUSH1 0x40 MLOAD PUSH12 0x33B2E3C9FD0803CE8000000 DUP2 MSTORE PUSH32 0x4B39C36D20C57D220F61FD25C4349D4435CC03EF6C2A680942F15333C3C3E001 SWAP1 PUSH1 0x20 ADD JUMPDEST PUSH1 0x40 MLOAD DUP1 SWAP2 SUB SWAP1 LOG1 JUMP JUMPDEST PUSH2 0xA2F DUP3 CALLER DUP4 PUSH2 0xDED JUMP JUMPDEST PUSH2 0xA39 DUP3 DUP3 PUSH2 0xEB9 JUMP JUMPDEST POP POP JUMP JUMPDEST PUSH2 0xA45 PUSH2 0xDBA JUMP JUMPDEST PUSH2 0x72A PUSH2 0xF49 JUMP JUMPDEST PUSH2 0xA55 PUSH2 0xDBA JUMP JUMPDEST ADDRESS PUSH1 0x1 PUSH1 0x1 PUSH1 0xA0 SHL SUB DUP4 AND SUB PUSH2 0xAAD JUMPI PUSH1 0x40 MLOAD PUSH3 0x461BCD PUSH1 0xE5 SHL DUP2 MSTORE PUSH1 0x20 PUSH1 0x4 DUP3 ADD MSTORE PUSH1 0x19 PUSH1 0x24 DUP3 ADD MSTORE PUSH32 0x43616E6E6F74207265636F7665722052474320746F6B656E7300000000000000 PUSH1 0x44 DUP3 ADD MSTORE PUSH1 0x64 ADD PUSH2 0x65C JUMP JUMPDEST DUP2 PUSH1 0x1 PUSH1 0x1 PUSH1 0xA0 SHL SUB AND PUSH4 0xA9059CBB PUSH2 0xAD4 PUSH1 0x5 SLOAD PUSH1 0x1 PUSH1 0x1 PUSH1 0xA0 SHL SUB PUSH2 0x100 SWAP1 SWAP2 DIV AND SWAP1 JUMP JUMPDEST PUSH1 0x40 MLOAD PUSH1 0x1 PUSH1 0x1 PUSH1 0xE0 SHL SUB NOT PUSH1 0xE0 DUP5 SWAP1 SHL AND DUP2 MSTORE PUSH1 0x1 PUSH1 0x1 PUSH1 0xA0 SHL SUB SWAP1 SWAP2 AND PUSH1 0x4 DUP3 ADD MSTORE PUSH1 0x24 DUP2 ADD DUP5 SWAP1 MSTORE PUSH1 0x44 ADD PUSH1 0x20 PUSH1 0x40 MLOAD DUP1 DUP4 SUB DUP2 PUSH1 0x0 DUP8 GAS CALL ISZERO DUP1 ISZERO PUSH2 0xB21 JUMPI RETURNDATASIZE PUSH1 0x0 DUP1 RETURNDATACOPY RETURNDATASIZE PUSH1 0x0 REVERT JUMPDEST POP POP POP POP PUSH1 0x40 MLOAD RETURNDATASIZE PUSH1 0x1F NOT PUSH1 0x1F DUP3 ADD AND DUP3 ADD DUP1 PUSH1 0x40 MSTORE POP DUP2 ADD SWAP1 PUSH2 0xB45 SWAP2 SWAP1 PUSH2 0x1663 JUMP JUMPDEST POP POP POP JUMP JUMPDEST PUSH2 0xB52 PUSH2 0xDBA JUMP JUMPDEST PUSH1 0x9 SLOAD PUSH1 0xFF AND ISZERO PUSH2 0xBA5 JUMPI PUSH1 0x40 MLOAD PUSH3 0x461BCD PUSH1 0xE5 SHL DUP2 MSTORE PUSH1 0x20 PUSH1 0x4 DUP3 ADD MSTORE PUSH1 0x17 PUSH1 0x24 DUP3 ADD MSTORE PUSH32 0x54726164696E6720616C726561647920656E61626C6564000000000000000000 PUSH1 0x44 DUP3 ADD MSTORE PUSH1 0x64 ADD PUSH2 0x65C JUMP JUMPDEST PUSH1 0x9 DUP1 SLOAD PUSH1 0xFF NOT AND PUSH1 0x1 OR SWAP1 SSTORE TIMESTAMP PUSH1 0xA DUP2 SWAP1 SSTORE PUSH1 0x40 MLOAD PUSH32 0xB3DA2DB3DFC3778F99852546C6E9AB39EC253F9DE7B0847AFEC61BD27878E923 SWAP2 PUSH2 0xA1A SWAP2 SWAP1 DUP2 MSTORE PUSH1 0x20 ADD SWAP1 JUMP JUMPDEST PUSH1 0x60 PUSH1 0x4 DUP1 SLOAD PUSH2 0x546 SWAP1 PUSH2 0x15DE JUMP JUMPDEST PUSH1 0x0 PUSH1 0xD SLOAD TIMESTAMP LT ISZERO PUSH2 0xC0B JUMPI POP PUSH1 0x0 SWAP1 JUMP JUMPDEST PUSH1 0x0 PUSH1 0xD SLOAD TIMESTAMP PUSH2 0xC1B SWAP2 SWAP1 PUSH2 0x1680 JUMP JUMPDEST SWAP1 POP PUSH1 0x0 PUSH4 0x3B53800 DUP3 LT PUSH2 0xC3C JUMPI POP PUSH11 0x7C13BC4B2C133C56000000 PUSH2 0xC63 JUMP JUMPDEST PUSH4 0x3B53800 PUSH2 0xC56 DUP4 PUSH11 0x7C13BC4B2C133C56000000 PUSH2 0x1693 JUMP JUMPDEST PUSH2 0xC60 SWAP2 SWAP1 PUSH2 0x1641 JUMP JUMPDEST SWAP1 POP JUMPDEST PUSH1 0xC SLOAD PUSH2 0xC70 SWAP1 DUP3 PUSH2 0x1680 JUMP JUMPDEST SWAP3 POP POP POP SWAP1 JUMP JUMPDEST PUSH1 0x0 CALLER PUSH2 0x5D7 DUP2 DUP6 DUP6 PUSH2 0xD5B JUMP JUMPDEST PUSH2 0xC8D PUSH2 0xDBA JUMP JUMPDEST PUSH1 0x1 PUSH1 0x1 PUSH1 0xA0 SHL SUB DUP3 AND PUSH1 0x0 DUP2 DUP2 MSTORE PUSH1 0xF PUSH1 0x20 SWAP1 DUP2 MSTORE PUSH1 0x40 SWAP2 DUP3 SWAP1 KECCAK256 DUP1 SLOAD PUSH1 0xFF NOT AND DUP6 ISZERO ISZERO SWAP1 DUP2 OR SWAP1 SWAP2 SSTORE DUP3 MLOAD SWAP4 DUP5 MSTORE SWAP1 DUP4 ADD MSTORE PUSH32 0x97B7AF35C8C05ECA90F543EB78B16FDF2664D3E6C9A907286F310647D9813B71 SWAP2 ADD PUSH2 0x955 JUMP JUMPDEST PUSH2 0xCF1 PUSH2 0xDBA JUMP JUMPDEST PUSH1 0x1 PUSH1 0x1 PUSH1 0xA0 SHL SUB DUP2 AND PUSH2 0xD1B JUMPI PUSH1 0x40 MLOAD PUSH4 0x1E4FBDF7 PUSH1 0xE0 SHL DUP2 MSTORE PUSH1 0x0 PUSH1 0x4 DUP3 ADD MSTORE PUSH1 0x24 ADD PUSH2 0x65C JUMP JUMPDEST PUSH2 0x97B DUP2 PUSH2 0xEEF JUMP JUMPDEST PUSH2 0xB45 DUP4 DUP4 DUP4 PUSH1 0x1 PUSH2 0xF86 JUMP JUMPDEST PUSH1 0x2 PUSH1 0x6 SLOAD SUB PUSH2 0xD54 JUMPI PUSH1 0x40 MLOAD PUSH4 0x3EE5AEB5 PUSH1 0xE0 SHL DUP2 MSTORE PUSH1 0x4 ADD PUSH1 0x40 MLOAD DUP1 SWAP2 SUB SWAP1 REVERT JUMPDEST PUSH1 0x2 PUSH1 0x6 SSTORE JUMP JUMPDEST PUSH1 0x1 PUSH1 0x1 PUSH1 0xA0 SHL SUB DUP4 AND PUSH2 0xD85 JUMPI PUSH1 0x40 MLOAD PUSH4 0x4B637E8F PUSH1 0xE1 SHL DUP2 MSTORE PUSH1 0x0 PUSH1 0x4 DUP3 ADD MSTORE PUSH1 0x24 ADD PUSH2 0x65C JUMP JUMPDEST PUSH1 0x1 PUSH1 0x1 PUSH1 0xA0 SHL SUB DUP3 AND PUSH2 0xDAF JUMPI PUSH1 0x40 MLOAD PUSH4 0xEC442F05 PUSH1 0xE0 SHL DUP2 MSTORE PUSH1 0x0 PUSH1 0x4 DUP3 ADD MSTORE PUSH1 0x24 ADD PUSH2 0x65C JUMP JUMPDEST PUSH2 0xB45 DUP4 DUP4 DUP4 PUSH2 0x105B JUMP JUMPDEST PUSH1 0x5 SLOAD PUSH1 0x1 PUSH1 0x1 PUSH1 0xA0 SHL SUB PUSH2 0x100 SWAP1 SWAP2 DIV AND CALLER EQ PUSH2 0x72A JUMPI PUSH1 0x40 MLOAD PUSH4 0x118CDAA7 PUSH1 0xE0 SHL DUP2 MSTORE CALLER PUSH1 0x4 DUP3 ADD MSTORE PUSH1 0x24 ADD PUSH2 0x65C JUMP JUMPDEST PUSH1 0x1 PUSH1 0x1 PUSH1 0xA0 SHL SUB DUP4 DUP2 AND PUSH1 0x0 SWAP1 DUP2 MSTORE PUSH1 0x1 PUSH1 0x20 SWAP1 DUP2 MSTORE PUSH1 0x40 DUP1 DUP4 KECCAK256 SWAP4 DUP7 AND DUP4 MSTORE SWAP3 SWAP1 MSTORE KECCAK256 SLOAD PUSH1 0x0 NOT DUP2 LT ISZERO PUSH2 0xE66 JUMPI DUP2 DUP2 LT ISZERO PUSH2 0xE57 JUMPI PUSH1 0x40 MLOAD PUSH4 0x7DC7A0D9 PUSH1 0xE1 SHL DUP2 MSTORE PUSH1 0x1 PUSH1 0x1 PUSH1 0xA0 SHL SUB DUP5 AND PUSH1 0x4 DUP3 ADD MSTORE PUSH1 0x24 DUP2 ADD DUP3 SWAP1 MSTORE PUSH1 0x44 DUP2 ADD DUP4 SWAP1 MSTORE PUSH1 0x64 ADD PUSH2 0x65C JUMP JUMPDEST PUSH2 0xE66 DUP5 DUP5 DUP5 DUP5 SUB PUSH1 0x0 PUSH2 0xF86 JUMP JUMPDEST POP POP POP POP JUMP JUMPDEST PUSH2 0xE74 PUSH2 0x12DC JUMP JUMPDEST PUSH1 0x5 DUP1 SLOAD PUSH1 0xFF NOT AND SWAP1 SSTORE PUSH32 0x5DB9EE0A495BF2E6FF9C91A7834C1BA4FDD244A5E8AA4E537BD38AEAE4B073AA CALLER JUMPDEST PUSH1 0x40 MLOAD PUSH1 0x1 PUSH1 0x1 PUSH1 0xA0 SHL SUB SWAP1 SWAP2 AND DUP2 MSTORE PUSH1 0x20 ADD PUSH2 0xA1A JUMP JUMPDEST PUSH1 0x1 PUSH1 0x1 PUSH1 0xA0 SHL SUB DUP3 AND PUSH2 0xEE3 JUMPI PUSH1 0x40 MLOAD PUSH4 0x4B637E8F PUSH1 0xE1 SHL DUP2 MSTORE PUSH1 0x0 PUSH1 0x4 DUP3 ADD MSTORE PUSH1 0x24 ADD PUSH2 0x65C JUMP JUMPDEST PUSH2 0xA39 DUP3 PUSH1 0x0 DUP4 PUSH2 0x105B JUMP JUMPDEST PUSH1 0x5 DUP1 SLOAD PUSH1 0x1 PUSH1 0x1 PUSH1 0xA0 SHL SUB DUP4 DUP2 AND PUSH2 0x100 DUP2 DUP2 MUL PUSH2 0x100 PUSH1 0x1 PUSH1 0xA8 SHL SUB NOT DUP6 AND OR SWAP1 SWAP5 SSTORE PUSH1 0x40 MLOAD SWAP4 SWAP1 SWAP3 DIV AND SWAP2 DUP3 SWAP1 PUSH32 0x8BE0079C531659141344CD1FD0A4F28419497F9722A3DAAFE3B4186F6B6457E0 SWAP1 PUSH1 0x0 SWAP1 LOG3 POP POP JUMP JUMPDEST PUSH2 0xF51 PUSH2 0x12FF JUMP JUMPDEST PUSH1 0x5 DUP1 SLOAD PUSH1 0xFF NOT AND PUSH1 0x1 OR SWAP1 SSTORE PUSH32 0x62E78CEA01BEE320CD4E420270B5EA74000D11B0C9F74754EBDBFC544B05A258 PUSH2 0xEA1 CALLER SWAP1 JUMP JUMPDEST PUSH1 0x1 PUSH1 0x1 PUSH1 0xA0 SHL SUB DUP5 AND PUSH2 0xFB0 JUMPI PUSH1 0x40 MLOAD PUSH4 0xE602DF05 PUSH1 0xE0 SHL DUP2 MSTORE PUSH1 0x0 PUSH1 0x4 DUP3 ADD MSTORE PUSH1 0x24 ADD PUSH2 0x65C JUMP JUMPDEST PUSH1 0x1 PUSH1 0x1 PUSH1 0xA0 SHL SUB DUP4 AND PUSH2 0xFDA JUMPI PUSH1 0x40 MLOAD PUSH4 0x4A1406B1 PUSH1 0xE1 SHL DUP2 MSTORE PUSH1 0x0 PUSH1 0x4 DUP3 ADD MSTORE PUSH1 0x24 ADD PUSH2 0x65C JUMP JUMPDEST PUSH1 0x1 PUSH1 0x1 PUSH1 0xA0 SHL SUB DUP1 DUP6 AND PUSH1 0x0 SWAP1 DUP2 MSTORE PUSH1 0x1 PUSH1 0x20 SWAP1 DUP2 MSTORE PUSH1 0x40 DUP1 DUP4 KECCAK256 SWAP4 DUP8 AND DUP4 MSTORE SWAP3 SWAP1 MSTORE KECCAK256 DUP3 SWAP1 SSTORE DUP1 ISZERO PUSH2 0xE66 JUMPI DUP3 PUSH1 0x1 PUSH1 0x1 PUSH1 0xA0 SHL SUB AND DUP5 PUSH1 0x1 PUSH1 0x1 PUSH1 0xA0 SHL SUB AND PUSH32 0x8C5BE1E5EBEC7D5BD14F71427D1E84F3DD0314C0F7B2291E5B200AC8C7C3B925 DUP5 PUSH1 0x40 MLOAD PUSH2 0x104D SWAP2 DUP2 MSTORE PUSH1 0x20 ADD SWAP1 JUMP JUMPDEST PUSH1 0x40 MLOAD DUP1 SWAP2 SUB SWAP1 LOG3 POP POP POP POP JUMP JUMPDEST PUSH1 0x9 SLOAD PUSH1 0xFF AND DUP1 PUSH2 0x107B JUMPI POP CALLER PUSH1 0x0 SWAP1 DUP2 MSTORE PUSH1 0xE PUSH1 0x20 MSTORE PUSH1 0x40 SWAP1 KECCAK256 SLOAD PUSH1 0xFF AND JUMPDEST PUSH2 0x10BD JUMPI PUSH1 0x40 MLOAD PUSH3 0x461BCD PUSH1 0xE5 SHL DUP2 MSTORE PUSH1 0x20 PUSH1 0x4 DUP3 ADD MSTORE PUSH1 0x13 PUSH1 0x24 DUP3 ADD MSTORE PUSH19 0x151C98591A5B99C81B9BDD08195B98589B1959 PUSH1 0x6A SHL PUSH1 0x44 DUP3 ADD MSTORE PUSH1 0x64 ADD PUSH2 0x65C JUMP JUMPDEST PUSH1 0x1 PUSH1 0x1 PUSH1 0xA0 SHL SUB DUP4 AND PUSH1 0x0 SWAP1 DUP2 MSTORE PUSH1 0xF PUSH1 0x20 MSTORE PUSH1 0x40 SWAP1 KECCAK256 SLOAD DUP4 SWAP1 PUSH1 0xFF AND ISZERO PUSH2 0x1121 JUMPI PUSH1 0x40 MLOAD PUSH3 0x461BCD PUSH1 0xE5 SHL DUP2 MSTORE PUSH1 0x20 PUSH1 0x4 DUP3 ADD MSTORE PUSH1 0x16 PUSH1 0x24 DUP3 ADD MSTORE PUSH22 0x1059191C995CDCC81A5CC8189B1858DADB1A5CDD1959 PUSH1 0x52 SHL PUSH1 0x44 DUP3 ADD MSTORE PUSH1 0x64 ADD PUSH2 0x65C JUMP JUMPDEST PUSH1 0x1 PUSH1 0x1 PUSH1 0xA0 SHL SUB DUP4 AND PUSH1 0x0 SWAP1 DUP2 MSTORE PUSH1 0xF PUSH1 0x20 MSTORE PUSH1 0x40 SWAP1 KECCAK256 SLOAD DUP4 SWAP1 PUSH1 0xFF AND ISZERO PUSH2 0x1185 JUMPI PUSH1 0x40 MLOAD PUSH3 0x461BCD PUSH1 0xE5 SHL DUP2 MSTORE PUSH1 0x20 PUSH1 0x4 DUP3 ADD MSTORE PUSH1 0x16 PUSH1 0x24 DUP3 ADD MSTORE PUSH22 0x1059191C995CDCC81A5CC8189B1858DADB1A5CDD1959 PUSH1 0x52 SHL PUSH1 0x44 DUP3 ADD MSTORE PUSH1 0x64 ADD PUSH2 0x65C JUMP JUMPDEST PUSH1 0x1 PUSH1 0x1 PUSH1 0xA0 SHL SUB DUP6 AND ISZERO DUP1 PUSH2 0x11A2 JUMPI POP PUSH1 0x1 PUSH1 0x1 PUSH1 0xA0 SHL SUB DUP5 AND ISZERO JUMPDEST DUP1 PUSH2 0x11C5 JUMPI POP PUSH1 0x1 PUSH1 0x1 PUSH1 0xA0 SHL SUB DUP6 AND PUSH1 0x0 SWAP1 DUP2 MSTORE PUSH1 0xE PUSH1 0x20 MSTORE PUSH1 0x40 SWAP1 KECCAK256 SLOAD PUSH1 0xFF AND JUMPDEST DUP1 PUSH2 0x11E8 JUMPI POP PUSH1 0x1 PUSH1 0x1 PUSH1 0xA0 SHL SUB DUP5 AND PUSH1 0x0 SWAP1 DUP2 MSTORE PUSH1 0xE PUSH1 0x20 MSTORE PUSH1 0x40 SWAP1 KECCAK256 SLOAD PUSH1 0xFF AND JUMPDEST ISZERO PUSH2 0x11FD JUMPI PUSH2 0x11F8 DUP6 DUP6 DUP6 PUSH2 0x1323 JUMP JUMPDEST PUSH2 0x12D5 JUMP JUMPDEST PUSH1 0x7 SLOAD DUP4 GT ISZERO PUSH2 0x124F JUMPI PUSH1 0x40 MLOAD PUSH3 0x461BCD PUSH1 0xE5 SHL DUP2 MSTORE PUSH1 0x20 PUSH1 0x4 DUP3 ADD MSTORE PUSH1 0x1E PUSH1 0x24 DUP3 ADD MSTORE PUSH32 0x45786365656473206D6178207472616E73616374696F6E20616D6F756E740000 PUSH1 0x44 DUP3 ADD MSTORE PUSH1 0x64 ADD PUSH2 0x65C JUMP JUMPDEST PUSH1 0x8 SLOAD DUP4 PUSH2 0x1272 DUP7 PUSH1 0x1 PUSH1 0x1 PUSH1 0xA0 SHL SUB AND PUSH1 0x0 SWAP1 DUP2 MSTORE PUSH1 0x20 DUP2 SWAP1 MSTORE PUSH1 0x40 SWAP1 KECCAK256 SLOAD SWAP1 JUMP JUMPDEST PUSH2 0x127C SWAP2 SWAP1 PUSH2 0x162E JUMP JUMPDEST GT ISZERO PUSH2 0x12CA JUMPI PUSH1 0x40 MLOAD PUSH3 0x461BCD PUSH1 0xE5 SHL DUP2 MSTORE PUSH1 0x20 PUSH1 0x4 DUP3 ADD MSTORE PUSH1 0x19 PUSH1 0x24 DUP3 ADD MSTORE PUSH32 0x45786365656473206D61782077616C6C657420616D6F756E7400000000000000 PUSH1 0x44 DUP3 ADD MSTORE PUSH1 0x64 ADD PUSH2 0x65C JUMP JUMPDEST PUSH2 0x12D5 DUP6 DUP6 DUP6 PUSH2 0x1323 JUMP JUMPDEST POP POP POP POP POP JUMP JUMPDEST PUSH1 0x5 SLOAD PUSH1 0xFF AND PUSH2 0x72A JUMPI PUSH1 0x40 MLOAD PUSH4 0x8DFC202B PUSH1 0xE0 SHL DUP2 MSTORE PUSH1 0x4 ADD PUSH1 0x40 MLOAD DUP1 SWAP2 SUB SWAP1 REVERT JUMPDEST PUSH1 0x5 SLOAD PUSH1 0xFF AND ISZERO PUSH2 0x72A JUMPI PUSH1 0x40 MLOAD PUSH4 0xD93C0665 PUSH1 0xE0 SHL DUP2 MSTORE PUSH1 0x4 ADD PUSH1 0x40 MLOAD DUP1 SWAP2 SUB SWAP1 REVERT JUMPDEST PUSH2 0x132B PUSH2 0x12FF JUMP JUMPDEST PUSH2 0xB45 DUP4 DUP4 DUP4 PUSH1 0x1 PUSH1 0x1 PUSH1 0xA0 SHL SUB DUP4 AND PUSH2 0x135C JUMPI DUP1 PUSH1 0x2 PUSH1 0x0 DUP3 DUP3 SLOAD PUSH2 0x1351 SWAP2 SWAP1 PUSH2 0x162E JUMP JUMPDEST SWAP1 SWAP2 SSTORE POP PUSH2 0x13CE SWAP1 POP JUMP JUMPDEST PUSH1 0x1 PUSH1 0x1 PUSH1 0xA0 SHL SUB DUP4 AND PUSH1 0x0 SWAP1 DUP2 MSTORE PUSH1 0x20 DUP2 SWAP1 MSTORE PUSH1 0x40 SWAP1 KECCAK256 SLOAD DUP2 DUP2 LT ISZERO PUSH2 0x13AF JUMPI PUSH1 0x40 MLOAD PUSH4 0x391434E3 PUSH1 0xE2 SHL DUP2 MSTORE PUSH1 0x1 PUSH1 0x1 PUSH1 0xA0 SHL SUB DUP6 AND PUSH1 0x4 DUP3 ADD MSTORE PUSH1 0x24 DUP2 ADD DUP3 SWAP1 MSTORE PUSH1 0x44 DUP2 ADD DUP4 SWAP1 MSTORE PUSH1 0x64 ADD PUSH2 0x65C JUMP JUMPDEST PUSH1 0x1 PUSH1 0x1 PUSH1 0xA0 SHL SUB DUP5 AND PUSH1 0x0 SWAP1 DUP2 MSTORE PUSH1 0x20 DUP2 SWAP1 MSTORE PUSH1 0x40 SWAP1 KECCAK256 SWAP1 DUP3 SWAP1 SUB SWAP1 SSTORE JUMPDEST PUSH1 0x1 PUSH1 0x1 PUSH1 0xA0 SHL SUB DUP3 AND PUSH2 0x13EA JUMPI PUSH1 0x2 DUP1 SLOAD DUP3 SWAP1 SUB SWAP1 SSTORE PUSH2 0x1409 JUMP JUMPDEST PUSH1 0x1 PUSH1 0x1 PUSH1 0xA0 SHL SUB DUP3 AND PUSH1 0x0 SWAP1 DUP2 MSTORE PUSH1 0x20 DUP2 SWAP1 MSTORE PUSH1 0x40 SWAP1 KECCAK256 DUP1 SLOAD DUP3 ADD SWAP1 SSTORE JUMPDEST DUP2 PUSH1 0x1 PUSH1 0x1 PUSH1 0xA0 SHL SUB AND DUP4 PUSH1 0x1 PUSH1 0x1 PUSH1 0xA0 SHL SUB AND PUSH32 0xDDF252AD1BE2C89B69C2B068FC378DAA952BA7F163C4A11628F55A4DF523B3EF DUP4 PUSH1 0x40 MLOAD PUSH2 0x144E SWAP2 DUP2 MSTORE PUSH1 0x20 ADD SWAP1 JUMP JUMPDEST PUSH1 0x40 MLOAD DUP1 SWAP2 SUB SWAP1 LOG3 POP POP POP JUMP JUMPDEST PUSH1 0x0 PUSH1 0x20 DUP1 DUP4 MSTORE DUP4 MLOAD DUP1 DUP3 DUP6 ADD MSTORE PUSH1 0x0 JUMPDEST DUP2 DUP2 LT ISZERO PUSH2 0x1488 JUMPI DUP6 DUP2 ADD DUP4 ADD MLOAD DUP6 DUP3 ADD PUSH1 0x40 ADD MSTORE DUP3 ADD PUSH2 0x146C JUMP JUMPDEST POP PUSH1 0x0 PUSH1 0x40 DUP3 DUP7 ADD ADD MSTORE PUSH1 0x40 PUSH1 0x1F NOT PUSH1 0x1F DUP4 ADD AND DUP6 ADD ADD SWAP3 POP POP POP SWAP3 SWAP2 POP POP JUMP JUMPDEST DUP1 CALLDATALOAD PUSH1 0x1 PUSH1 0x1 PUSH1 0xA0 SHL SUB DUP2 AND DUP2 EQ PUSH2 0x14C0 JUMPI PUSH1 0x0 DUP1 REVERT JUMPDEST SWAP2 SWAP1 POP JUMP JUMPDEST PUSH1 0x0 DUP1 PUSH1 0x40 DUP4 DUP6 SUB SLT ISZERO PUSH2 0x14D8 JUMPI PUSH1 0x0 DUP1 REVERT JUMPDEST PUSH2 0x14E1 DUP4 PUSH2 0x14A9 JUMP JUMPDEST SWAP5 PUSH1 0x20 SWAP4 SWAP1 SWAP4 ADD CALLDATALOAD SWAP4 POP POP POP JUMP JUMPDEST PUSH1 0x0 PUSH1 0x20 DUP3 DUP5 SUB SLT ISZERO PUSH2 0x1501 JUMPI PUSH1 0x0 DUP1 REVERT JUMPDEST PUSH2 0x150A DUP3 PUSH2 0x14A9 JUMP JUMPDEST SWAP4 SWAP3 POP POP POP JUMP JUMPDEST PUSH1 0x0 PUSH1 0x20 DUP3 DUP5 SUB SLT ISZERO PUSH2 0x1523 JUMPI PUSH1 0x0 DUP1 REVERT JUMPDEST POP CALLDATALOAD SWAP2 SWAP1 POP JUMP JUMPDEST PUSH1 0x0 DUP1 PUSH1 0x0 PUSH1 0x60 DUP5 DUP7 SUB SLT ISZERO PUSH2 0x153F JUMPI PUSH1 0x0 DUP1 REVERT JUMPDEST PUSH2 0x1548 DUP5 PUSH2 0x14A9 JUMP JUMPDEST SWAP3 POP PUSH2 0x1556 PUSH1 0x20 DUP6 ADD PUSH2 0x14A9 JUMP JUMPDEST SWAP2 POP PUSH1 0x40 DUP5 ADD CALLDATALOAD SWAP1 POP SWAP3 POP SWAP3 POP SWAP3 JUMP JUMPDEST DUP1 ISZERO ISZERO DUP2 EQ PUSH2 0x97B JUMPI PUSH1 0x0 DUP1 REVERT JUMPDEST PUSH1 0x0 DUP1 PUSH1 0x40 DUP4 DUP6 SUB SLT ISZERO PUSH2 0x1587 JUMPI PUSH1 0x0 DUP1 REVERT JUMPDEST PUSH2 0x1590 DUP4 PUSH2 0x14A9 JUMP JUMPDEST SWAP2 POP PUSH1 0x20 DUP4 ADD CALLDATALOAD PUSH2 0x15A0 DUP2 PUSH2 0x1566 JUMP JUMPDEST DUP1 SWAP2 POP POP SWAP3 POP SWAP3 SWAP1 POP JUMP JUMPDEST PUSH1 0x0 DUP1 PUSH1 0x40 DUP4 DUP6 SUB SLT ISZERO PUSH2 0x15BE JUMPI PUSH1 0x0 DUP1 REVERT JUMPDEST PUSH2 0x15C7 DUP4 PUSH2 0x14A9 JUMP JUMPDEST SWAP2 POP PUSH2 0x15D5 PUSH1 0x20 DUP5 ADD PUSH2 0x14A9 JUMP JUMPDEST SWAP1 POP SWAP3 POP SWAP3 SWAP1 POP JUMP JUMPDEST PUSH1 0x1 DUP2 DUP2 SHR SWAP1 DUP3 AND DUP1 PUSH2 0x15F2 JUMPI PUSH1 0x7F DUP3 AND SWAP2 POP JUMPDEST PUSH1 0x20 DUP3 LT DUP2 SUB PUSH2 0x1612 JUMPI PUSH4 0x4E487B71 PUSH1 0xE0 SHL PUSH1 0x0 MSTORE PUSH1 0x22 PUSH1 0x4 MSTORE PUSH1 0x24 PUSH1 0x0 REVERT JUMPDEST POP SWAP2 SWAP1 POP JUMP JUMPDEST PUSH4 0x4E487B71 PUSH1 0xE0 SHL PUSH1 0x0 MSTORE PUSH1 0x11 PUSH1 0x4 MSTORE PUSH1 0x24 PUSH1 0x0 REVERT JUMPDEST DUP1 DUP3 ADD DUP1 DUP3 GT ISZERO PUSH2 0x5DD JUMPI PUSH2 0x5DD PUSH2 0x1618 JUMP JUMPDEST PUSH1 0x0 DUP3 PUSH2 0x165E JUMPI PUSH4 0x4E487B71 PUSH1 0xE0 SHL PUSH1 0x0 MSTORE PUSH1 0x12 PUSH1 0x4 MSTORE PUSH1 0x24 PUSH1 0x0 REVERT JUMPDEST POP DIV SWAP1 JUMP JUMPDEST PUSH1 0x0 PUSH1 0x20 DUP3 DUP5 SUB SLT ISZERO PUSH2 0x1675 JUMPI PUSH1 0x0 DUP1 REVERT JUMPDEST DUP2 MLOAD PUSH2 0x150A DUP2 PUSH2 0x1566 JUMP JUMPDEST DUP2 DUP2 SUB DUP2 DUP2 GT ISZERO PUSH2 0x5DD JUMPI PUSH2 0x5DD PUSH2 0x1618 JUMP JUMPDEST DUP1 DUP3 MUL DUP2 ISZERO DUP3 DUP3 DIV DUP5 EQ OR PUSH2 0x5DD JUMPI PUSH2 0x5DD PUSH2 0x1618 JUMP INVALID LOG2 PUSH5 0x6970667358 0x22 SLT KECCAK256 MUL PUSH15 0xA343536CEC032C323CD59A827E3695 0x21 0xAF PUSH11 0x90A48D9949A9A9E4F3B87F PUSH28 0x64736F6C63430008140033DDF252AD1BE2C89B69C2B068FC378DAA95 0x2B 0xA7 CALL PUSH4 0xC4A11628 CREATE2 GAS 0x4D CREATE2 0x23 0xB3 0xEF "},"methodIdentifiers":{"allowance(address,address)":"dd62ed3e","approve(address,uint256)":"095ea7b3","balanceOf(address)":"70a08231","burn(uint256)":"42966c68","burnFrom(address,uint256)":"79cc6790","decimals()":"313ce567","enableTrading()":"8a8c523c","getReleasableTeamTokens()":"a2de66fc","getTokenDistribution()":"3975e4ea","isBlacklisted(address)":"fe575a87","isExcludedFromLimits(address)":"5cce86cd","launchTimestamp()":"65cf7c9b","maxTransactionAmount()":"c8c8ebe4","maxWalletAmount()":"aa4bde28","name()":"06fdde03","owner()":"8da5cb5b","pause()":"8456cb59","paused()":"5c975abb","recoverERC20(address,uint256)":"8980f11f","releaseTeamTokens()":"14c411c7","removeLimits()":"751039fc","renounceOwnership()":"715018a6","setBlacklisted(address,bool)":"d01dd6d2","setExcludedFromLimits(address,bool)":"36fddb04","setMaxTransactionAmount(uint256)":"1e293c10","setMaxWalletAmount(uint256)":"27a14fc2","setTeamWallet(address)":"1525ff7d","symbol()":"95d89b41","teamTokensReleased()":"cd881742","teamVestingStart()":"ea7f9888","teamWallet()":"59927044","totalSupply()":"18160ddd","tradingEnabled()":"4ada218b","transfer(address,uint256)":"a9059cbb","transferFrom(address,address,uint256)":"23b872dd","transferOwnership(address)":"f2fde38b","unpause()":"3f4ba83a"}}}}}