{
  "_format": "hh-sol-artifact-1",
  "contractName": "CrashGame",
  "sourceName": "contracts/CrashGame.sol",
  "abi": [
    {
      "inputs": [
        {
          "internalType": "address",
          "name": "_rgcToken",
          "type": "address"
        },
        {
          "internalType": "uint256",
          "name": "_minBet",
          "type": "uint256"
        },
        {
          "internalType": "uint256",
          "name": "_maxBet",
          "type": "uint256"
        },
        {
          "internalType": "uint256",
          "name": "_houseEdge",
          "type": "uint256"
        }
      ],
      "stateMutability": "nonpayable",
      "type": "constructor"
    },
    {
      "inputs": [],
      "name": "EnforcedPause",
      "type": "error"
    },
    {
      "inputs": [],
      "name": "ExpectedPause",
      "type": "error"
    },
    {
      "inputs": [
        {
          "internalType": "address",
          "name": "owner",
          "type": "address"
        }
      ],
      "name": "OwnableInvalidOwner",
      "type": "error"
    },
    {
      "inputs": [
        {
          "internalType": "address",
          "name": "account",
          "type": "address"
        }
      ],
      "name": "OwnableUnauthorizedAccount",
      "type": "error"
    },
    {
      "inputs": [],
      "name": "ReentrancyGuardReentrantCall",
      "type": "error"
    },
    {
      "anonymous": false,
      "inputs": [
        {
          "indexed": true,
          "internalType": "uint256",
          "name": "roundId",
          "type": "uint256"
        },
        {
          "indexed": true,
          "internalType": "address",
          "name": "player",
          "type": "address"
        },
        {
          "indexed": false,
          "internalType": "uint256",
          "name": "amount",
          "type": "uint256"
        },
        {
          "indexed": false,
          "internalType": "uint256",
          "name": "clientSeed",
          "type": "uint256"
        }
      ],
      "name": "BetPlaced",
      "type": "event"
    },
    {
      "anonymous": false,
      "inputs": [
        {
          "indexed": true,
          "internalType": "uint256",
          "name": "roundId",
          "type": "uint256"
        },
        {
          "indexed": true,
          "internalType": "address",
          "name": "player",
          "type": "address"
        },
        {
          "indexed": false,
          "internalType": "uint256",
          "name": "multiplier",
          "type": "uint256"
        },
        {
          "indexed": false,
          "internalType": "uint256",
          "name": "winnings",
          "type": "uint256"
        }
      ],
      "name": "CashedOut",
      "type": "event"
    },
    {
      "anonymous": false,
      "inputs": [
        {
          "indexed": true,
          "internalType": "uint256",
          "name": "roundId",
          "type": "uint256"
        },
        {
          "indexed": false,
          "internalType": "uint256",
          "name": "crashMultiplier",
          "type": "uint256"
        },
        {
          "indexed": false,
          "internalType": "uint256",
          "name": "serverSeed",
          "type": "uint256"
        }
      ],
      "name": "CrashRevealed",
      "type": "event"
    },
    {
      "anonymous": false,
      "inputs": [
        {
          "indexed": true,
          "internalType": "address",
          "name": "previousOwner",
          "type": "address"
        },
        {
          "indexed": true,
          "internalType": "address",
          "name": "newOwner",
          "type": "address"
        }
      ],
      "name": "OwnershipTransferred",
      "type": "event"
    },
    {
      "anonymous": false,
      "inputs": [
        {
          "indexed": false,
          "internalType": "address",
          "name": "account",
          "type": "address"
        }
      ],
      "name": "Paused",
      "type": "event"
    },
    {
      "anonymous": false,
      "inputs": [
        {
          "indexed": true,
          "internalType": "uint256",
          "name": "roundId",
          "type": "uint256"
        },
        {
          "indexed": false,
          "internalType": "bool",
          "name": "won",
          "type": "bool"
        },
        {
          "indexed": false,
          "internalType": "uint256",
          "name": "payout",
          "type": "uint256"
        }
      ],
      "name": "RoundSettled",
      "type": "event"
    },
    {
      "anonymous": false,
      "inputs": [
        {
          "indexed": false,
          "internalType": "address",
          "name": "account",
          "type": "address"
        }
      ],
      "name": "Unpaused",
      "type": "event"
    },
    {
      "inputs": [
        {
          "internalType": "uint256",
          "name": "roundId",
          "type": "uint256"
        },
        {
          "internalType": "uint256",
          "name": "multiplier",
          "type": "uint256"
        }
      ],
      "name": "cashOut",
      "outputs": [],
      "stateMutability": "nonpayable",
      "type": "function"
    },
    {
      "inputs": [],
      "name": "currentRoundId",
      "outputs": [
        {
          "internalType": "uint256",
          "name": "",
          "type": "uint256"
        }
      ],
      "stateMutability": "view",
      "type": "function"
    },
    {
      "inputs": [
        {
          "internalType": "uint256",
          "name": "amount",
          "type": "uint256"
        }
      ],
      "name": "fundLiquidity",
      "outputs": [],
      "stateMutability": "nonpayable",
      "type": "function"
    },
    {
      "inputs": [
        {
          "internalType": "address",
          "name": "player",
          "type": "address"
        }
      ],
      "name": "getPlayerRounds",
      "outputs": [
        {
          "internalType": "uint256[]",
          "name": "",
          "type": "uint256[]"
        }
      ],
      "stateMutability": "view",
      "type": "function"
    },
    {
      "inputs": [
        {
          "internalType": "uint256",
          "name": "roundId",
          "type": "uint256"
        }
      ],
      "name": "getRound",
      "outputs": [
        {
          "components": [
            {
              "internalType": "address",
              "name": "player",
              "type": "address"
            },
            {
              "internalType": "uint256",
              "name": "betAmount",
              "type": "uint256"
            },
            {
              "internalType": "uint256",
              "name": "clientSeed",
              "type": "uint256"
            },
            {
              "internalType": "uint256",
              "name": "serverSeed",
              "type": "uint256"
            },
            {
              "internalType": "bytes32",
              "name": "serverSeedHash",
              "type": "bytes32"
            },
            {
              "internalType": "uint256",
              "name": "crashMultiplier",
              "type": "uint256"
            },
            {
              "internalType": "uint256",
              "name": "cashOutMultiplier",
              "type": "uint256"
            },
            {
              "internalType": "uint256",
              "name": "timestamp",
              "type": "uint256"
            },
            {
              "internalType": "bool",
              "name": "settled",
              "type": "bool"
            },
            {
              "internalType": "bool",
              "name": "won",
              "type": "bool"
            }
          ],
          "internalType": "struct CrashGame.Round",
          "name": "",
          "type": "tuple"
        }
      ],
      "stateMutability": "view",
      "type": "function"
    },
    {
      "inputs": [],
      "name": "getStats",
      "outputs": [
        {
          "internalType": "uint256",
          "name": "_totalBets",
          "type": "uint256"
        },
        {
          "internalType": "uint256",
          "name": "_totalWinnings",
          "type": "uint256"
        },
        {
          "internalType": "uint256",
          "name": "_totalLosses",
          "type": "uint256"
        },
        {
          "internalType": "uint256",
          "name": "_liquidity",
          "type": "uint256"
        },
        {
          "internalType": "uint256",
          "name": "_currentRoundId",
          "type": "uint256"
        }
      ],
      "stateMutability": "view",
      "type": "function"
    },
    {
      "inputs": [],
      "name": "houseEdge",
      "outputs": [
        {
          "internalType": "uint256",
          "name": "",
          "type": "uint256"
        }
      ],
      "stateMutability": "view",
      "type": "function"
    },
    {
      "inputs": [],
      "name": "maxBet",
      "outputs": [
        {
          "internalType": "uint256",
          "name": "",
          "type": "uint256"
        }
      ],
      "stateMutability": "view",
      "type": "function"
    },
    {
      "inputs": [],
      "name": "minBet",
      "outputs": [
        {
          "internalType": "uint256",
          "name": "",
          "type": "uint256"
        }
      ],
      "stateMutability": "view",
      "type": "function"
    },
    {
      "inputs": [],
      "name": "owner",
      "outputs": [
        {
          "internalType": "address",
          "name": "",
          "type": "address"
        }
      ],
      "stateMutability": "view",
      "type": "function"
    },
    {
      "inputs": [],
      "name": "pause",
      "outputs": [],
      "stateMutability": "nonpayable",
      "type": "function"
    },
    {
      "inputs": [],
      "name": "paused",
      "outputs": [
        {
          "internalType": "bool",
          "name": "",
          "type": "bool"
        }
      ],
      "stateMutability": "view",
      "type": "function"
    },
    {
      "inputs": [
        {
          "internalType": "uint256",
          "name": "amount",
          "type": "uint256"
        },
        {
          "internalType": "uint256",
          "name": "clientSeed",
          "type": "uint256"
        }
      ],
      "name": "placeBet",
      "outputs": [
        {
          "internalType": "uint256",
          "name": "",
          "type": "uint256"
        }
      ],
      "stateMutability": "nonpayable",
      "type": "function"
    },
    {
      "inputs": [
        {
          "internalType": "address",
          "name": "",
          "type": "address"
        },
        {
          "internalType": "uint256",
          "name": "",
          "type": "uint256"
        }
      ],
      "name": "playerRounds",
      "outputs": [
        {
          "internalType": "uint256",
          "name": "",
          "type": "uint256"
        }
      ],
      "stateMutability": "view",
      "type": "function"
    },
    {
      "inputs": [],
      "name": "renounceOwnership",
      "outputs": [],
      "stateMutability": "nonpayable",
      "type": "function"
    },
    {
      "inputs": [
        {
          "internalType": "uint256",
          "name": "roundId",
          "type": "uint256"
        },
        {
          "internalType": "uint256",
          "name": "serverSeed",
          "type": "uint256"
        }
      ],
      "name": "revealCrash",
      "outputs": [],
      "stateMutability": "nonpayable",
      "type": "function"
    },
    {
      "inputs": [],
      "name": "rgcToken",
      "outputs": [
        {
          "internalType": "contract IERC20",
          "name": "",
          "type": "address"
        }
      ],
      "stateMutability": "view",
      "type": "function"
    },
    {
      "inputs": [
        {
          "internalType": "uint256",
          "name": "",
          "type": "uint256"
        }
      ],
      "name": "rounds",
      "outputs": [
        {
          "internalType": "address",
          "name": "player",
          "type": "address"
        },
        {
          "internalType": "uint256",
          "name": "betAmount",
          "type": "uint256"
        },
        {
          "internalType": "uint256",
          "name": "clientSeed",
          "type": "uint256"
        },
        {
          "internalType": "uint256",
          "name": "serverSeed",
          "type": "uint256"
        },
        {
          "internalType": "bytes32",
          "name": "serverSeedHash",
          "type": "bytes32"
        },
        {
          "internalType": "uint256",
          "name": "crashMultiplier",
          "type": "uint256"
        },
        {
          "internalType": "uint256",
          "name": "cashOutMultiplier",
          "type": "uint256"
        },
        {
          "internalType": "uint256",
          "name": "timestamp",
          "type": "uint256"
        },
        {
          "internalType": "bool",
          "name": "settled",
          "type": "bool"
        },
        {
          "internalType": "bool",
          "name": "won",
          "type": "bool"
        }
      ],
      "stateMutability": "view",
      "type": "function"
    },
    {
      "inputs": [
        {
          "internalType": "uint256",
          "name": "_minBet",
          "type": "uint256"
        },
        {
          "internalType": "uint256",
          "name": "_maxBet",
          "type": "uint256"
        }
      ],
      "name": "setBetLimits",
      "outputs": [],
      "stateMutability": "nonpayable",
      "type": "function"
    },
    {
      "inputs": [
        {
          "internalType": "uint256",
          "name": "_houseEdge",
          "type": "uint256"
        }
      ],
      "name": "setHouseEdge",
      "outputs": [],
      "stateMutability": "nonpayable",
      "type": "function"
    },
    {
      "inputs": [
        {
          "internalType": "uint256",
          "name": "roundId",
          "type": "uint256"
        }
      ],
      "name": "settleLoss",
      "outputs": [],
      "stateMutability": "nonpayable",
      "type": "function"
    },
    {
      "inputs": [],
      "name": "totalBets",
      "outputs": [
        {
          "internalType": "uint256",
          "name": "",
          "type": "uint256"
        }
      ],
      "stateMutability": "view",
      "type": "function"
    },
    {
      "inputs": [],
      "name": "totalLosses",
      "outputs": [
        {
          "internalType": "uint256",
          "name": "",
          "type": "uint256"
        }
      ],
      "stateMutability": "view",
      "type": "function"
    },
    {
      "inputs": [],
      "name": "totalWinnings",
      "outputs": [
        {
          "internalType": "uint256",
          "name": "",
          "type": "uint256"
        }
      ],
      "stateMutability": "view",
      "type": "function"
    },
    {
      "inputs": [
        {
          "internalType": "address",
          "name": "newOwner",
          "type": "address"
        }
      ],
      "name": "transferOwnership",
      "outputs": [],
      "stateMutability": "nonpayable",
      "type": "function"
    },
    {
      "inputs": [],
      "name": "unpause",
      "outputs": [],
      "stateMutability": "nonpayable",
      "type": "function"
    },
    {
      "inputs": [
        {
          "internalType": "uint256",
          "name": "amount",
          "type": "uint256"
        }
      ],
      "name": "withdrawTokens",
      "outputs": [],
      "stateMutability": "nonpayable",
      "type": "function"
    }
  ],
  "bytecode": "0x60806040523480156200001157600080fd5b5060405162001c3338038062001c3383398101604081905262000034916200014d565b33806200005c57604051631e4fbdf760e01b8152600060048201526024015b60405180910390fd5b6200006781620000fd565b50600180556001600160a01b038416620000c45760405162461bcd60e51b815260206004820152601560248201527f496e76616c696420746f6b656e20616464726573730000000000000000000000604482015260640162000053565b600280546001600160a01b0390951661010002610100600160a81b0319909516949094179093556006919091556007556008556200019a565b600080546001600160a01b038381166001600160a01b0319831681178455604051919092169283917f8be0079c531659141344cd1fd0a4f28419497f9722a3daafe3b4186f6b6457e09190a35050565b600080600080608085870312156200016457600080fd5b84516001600160a01b03811681146200017c57600080fd5b60208601516040870151606090970151919890975090945092505050565b611a8980620001aa6000396000f3fe608060405234801561001057600080fd5b50600436106101a95760003560e01c80638456cb59116100f9578063bcc5e2f611610097578063c59d484711610071578063c59d48471461040c578063d667dcd71461043c578063f0f437b614610445578063f2fde38b1461045857600080fd5b8063bcc5e2f6146103e7578063befa1e2f146103fa578063bf04820b1461040357600080fd5b80638f1327c0116100d35780638f1327c0146103ac5780639619367d146103cc5780639cbe5efd146103d5578063b72481f8146103de57600080fd5b80638456cb59146102cb5780638c65c81f146102d35780638da5cb5b1461039b57600080fd5b80634afe62b5116101665780636cd0f102116101405780636cd0f1021461026d5780636ff7b10314610280578063715018a6146102b05780637687dd49146102b857600080fd5b80634afe62b5146102315780635c975abb146102445780636c3fecd71461025a57600080fd5b8063218ead0e146101ae578063233507b9146101c35780632768a49f146101ec5780632e5b21681461020d578063315a095d146102165780633f4ba83a14610229575b600080fd5b6101c16101bc3660046117b0565b61046b565b005b6101d66101d13660046117ee565b6107f2565b6040516101e39190611810565b60405180910390f35b6101ff6101fa366004611854565b61085e565b6040519081526020016101e3565b6101ff60075481565b6101c161022436600461187e565b61088f565b6101c1610a18565b6101ff61023f3660046117b0565b610a2a565b60025460ff1660405190151581526020016101e3565b6101c16102683660046117b0565b610eee565b6101c161027b36600461187e565b6110b4565b6002546102989061010090046001600160a01b031681565b6040516001600160a01b0390911681526020016101e3565b6101c1611109565b6101c16102c63660046117b0565b61111b565b6101c161112e565b6103436102e136600461187e565b60036020819052600091825260409091208054600182015460028301549383015460048401546005850154600686015460078701546008909701546001600160a01b039096169794969495939492939192909160ff808216916101009004168a565b604080516001600160a01b03909b168b5260208b0199909952978901969096526060880194909452608087019290925260a086015260c085015260e084015215156101008301521515610120820152610140016101e3565b6000546001600160a01b0316610298565b6103bf6103ba36600461187e565b61113e565b6040516101e39190611897565b6101ff60065481565b6101ff60055481565b6101ff600a5481565b6101c16103f536600461187e565b61123c565b6101ff60095481565b6101ff600b5481565b610414611396565b604080519586526020860194909452928401919091526060830152608082015260a0016101e3565b6101ff60085481565b6101c161045336600461187e565b61142e565b6101c16104663660046117ee565b611477565b6104736114b2565b600082815260036020526040902080546001600160a01b031633146104d05760405162461bcd60e51b815260206004820152600e60248201526d139bdd081e5bdd5c881c9bdd5b9960921b60448201526064015b60405180910390fd5b600881015460ff16156104f55760405162461bcd60e51b81526004016104c790611916565b60068101541561053c5760405162461bcd60e51b8152602060048201526012602482015271105b1c9958591e4818d85cda1959081bdd5d60721b60448201526064016104c7565b806005015460000361055157610551836114dc565b806005015482111561059b5760405162461bcd60e51b815260206004820152601360248201527209aead8e8d2e0d8d2cae440e8dede40d0d2ced606b1b60448201526064016104c7565b6006810182905560088101805461ffff191661010117905560018101546000906064906105c990859061195b565b6105d39190611988565b90506000612710600854836105e8919061195b565b6105f29190611988565b90506000610600828461199c565b6002546040516370a0823160e01b815230600482015291925082916101009091046001600160a01b0316906370a0823190602401602060405180830381865afa158015610651573d6000803e3d6000fd5b505050506040513d601f19601f8201168201806040525081019061067591906119af565b10156106bc5760405162461bcd60e51b8152602060048201526016602482015275496e73756666696369656e74206c697175696469747960501b60448201526064016104c7565b80600a60008282546106ce91906119c8565b909155505060025460405163a9059cbb60e01b8152336004820152602481018390526101009091046001600160a01b03169063a9059cbb906044016020604051808303816000875af1158015610728573d6000803e3d6000fd5b505050506040513d601f19601f8201168201806040525081019061074c91906119db565b6107685760405162461bcd60e51b81526004016104c7906119fd565b6040805186815260208101839052339188917fd2856efdbe6f44f49bc7dc20ff9901add2c8050f0facc8ff9db5c2cb2262c93c910160405180910390a360408051600181526020810183905287917f7e07a834f52a0d72fab954197925028738a75482cbb669dcaa587f05716cb2d7910160405180910390a2505050506107ee60018055565b5050565b6001600160a01b03811660009081526004602090815260409182902080548351818402810184019094528084526060939283018282801561085257602002820191906000526020600020905b81548152602001906001019080831161083e575b50505050509050919050565b6004602052816000526040600020818154811061087a57600080fd5b90600052602060002001600091509150505481565b61089761165d565b61089f6114b2565b6002546040516370a0823160e01b8152306004820152829161010090046001600160a01b0316906370a0823190602401602060405180830381865afa1580156108ec573d6000803e3d6000fd5b505050506040513d601f19601f8201168201806040525081019061091091906119af565b10156109555760405162461bcd60e51b8152602060048201526014602482015273496e73756666696369656e742062616c616e636560601b60448201526064016104c7565b6002546001600160a01b036101009091041663a9059cbb61097e6000546001600160a01b031690565b6040516001600160e01b031960e084901b1681526001600160a01b039091166004820152602481018490526044015b6020604051808303816000875af11580156109cc573d6000803e3d6000fd5b505050506040513d601f19601f820116820180604052508101906109f091906119db565b610a0c5760405162461bcd60e51b81526004016104c7906119fd565b610a1560018055565b50565b610a2061165d565b610a2861168a565b565b6000610a346114b2565b610a3c6116dc565b6006548310158015610a5057506007548311155b610a915760405162461bcd60e51b8152602060048201526012602482015271125b9d985b1a590818995d08185b5bdd5b9d60721b60448201526064016104c7565b6002546040516370a0823160e01b8152336004820152849161010090046001600160a01b0316906370a0823190602401602060405180830381865afa158015610ade573d6000803e3d6000fd5b505050506040513d601f19601f82011682018060405250810190610b0291906119af565b1015610b475760405162461bcd60e51b8152602060048201526014602482015273496e73756666696369656e742062616c616e636560601b60448201526064016104c7565b600254604051636eb1769f60e11b8152336004820152306024820152849161010090046001600160a01b03169063dd62ed3e90604401602060405180830381865afa158015610b9a573d6000803e3d6000fd5b505050506040513d601f19601f82011682018060405250810190610bbe91906119af565b1015610c055760405162461bcd60e51b8152602060048201526016602482015275496e73756666696369656e7420616c6c6f77616e636560501b60448201526064016104c7565b6002546040516323b872dd60e01b8152336004820152306024820152604481018590526101009091046001600160a01b0316906323b872dd906064016020604051808303816000875af1158015610c60573d6000803e3d6000fd5b505050506040513d601f19601f82011682018060405250810190610c8491906119db565b610ca05760405162461bcd60e51b81526004016104c7906119fd565b6000424433600554604051602001610ce39493929190938452602084019290925260601b6bffffffffffffffffffffffff19166040830152605482015260740190565b604051602081830303815290604052805190602001209050604051806101400160405280336001600160a01b031681526020018581526020018481526020016000815260200182815260200160008152602001600081526020014281526020016000151581526020016000151581525060036000600554815260200190815260200160002060008201518160000160006101000a8154816001600160a01b0302191690836001600160a01b031602179055506020820151816001015560408201518160020155606082015181600301556080820151816004015560a0820151816005015560c0820151816006015560e082015181600701556101008201518160080160006101000a81548160ff0219169083151502179055506101208201518160080160016101000a81548160ff02191690831515021790555090505060046000336001600160a01b03166001600160a01b0316815260200190815260200160002060055490806001815401808255809150506001900390600052602060002001600090919091909150558360096000828254610e8091906119c8565b909155505060055460408051868152602081018690523392917f1b8a9031cb9351278d70a994f81536e9e08c91162e64f92b2fe4766fb7a891b4910160405180910390a3600580549081906000610ed683611a26565b909155509092505050610ee860018055565b92915050565b610ef661165d565b6000828152600360205260409020600881015460ff1615610f295760405162461bcd60e51b81526004016104c790611916565b6000816001015411610f6d5760405162461bcd60e51b815260206004820152600d60248201526c125b9d985b1a59081c9bdd5b99609a1b60448201526064016104c7565b6007810154815460408051602081019390935244908301526bffffffffffffffffffffffff19606091821b1690820152607481018490526000906094016040516020818303038152906040528051906020012090508160040154811461100b5760405162461bcd60e51b8152602060048201526013602482015272125b9d985b1a59081cd95c9d995c881cd95959606a1b60448201526064016104c7565b600382018390556002820154604051600091611034918690602001918252602082015260400190565b60408051601f1981840301815291905280516020909101209050600061105c61038483611a3f565b6110679060646119c8565b60058501819055604080518281526020810188905291925087917fe011f84cf19044efd843b98f5c31fc136c47491dcad416aae8be99dc55a0b8d1910160405180910390a2505050505050565b6110bc61165d565b6103e88111156111045760405162461bcd60e51b8152602060048201526013602482015272090deeae6ca40cac8ceca40e8dede40d0d2ced606b1b60448201526064016104c7565b600855565b61111161165d565b610a286000611700565b61112361165d565b600691909155600755565b61113661165d565b610a28611750565b6111a460405180610140016040528060006001600160a01b03168152602001600081526020016000815260200160008152602001600080191681526020016000815260200160008152602001600081526020016000151581526020016000151581525090565b5060009081526003602081815260409283902083516101408101855281546001600160a01b0316815260018201549281019290925260028101549382019390935290820154606082015260048201546080820152600582015460a0820152600682015460c0820152600782015460e082015260089091015460ff80821615156101008085019190915290910416151561012082015290565b6000818152600360205260409020600881015460ff161561126f5760405162461bcd60e51b81526004016104c790611916565b6006810154156112b65760405162461bcd60e51b8152602060048201526012602482015271105b1c9958591e4818d85cda1959081bdd5d60721b60448201526064016104c7565b80546001600160a01b03163314806112d857506000546001600160a01b031633145b6113155760405162461bcd60e51b815260206004820152600e60248201526d139bdd08185d5d1a1bdc9a5e995960921b60448201526064016104c7565b806005015460000361132a5761132a826114dc565b60088101805461ffff19166001908117909155810154600b80546000906113529084906119c8565b9091555050604080516000808252602082015283917f7e07a834f52a0d72fab954197925028738a75482cbb669dcaa587f05716cb2d7910160405180910390a25050565b600954600a54600b546002546040516370a0823160e01b815230600482015260009485948594859485946101009091046001600160a01b0316906370a0823190602401602060405180830381865afa1580156113f6573d6000803e3d6000fd5b505050506040513d601f19601f8201168201806040525081019061141a91906119af565b600554945094509450945094509091929394565b6114366114b2565b6002546040516323b872dd60e01b8152336004820152306024820152604481018390526101009091046001600160a01b0316906323b872dd906064016109ad565b61147f61165d565b6001600160a01b0381166114a957604051631e4fbdf760e01b8152600060048201526024016104c7565b610a1581611700565b6002600154036114d557604051633ee5aeb560e01b815260040160405180910390fd5b6002600155565b6000818152600360205260409020600181015461152b5760405162461bcd60e51b815260206004820152600d60248201526c125b9d985b1a59081c9bdd5b99609a1b60448201526064016104c7565b6005810154156115705760405162461bcd60e51b815260206004820152601060248201526f105b1c9958591e481c995d99585b195960821b60448201526064016104c7565b6004810154600090424461158560014361199c565b604080516020810195909552840192909252606083015240608082015260a00160408051808303601f19018152828252805160209182012060038601819055600286015491840191909152908201819052915060009060600160408051601f1981840301815291905280516020909101209050600061160661038483611a3f565b6116119060646119c8565b60058501819055604080518281526020810186905291925086917fe011f84cf19044efd843b98f5c31fc136c47491dcad416aae8be99dc55a0b8d1910160405180910390a25050505050565b6000546001600160a01b03163314610a285760405163118cdaa760e01b81523360048201526024016104c7565b61169261178d565b6002805460ff191690557f5db9ee0a495bf2e6ff9c91a7834c1ba4fdd244a5e8aa4e537bd38aeae4b073aa335b6040516001600160a01b03909116815260200160405180910390a1565b60025460ff1615610a285760405163d93c066560e01b815260040160405180910390fd5b600080546001600160a01b038381166001600160a01b0319831681178455604051919092169283917f8be0079c531659141344cd1fd0a4f28419497f9722a3daafe3b4186f6b6457e09190a35050565b6117586116dc565b6002805460ff191660011790557f62e78cea01bee320cd4e420270b5ea74000d11b0c9f74754ebdbfc544b05a2586116bf3390565b60025460ff16610a2857604051638dfc202b60e01b815260040160405180910390fd5b600080604083850312156117c357600080fd5b50508035926020909101359150565b80356001600160a01b03811681146117e957600080fd5b919050565b60006020828403121561180057600080fd5b611809826117d2565b9392505050565b6020808252825182820181905260009190848201906040850190845b818110156118485783518352928401929184019160010161182c565b50909695505050505050565b6000806040838503121561186757600080fd5b611870836117d2565b946020939093013593505050565b60006020828403121561189057600080fd5b5035919050565b81516001600160a01b0316815261014081016020830151602083015260408301516040830152606083015160608301526080830151608083015260a083015160a083015260c083015160c083015260e083015160e0830152610100808401516119038285018215159052565b5050610120928301511515919092015290565b602080825260159082015274149bdd5b9908185b1c9958591e481cd95d1d1b1959605a1b604082015260600190565b634e487b7160e01b600052601160045260246000fd5b8082028115828204841417610ee857610ee8611945565b634e487b7160e01b600052601260045260246000fd5b60008261199757611997611972565b500490565b81810381811115610ee857610ee8611945565b6000602082840312156119c157600080fd5b5051919050565b80820180821115610ee857610ee8611945565b6000602082840312156119ed57600080fd5b8151801515811461180957600080fd5b6020808252600f908201526e151c985b9cd9995c8819985a5b1959608a1b604082015260600190565b600060018201611a3857611a38611945565b5060010190565b600082611a4e57611a4e611972565b50069056fea264697066735822122068cd481e84ed5cbb80f9959fa0269cf98ae70386b8a09b2acc7a3f295c71af3464736f6c63430008140033",
  "linkReferences": {},
  "deployedLinkReferences": {}
}