{
  "_format": "hh-sol-artifact-1",
  "contractName": "CrashGame",
  "sourceName": "contracts/CrashGame.sol",
  "abi": [
    {
      "inputs": [
        {
          "internalType": "address",
          "name": "_rgcToken",
          "type": "address"
        },
        {
          "internalType": "uint256",
          "name": "_minBet",
          "type": "uint256"
        },
        {
          "internalType": "uint256",
          "name": "_maxBet",
          "type": "uint256"
        },
        {
          "internalType": "uint256",
          "name": "_houseEdge",
          "type": "uint256"
        }
      ],
      "stateMutability": "nonpayable",
      "type": "constructor"
    },
    {
      "inputs": [],
      "name": "EnforcedPause",
      "type": "error"
    },
    {
      "inputs": [],
      "name": "ExpectedPause",
      "type": "error"
    },
    {
      "inputs": [
        {
          "internalType": "address",
          "name": "owner",
          "type": "address"
        }
      ],
      "name": "OwnableInvalidOwner",
      "type": "error"
    },
    {
      "inputs": [
        {
          "internalType": "address",
          "name": "account",
          "type": "address"
        }
      ],
      "name": "OwnableUnauthorizedAccount",
      "type": "error"
    },
    {
      "inputs": [],
      "name": "ReentrancyGuardReentrantCall",
      "type": "error"
    },
    {
      "anonymous": false,
      "inputs": [
        {
          "indexed": true,
          "internalType": "uint256",
          "name": "roundId",
          "type": "uint256"
        },
        {
          "indexed": true,
          "internalType": "address",
          "name": "player",
          "type": "address"
        },
        {
          "indexed": false,
          "internalType": "uint256",
          "name": "amount",
          "type": "uint256"
        },
        {
          "indexed": false,
          "internalType": "uint256",
          "name": "clientSeed",
          "type": "uint256"
        }
      ],
      "name": "BetPlaced",
      "type": "event"
    },
    {
      "anonymous": false,
      "inputs": [
        {
          "indexed": true,
          "internalType": "uint256",
          "name": "roundId",
          "type": "uint256"
        },
        {
          "indexed": true,
          "internalType": "address",
          "name": "player",
          "type": "address"
        },
        {
          "indexed": false,
          "internalType": "uint256",
          "name": "multiplier",
          "type": "uint256"
        },
        {
          "indexed": false,
          "internalType": "uint256",
          "name": "winnings",
          "type": "uint256"
        }
      ],
      "name": "CashedOut",
      "type": "event"
    },
    {
      "anonymous": false,
      "inputs": [
        {
          "indexed": true,
          "internalType": "uint256",
          "name": "roundId",
          "type": "uint256"
        },
        {
          "indexed": false,
          "internalType": "uint256",
          "name": "crashMultiplier",
          "type": "uint256"
        },
        {
          "indexed": false,
          "internalType": "uint256",
          "name": "serverSeed",
          "type": "uint256"
        }
      ],
      "name": "CrashRevealed",
      "type": "event"
    },
    {
      "anonymous": false,
      "inputs": [
        {
          "indexed": true,
          "internalType": "address",
          "name": "previousOwner",
          "type": "address"
        },
        {
          "indexed": true,
          "internalType": "address",
          "name": "newOwner",
          "type": "address"
        }
      ],
      "name": "OwnershipTransferred",
      "type": "event"
    },
    {
      "anonymous": false,
      "inputs": [
        {
          "indexed": false,
          "internalType": "address",
          "name": "account",
          "type": "address"
        }
      ],
      "name": "Paused",
      "type": "event"
    },
    {
      "anonymous": false,
      "inputs": [
        {
          "indexed": true,
          "internalType": "uint256",
          "name": "roundId",
          "type": "uint256"
        },
        {
          "indexed": false,
          "internalType": "bool",
          "name": "won",
          "type": "bool"
        },
        {
          "indexed": false,
          "internalType": "uint256",
          "name": "payout",
          "type": "uint256"
        }
      ],
      "name": "RoundSettled",
      "type": "event"
    },
    {
      "anonymous": false,
      "inputs": [
        {
          "indexed": false,
          "internalType": "address",
          "name": "account",
          "type": "address"
        }
      ],
      "name": "Unpaused",
      "type": "event"
    },
    {
      "inputs": [
        {
          "internalType": "uint256",
          "name": "roundId",
          "type": "uint256"
        },
        {
          "internalType": "uint256",
          "name": "multiplier",
          "type": "uint256"
        }
      ],
      "name": "cashOut",
      "outputs": [],
      "stateMutability": "nonpayable",
      "type": "function"
    },
    {
      "inputs": [],
      "name": "currentRoundId",
      "outputs": [
        {
          "internalType": "uint256",
          "name": "",
          "type": "uint256"
        }
      ],
      "stateMutability": "view",
      "type": "function"
    },
    {
      "inputs": [
        {
          "internalType": "uint256",
          "name": "amount",
          "type": "uint256"
        }
      ],
      "name": "fundLiquidity",
      "outputs": [],
      "stateMutability": "nonpayable",
      "type": "function"
    },
    {
      "inputs": [
        {
          "internalType": "address",
          "name": "player",
          "type": "address"
        }
      ],
      "name": "getPlayerRounds",
      "outputs": [
        {
          "internalType": "uint256[]",
          "name": "",
          "type": "uint256[]"
        }
      ],
      "stateMutability": "view",
      "type": "function"
    },
    {
      "inputs": [
        {
          "internalType": "uint256",
          "name": "roundId",
          "type": "uint256"
        }
      ],
      "name": "getRound",
      "outputs": [
        {
          "components": [
            {
              "internalType": "address",
              "name": "player",
              "type": "address"
            },
            {
              "internalType": "uint256",
              "name": "betAmount",
              "type": "uint256"
            },
            {
              "internalType": "uint256",
              "name": "clientSeed",
              "type": "uint256"
            },
            {
              "internalType": "uint256",
              "name": "serverSeed",
              "type": "uint256"
            },
            {
              "internalType": "bytes32",
              "name": "serverSeedHash",
              "type": "bytes32"
            },
            {
              "internalType": "uint256",
              "name": "crashMultiplier",
              "type": "uint256"
            },
            {
              "internalType": "uint256",
              "name": "cashOutMultiplier",
              "type": "uint256"
            },
            {
              "internalType": "uint256",
              "name": "timestamp",
              "type": "uint256"
            },
            {
              "internalType": "bool",
              "name": "settled",
              "type": "bool"
            },
            {
              "internalType": "bool",
              "name": "won",
              "type": "bool"
            }
          ],
          "internalType": "struct CrashGame.Round",
          "name": "",
          "type": "tuple"
        }
      ],
      "stateMutability": "view",
      "type": "function"
    },
    {
      "inputs": [],
      "name": "getStats",
      "outputs": [
        {
          "internalType": "uint256",
          "name": "_totalBets",
          "type": "uint256"
        },
        {
          "internalType": "uint256",
          "name": "_totalWinnings",
          "type": "uint256"
        },
        {
          "internalType": "uint256",
          "name": "_totalLosses",
          "type": "uint256"
        },
        {
          "internalType": "uint256",
          "name": "_liquidity",
          "type": "uint256"
        },
        {
          "internalType": "uint256",
          "name": "_currentRoundId",
          "type": "uint256"
        }
      ],
      "stateMutability": "view",
      "type": "function"
    },
    {
      "inputs": [],
      "name": "houseEdge",
      "outputs": [
        {
          "internalType": "uint256",
          "name": "",
          "type": "uint256"
        }
      ],
      "stateMutability": "view",
      "type": "function"
    },
    {
      "inputs": [],
      "name": "maxBet",
      "outputs": [
        {
          "internalType": "uint256",
          "name": "",
          "type": "uint256"
        }
      ],
      "stateMutability": "view",
      "type": "function"
    },
    {
      "inputs": [],
      "name": "minBet",
      "outputs": [
        {
          "internalType": "uint256",
          "name": "",
          "type": "uint256"
        }
      ],
      "stateMutability": "view",
      "type": "function"
    },
    {
      "inputs": [],
      "name": "owner",
      "outputs": [
        {
          "internalType": "address",
          "name": "",
          "type": "address"
        }
      ],
      "stateMutability": "view",
      "type": "function"
    },
    {
      "inputs": [],
      "name": "pause",
      "outputs": [],
      "stateMutability": "nonpayable",
      "type": "function"
    },
    {
      "inputs": [],
      "name": "paused",
      "outputs": [
        {
          "internalType": "bool",
          "name": "",
          "type": "bool"
        }
      ],
      "stateMutability": "view",
      "type": "function"
    },
    {
      "inputs": [
        {
          "internalType": "uint256",
          "name": "amount",
          "type": "uint256"
        },
        {
          "internalType": "uint256",
          "name": "clientSeed",
          "type": "uint256"
        }
      ],
      "name": "placeBet",
      "outputs": [
        {
          "internalType": "uint256",
          "name": "",
          "type": "uint256"
        }
      ],
      "stateMutability": "nonpayable",
      "type": "function"
    },
    {
      "inputs": [
        {
          "internalType": "address",
          "name": "",
          "type": "address"
        },
        {
          "internalType": "uint256",
          "name": "",
          "type": "uint256"
        }
      ],
      "name": "playerRounds",
      "outputs": [
        {
          "internalType": "uint256",
          "name": "",
          "type": "uint256"
        }
      ],
      "stateMutability": "view",
      "type": "function"
    },
    {
      "inputs": [],
      "name": "renounceOwnership",
      "outputs": [],
      "stateMutability": "nonpayable",
      "type": "function"
    },
    {
      "inputs": [
        {
          "internalType": "uint256",
          "name": "roundId",
          "type": "uint256"
        },
        {
          "internalType": "uint256",
          "name": "serverSeed",
          "type": "uint256"
        }
      ],
      "name": "revealCrash",
      "outputs": [],
      "stateMutability": "nonpayable",
      "type": "function"
    },
    {
      "inputs": [],
      "name": "rgcToken",
      "outputs": [
        {
          "internalType": "contract IERC20",
          "name": "",
          "type": "address"
        }
      ],
      "stateMutability": "view",
      "type": "function"
    },
    {
      "inputs": [
        {
          "internalType": "uint256",
          "name": "",
          "type": "uint256"
        }
      ],
      "name": "rounds",
      "outputs": [
        {
          "internalType": "address",
          "name": "player",
          "type": "address"
        },
        {
          "internalType": "uint256",
          "name": "betAmount",
          "type": "uint256"
        },
        {
          "internalType": "uint256",
          "name": "clientSeed",
          "type": "uint256"
        },
        {
          "internalType": "uint256",
          "name": "serverSeed",
          "type": "uint256"
        },
        {
          "internalType": "bytes32",
          "name": "serverSeedHash",
          "type": "bytes32"
        },
        {
          "internalType": "uint256",
          "name": "crashMultiplier",
          "type": "uint256"
        },
        {
          "internalType": "uint256",
          "name": "cashOutMultiplier",
          "type": "uint256"
        },
        {
          "internalType": "uint256",
          "name": "timestamp",
          "type": "uint256"
        },
        {
          "internalType": "bool",
          "name": "settled",
          "type": "bool"
        },
        {
          "internalType": "bool",
          "name": "won",
          "type": "bool"
        }
      ],
      "stateMutability": "view",
      "type": "function"
    },
    {
      "inputs": [
        {
          "internalType": "uint256",
          "name": "_minBet",
          "type": "uint256"
        },
        {
          "internalType": "uint256",
          "name": "_maxBet",
          "type": "uint256"
        }
      ],
      "name": "setBetLimits",
      "outputs": [],
      "stateMutability": "nonpayable",
      "type": "function"
    },
    {
      "inputs": [
        {
          "internalType": "uint256",
          "name": "_houseEdge",
          "type": "uint256"
        }
      ],
      "name": "setHouseEdge",
      "outputs": [],
      "stateMutability": "nonpayable",
      "type": "function"
    },
    {
      "inputs": [
        {
          "internalType": "uint256",
          "name": "roundId",
          "type": "uint256"
        }
      ],
      "name": "settleLoss",
      "outputs": [],
      "stateMutability": "nonpayable",
      "type": "function"
    },
    {
      "inputs": [],
      "name": "totalBets",
      "outputs": [
        {
          "internalType": "uint256",
          "name": "",
          "type": "uint256"
        }
      ],
      "stateMutability": "view",
      "type": "function"
    },
    {
      "inputs": [],
      "name": "totalLosses",
      "outputs": [
        {
          "internalType": "uint256",
          "name": "",
          "type": "uint256"
        }
      ],
      "stateMutability": "view",
      "type": "function"
    },
    {
      "inputs": [],
      "name": "totalWinnings",
      "outputs": [
        {
          "internalType": "uint256",
          "name": "",
          "type": "uint256"
        }
      ],
      "stateMutability": "view",
      "type": "function"
    },
    {
      "inputs": [
        {
          "internalType": "address",
          "name": "newOwner",
          "type": "address"
        }
      ],
      "name": "transferOwnership",
      "outputs": [],
      "stateMutability": "nonpayable",
      "type": "function"
    },
    {
      "inputs": [],
      "name": "unpause",
      "outputs": [],
      "stateMutability": "nonpayable",
      "type": "function"
    },
    {
      "inputs": [
        {
          "internalType": "uint256",
          "name": "amount",
          "type": "uint256"
        }
      ],
      "name": "withdrawTokens",
      "outputs": [],
      "stateMutability": "nonpayable",
      "type": "function"
    }
  ],
  "bytecode": "0x60806040523480156200001157600080fd5b5060405162001b2238038062001b2283398101604081905262000034916200014d565b33806200005c57604051631e4fbdf760e01b8152600060048201526024015b60405180910390fd5b6200006781620000fd565b50600180556001600160a01b038416620000c45760405162461bcd60e51b815260206004820152601560248201527f496e76616c696420746f6b656e20616464726573730000000000000000000000604482015260640162000053565b600280546001600160a01b0390951661010002610100600160a81b0319909516949094179093556006919091556007556008556200019a565b600080546001600160a01b038381166001600160a01b0319831681178455604051919092169283917f8be0079c531659141344cd1fd0a4f28419497f9722a3daafe3b4186f6b6457e09190a35050565b600080600080608085870312156200016457600080fd5b84516001600160a01b03811681146200017c57600080fd5b60208601516040870151606090970151919890975090945092505050565b61197880620001aa6000396000f3fe608060405234801561001057600080fd5b50600436106101a95760003560e01c80638456cb59116100f9578063bcc5e2f611610097578063c59d484711610071578063c59d48471461040c578063d667dcd71461043c578063f0f437b614610445578063f2fde38b1461045857600080fd5b8063bcc5e2f6146103e7578063befa1e2f146103fa578063bf04820b1461040357600080fd5b80638f1327c0116100d35780638f1327c0146103ac5780639619367d146103cc5780639cbe5efd146103d5578063b72481f8146103de57600080fd5b80638456cb59146102cb5780638c65c81f146102d35780638da5cb5b1461039b57600080fd5b80634afe62b5116101665780636cd0f102116101405780636cd0f1021461026d5780636ff7b10314610280578063715018a6146102b05780637687dd49146102b857600080fd5b80634afe62b5146102315780635c975abb146102445780636c3fecd71461025a57600080fd5b8063218ead0e146101ae578063233507b9146101c35780632768a49f146101ec5780632e5b21681461020d578063315a095d146102165780633f4ba83a14610229575b600080fd5b6101c16101bc36600461169f565b61046b565b005b6101d66101d13660046116dd565b61082a565b6040516101e391906116ff565b60405180910390f35b6101ff6101fa366004611743565b610896565b6040519081526020016101e3565b6101ff60075481565b6101c161022436600461176d565b6108c7565b6101c1610a50565b6101ff61023f36600461169f565b610a62565b60025460ff1660405190151581526020016101e3565b6101c161026836600461169f565b610f26565b6101c161027b36600461176d565b6110ec565b6002546102989061010090046001600160a01b031681565b6040516001600160a01b0390911681526020016101e3565b6101c1611141565b6101c16102c636600461169f565b611153565b6101c1611166565b6103436102e136600461176d565b60036020819052600091825260409091208054600182015460028301549383015460048401546005850154600686015460078701546008909701546001600160a01b039096169794969495939492939192909160ff808216916101009004168a565b604080516001600160a01b03909b168b5260208b0199909952978901969096526060880194909452608087019290925260a086015260c085015260e084015215156101008301521515610120820152610140016101e3565b6000546001600160a01b0316610298565b6103bf6103ba36600461176d565b611176565b6040516101e39190611786565b6101ff60065481565b6101ff60055481565b6101ff600a5481565b6101c16103f536600461176d565b611274565b6101ff60095481565b6101ff600b5481565b610414611406565b604080519586526020860194909452928401919091526060830152608082015260a0016101e3565b6101ff60085481565b6101c161045336600461176d565b61149e565b6101c16104663660046116dd565b6114e7565b610473611522565b600082815260036020526040902080546001600160a01b031633146104d05760405162461bcd60e51b815260206004820152600e60248201526d139bdd081e5bdd5c881c9bdd5b9960921b60448201526064015b60405180910390fd5b600881015460ff16156104f55760405162461bcd60e51b81526004016104c790611805565b60008160050154116105425760405162461bcd60e51b815260206004820152601660248201527510dc985cda081b9bdd081c995d99585b1959081e595d60521b60448201526064016104c7565b806005015482111561058c5760405162461bcd60e51b815260206004820152601360248201527209aead8e8d2e0d8d2cae440e8dede40d0d2ced606b1b60448201526064016104c7565b6006810154156105d35760405162461bcd60e51b8152602060048201526012602482015271105b1c9958591e4818d85cda1959081bdd5d60721b60448201526064016104c7565b6006810182905560088101805461ffff1916610101179055600181015460009060649061060190859061184a565b61060b9190611877565b9050600061271060085483610620919061184a565b61062a9190611877565b90506000610638828461188b565b6002546040516370a0823160e01b815230600482015291925082916101009091046001600160a01b0316906370a0823190602401602060405180830381865afa158015610689573d6000803e3d6000fd5b505050506040513d601f19601f820116820180604052508101906106ad919061189e565b10156106f45760405162461bcd60e51b8152602060048201526016602482015275496e73756666696369656e74206c697175696469747960501b60448201526064016104c7565b80600a600082825461070691906118b7565b909155505060025460405163a9059cbb60e01b8152336004820152602481018390526101009091046001600160a01b03169063a9059cbb906044016020604051808303816000875af1158015610760573d6000803e3d6000fd5b505050506040513d601f19601f8201168201806040525081019061078491906118ca565b6107a05760405162461bcd60e51b81526004016104c7906118ec565b6040805186815260208101839052339188917fd2856efdbe6f44f49bc7dc20ff9901add2c8050f0facc8ff9db5c2cb2262c93c910160405180910390a360408051600181526020810183905287917f7e07a834f52a0d72fab954197925028738a75482cbb669dcaa587f05716cb2d7910160405180910390a25050505061082660018055565b5050565b6001600160a01b03811660009081526004602090815260409182902080548351818402810184019094528084526060939283018282801561088a57602002820191906000526020600020905b815481526020019060010190808311610876575b50505050509050919050565b600460205281600052604060002081815481106108b257600080fd5b90600052602060002001600091509150505481565b6108cf61154c565b6108d7611522565b6002546040516370a0823160e01b8152306004820152829161010090046001600160a01b0316906370a0823190602401602060405180830381865afa158015610924573d6000803e3d6000fd5b505050506040513d601f19601f82011682018060405250810190610948919061189e565b101561098d5760405162461bcd60e51b8152602060048201526014602482015273496e73756666696369656e742062616c616e636560601b60448201526064016104c7565b6002546001600160a01b036101009091041663a9059cbb6109b66000546001600160a01b031690565b6040516001600160e01b031960e084901b1681526001600160a01b039091166004820152602481018490526044015b6020604051808303816000875af1158015610a04573d6000803e3d6000fd5b505050506040513d601f19601f82011682018060405250810190610a2891906118ca565b610a445760405162461bcd60e51b81526004016104c7906118ec565b610a4d60018055565b50565b610a5861154c565b610a60611579565b565b6000610a6c611522565b610a746115cb565b6006548310158015610a8857506007548311155b610ac95760405162461bcd60e51b8152602060048201526012602482015271125b9d985b1a590818995d08185b5bdd5b9d60721b60448201526064016104c7565b6002546040516370a0823160e01b8152336004820152849161010090046001600160a01b0316906370a0823190602401602060405180830381865afa158015610b16573d6000803e3d6000fd5b505050506040513d601f19601f82011682018060405250810190610b3a919061189e565b1015610b7f5760405162461bcd60e51b8152602060048201526014602482015273496e73756666696369656e742062616c616e636560601b60448201526064016104c7565b600254604051636eb1769f60e11b8152336004820152306024820152849161010090046001600160a01b03169063dd62ed3e90604401602060405180830381865afa158015610bd2573d6000803e3d6000fd5b505050506040513d601f19601f82011682018060405250810190610bf6919061189e565b1015610c3d5760405162461bcd60e51b8152602060048201526016602482015275496e73756666696369656e7420616c6c6f77616e636560501b60448201526064016104c7565b6002546040516323b872dd60e01b8152336004820152306024820152604481018590526101009091046001600160a01b0316906323b872dd906064016020604051808303816000875af1158015610c98573d6000803e3d6000fd5b505050506040513d601f19601f82011682018060405250810190610cbc91906118ca565b610cd85760405162461bcd60e51b81526004016104c7906118ec565b6000424433600554604051602001610d1b9493929190938452602084019290925260601b6bffffffffffffffffffffffff19166040830152605482015260740190565b604051602081830303815290604052805190602001209050604051806101400160405280336001600160a01b031681526020018581526020018481526020016000815260200182815260200160008152602001600081526020014281526020016000151581526020016000151581525060036000600554815260200190815260200160002060008201518160000160006101000a8154816001600160a01b0302191690836001600160a01b031602179055506020820151816001015560408201518160020155606082015181600301556080820151816004015560a0820151816005015560c0820151816006015560e082015181600701556101008201518160080160006101000a81548160ff0219169083151502179055506101208201518160080160016101000a81548160ff02191690831515021790555090505060046000336001600160a01b03166001600160a01b0316815260200190815260200160002060055490806001815401808255809150506001900390600052602060002001600090919091909150558360096000828254610eb891906118b7565b909155505060055460408051868152602081018690523392917f1b8a9031cb9351278d70a994f81536e9e08c91162e64f92b2fe4766fb7a891b4910160405180910390a3600580549081906000610f0e83611915565b909155509092505050610f2060018055565b92915050565b610f2e61154c565b6000828152600360205260409020600881015460ff1615610f615760405162461bcd60e51b81526004016104c790611805565b6000816001015411610fa55760405162461bcd60e51b815260206004820152600d60248201526c125b9d985b1a59081c9bdd5b99609a1b60448201526064016104c7565b6007810154815460408051602081019390935244908301526bffffffffffffffffffffffff19606091821b169082015260748101849052600090609401604051602081830303815290604052805190602001209050816004015481146110435760405162461bcd60e51b8152602060048201526013602482015272125b9d985b1a59081cd95c9d995c881cd95959606a1b60448201526064016104c7565b60038201839055600282015460405160009161106c918690602001918252602082015260400190565b60408051601f198184030181529190528051602090910120905060006110946103848361192e565b61109f9060646118b7565b60058501819055604080518281526020810188905291925087917fe011f84cf19044efd843b98f5c31fc136c47491dcad416aae8be99dc55a0b8d1910160405180910390a2505050505050565b6110f461154c565b6103e881111561113c5760405162461bcd60e51b8152602060048201526013602482015272090deeae6ca40cac8ceca40e8dede40d0d2ced606b1b60448201526064016104c7565b600855565b61114961154c565b610a6060006115ef565b61115b61154c565b600691909155600755565b61116e61154c565b610a6061163f565b6111dc60405180610140016040528060006001600160a01b03168152602001600081526020016000815260200160008152602001600080191681526020016000815260200160008152602001600081526020016000151581526020016000151581525090565b5060009081526003602081815260409283902083516101408101855281546001600160a01b0316815260018201549281019290925260028101549382019390935290820154606082015260048201546080820152600582015460a0820152600682015460c0820152600782015460e082015260089091015460ff80821615156101008085019190915290910416151561012082015290565b6000818152600360205260409020600881015460ff16156112a75760405162461bcd60e51b81526004016104c790611805565b60008160050154116112f45760405162461bcd60e51b815260206004820152601660248201527510dc985cda081b9bdd081c995d99585b1959081e595d60521b60448201526064016104c7565b60068101541561133b5760405162461bcd60e51b8152602060048201526012602482015271105b1c9958591e4818d85cda1959081bdd5d60721b60448201526064016104c7565b80546001600160a01b031633148061135d57506000546001600160a01b031633145b61139a5760405162461bcd60e51b815260206004820152600e60248201526d139bdd08185d5d1a1bdc9a5e995960921b60448201526064016104c7565b60088101805461ffff19166001908117909155810154600b80546000906113c29084906118b7565b9091555050604080516000808252602082015283917f7e07a834f52a0d72fab954197925028738a75482cbb669dcaa587f05716cb2d7910160405180910390a25050565b600954600a54600b546002546040516370a0823160e01b815230600482015260009485948594859485946101009091046001600160a01b0316906370a0823190602401602060405180830381865afa158015611466573d6000803e3d6000fd5b505050506040513d601f19601f8201168201806040525081019061148a919061189e565b600554945094509450945094509091929394565b6114a6611522565b6002546040516323b872dd60e01b8152336004820152306024820152604481018390526101009091046001600160a01b0316906323b872dd906064016109e5565b6114ef61154c565b6001600160a01b03811661151957604051631e4fbdf760e01b8152600060048201526024016104c7565b610a4d816115ef565b60026001540361154557604051633ee5aeb560e01b815260040160405180910390fd5b6002600155565b6000546001600160a01b03163314610a605760405163118cdaa760e01b81523360048201526024016104c7565b61158161167c565b6002805460ff191690557f5db9ee0a495bf2e6ff9c91a7834c1ba4fdd244a5e8aa4e537bd38aeae4b073aa335b6040516001600160a01b03909116815260200160405180910390a1565b60025460ff1615610a605760405163d93c066560e01b815260040160405180910390fd5b600080546001600160a01b038381166001600160a01b0319831681178455604051919092169283917f8be0079c531659141344cd1fd0a4f28419497f9722a3daafe3b4186f6b6457e09190a35050565b6116476115cb565b6002805460ff191660011790557f62e78cea01bee320cd4e420270b5ea74000d11b0c9f74754ebdbfc544b05a2586115ae3390565b60025460ff16610a6057604051638dfc202b60e01b815260040160405180910390fd5b600080604083850312156116b257600080fd5b50508035926020909101359150565b80356001600160a01b03811681146116d857600080fd5b919050565b6000602082840312156116ef57600080fd5b6116f8826116c1565b9392505050565b6020808252825182820181905260009190848201906040850190845b818110156117375783518352928401929184019160010161171b565b50909695505050505050565b6000806040838503121561175657600080fd5b61175f836116c1565b946020939093013593505050565b60006020828403121561177f57600080fd5b5035919050565b81516001600160a01b0316815261014081016020830151602083015260408301516040830152606083015160608301526080830151608083015260a083015160a083015260c083015160c083015260e083015160e0830152610100808401516117f28285018215159052565b5050610120928301511515919092015290565b602080825260159082015274149bdd5b9908185b1c9958591e481cd95d1d1b1959605a1b604082015260600190565b634e487b7160e01b600052601160045260246000fd5b8082028115828204841417610f2057610f20611834565b634e487b7160e01b600052601260045260246000fd5b60008261188657611886611861565b500490565b81810381811115610f2057610f20611834565b6000602082840312156118b057600080fd5b5051919050565b80820180821115610f2057610f20611834565b6000602082840312156118dc57600080fd5b815180151581146116f857600080fd5b6020808252600f908201526e151c985b9cd9995c8819985a5b1959608a1b604082015260600190565b60006001820161192757611927611834565b5060010190565b60008261193d5761193d611861565b50069056fea2646970667358221220b0c785ce63294abb5d22d10f482707438cb07743cb3b5d5ca2fc7921f27fa31a64736f6c63430008140033",
  "linkReferences": {},
  "deployedLinkReferences": {}
}