{
  "_format": "hh-sol-artifact-1",
  "contractName": "RogueCoinAirdrop",
  "sourceName": "contracts/RogueCoinAirdrop.sol",
  "abi": [
    {
      "inputs": [
        {
          "internalType": "address",
          "name": "_rgcToken",
          "type": "address"
        },
        {
          "internalType": "uint256",
          "name": "_airdropAmount",
          "type": "uint256"
        },
        {
          "internalType": "uint256",
          "name": "_claimFee",
          "type": "uint256"
        }
      ],
      "stateMutability": "nonpayable",
      "type": "constructor"
    },
    {
      "inputs": [],
      "name": "EnforcedPause",
      "type": "error"
    },
    {
      "inputs": [],
      "name": "ExpectedPause",
      "type": "error"
    },
    {
      "inputs": [
        {
          "internalType": "address",
          "name": "owner",
          "type": "address"
        }
      ],
      "name": "OwnableInvalidOwner",
      "type": "error"
    },
    {
      "inputs": [
        {
          "internalType": "address",
          "name": "account",
          "type": "address"
        }
      ],
      "name": "OwnableUnauthorizedAccount",
      "type": "error"
    },
    {
      "inputs": [],
      "name": "ReentrancyGuardReentrantCall",
      "type": "error"
    },
    {
      "anonymous": false,
      "inputs": [
        {
          "indexed": false,
          "internalType": "uint256",
          "name": "newAmount",
          "type": "uint256"
        }
      ],
      "name": "AirdropAmountUpdated",
      "type": "event"
    },
    {
      "anonymous": false,
      "inputs": [
        {
          "indexed": true,
          "internalType": "address",
          "name": "user",
          "type": "address"
        },
        {
          "indexed": false,
          "internalType": "uint256",
          "name": "amount",
          "type": "uint256"
        },
        {
          "indexed": false,
          "internalType": "uint256",
          "name": "fee",
          "type": "uint256"
        }
      ],
      "name": "AirdropClaimed",
      "type": "event"
    },
    {
      "anonymous": false,
      "inputs": [
        {
          "indexed": false,
          "internalType": "uint256",
          "name": "newFee",
          "type": "uint256"
        }
      ],
      "name": "ClaimFeeUpdated",
      "type": "event"
    },
    {
      "anonymous": false,
      "inputs": [
        {
          "indexed": true,
          "internalType": "address",
          "name": "owner",
          "type": "address"
        },
        {
          "indexed": false,
          "internalType": "uint256",
          "name": "amount",
          "type": "uint256"
        }
      ],
      "name": "ETHWithdrawn",
      "type": "event"
    },
    {
      "anonymous": false,
      "inputs": [
        {
          "indexed": true,
          "internalType": "address",
          "name": "previousOwner",
          "type": "address"
        },
        {
          "indexed": true,
          "internalType": "address",
          "name": "newOwner",
          "type": "address"
        }
      ],
      "name": "OwnershipTransferred",
      "type": "event"
    },
    {
      "anonymous": false,
      "inputs": [
        {
          "indexed": false,
          "internalType": "address",
          "name": "account",
          "type": "address"
        }
      ],
      "name": "Paused",
      "type": "event"
    },
    {
      "anonymous": false,
      "inputs": [
        {
          "indexed": true,
          "internalType": "address",
          "name": "owner",
          "type": "address"
        },
        {
          "indexed": false,
          "internalType": "uint256",
          "name": "amount",
          "type": "uint256"
        }
      ],
      "name": "TokensWithdrawn",
      "type": "event"
    },
    {
      "anonymous": false,
      "inputs": [
        {
          "indexed": false,
          "internalType": "address",
          "name": "account",
          "type": "address"
        }
      ],
      "name": "Unpaused",
      "type": "event"
    },
    {
      "inputs": [],
      "name": "airdropAmount",
      "outputs": [
        {
          "internalType": "uint256",
          "name": "",
          "type": "uint256"
        }
      ],
      "stateMutability": "view",
      "type": "function"
    },
    {
      "inputs": [],
      "name": "claimAirdrop",
      "outputs": [],
      "stateMutability": "payable",
      "type": "function"
    },
    {
      "inputs": [],
      "name": "claimFee",
      "outputs": [
        {
          "internalType": "uint256",
          "name": "",
          "type": "uint256"
        }
      ],
      "stateMutability": "view",
      "type": "function"
    },
    {
      "inputs": [],
      "name": "getStats",
      "outputs": [
        {
          "internalType": "uint256",
          "name": "_airdropAmount",
          "type": "uint256"
        },
        {
          "internalType": "uint256",
          "name": "_claimFee",
          "type": "uint256"
        },
        {
          "internalType": "uint256",
          "name": "_totalClaimed",
          "type": "uint256"
        },
        {
          "internalType": "uint256",
          "name": "_totalFeeCollected",
          "type": "uint256"
        },
        {
          "internalType": "uint256",
          "name": "_remainingBalance",
          "type": "uint256"
        }
      ],
      "stateMutability": "view",
      "type": "function"
    },
    {
      "inputs": [
        {
          "internalType": "address",
          "name": "",
          "type": "address"
        }
      ],
      "name": "hasClaimed",
      "outputs": [
        {
          "internalType": "bool",
          "name": "",
          "type": "bool"
        }
      ],
      "stateMutability": "view",
      "type": "function"
    },
    {
      "inputs": [
        {
          "internalType": "address",
          "name": "user",
          "type": "address"
        }
      ],
      "name": "hasClaimedAirdrop",
      "outputs": [
        {
          "internalType": "bool",
          "name": "",
          "type": "bool"
        }
      ],
      "stateMutability": "view",
      "type": "function"
    },
    {
      "inputs": [],
      "name": "owner",
      "outputs": [
        {
          "internalType": "address",
          "name": "",
          "type": "address"
        }
      ],
      "stateMutability": "view",
      "type": "function"
    },
    {
      "inputs": [],
      "name": "pause",
      "outputs": [],
      "stateMutability": "nonpayable",
      "type": "function"
    },
    {
      "inputs": [],
      "name": "paused",
      "outputs": [
        {
          "internalType": "bool",
          "name": "",
          "type": "bool"
        }
      ],
      "stateMutability": "view",
      "type": "function"
    },
    {
      "inputs": [],
      "name": "renounceOwnership",
      "outputs": [],
      "stateMutability": "nonpayable",
      "type": "function"
    },
    {
      "inputs": [],
      "name": "rgcToken",
      "outputs": [
        {
          "internalType": "contract IERC20",
          "name": "",
          "type": "address"
        }
      ],
      "stateMutability": "view",
      "type": "function"
    },
    {
      "inputs": [
        {
          "internalType": "uint256",
          "name": "_newAmount",
          "type": "uint256"
        }
      ],
      "name": "setAirdropAmount",
      "outputs": [],
      "stateMutability": "nonpayable",
      "type": "function"
    },
    {
      "inputs": [
        {
          "internalType": "uint256",
          "name": "_newFee",
          "type": "uint256"
        }
      ],
      "name": "setClaimFee",
      "outputs": [],
      "stateMutability": "nonpayable",
      "type": "function"
    },
    {
      "inputs": [],
      "name": "totalClaimed",
      "outputs": [
        {
          "internalType": "uint256",
          "name": "",
          "type": "uint256"
        }
      ],
      "stateMutability": "view",
      "type": "function"
    },
    {
      "inputs": [],
      "name": "totalFeeCollected",
      "outputs": [
        {
          "internalType": "uint256",
          "name": "",
          "type": "uint256"
        }
      ],
      "stateMutability": "view",
      "type": "function"
    },
    {
      "inputs": [
        {
          "internalType": "address",
          "name": "newOwner",
          "type": "address"
        }
      ],
      "name": "transferOwnership",
      "outputs": [],
      "stateMutability": "nonpayable",
      "type": "function"
    },
    {
      "inputs": [],
      "name": "unpause",
      "outputs": [],
      "stateMutability": "nonpayable",
      "type": "function"
    },
    {
      "inputs": [],
      "name": "withdrawETH",
      "outputs": [],
      "stateMutability": "nonpayable",
      "type": "function"
    },
    {
      "inputs": [
        {
          "internalType": "uint256",
          "name": "amount",
          "type": "uint256"
        }
      ],
      "name": "withdrawTokens",
      "outputs": [],
      "stateMutability": "nonpayable",
      "type": "function"
    }
  ],
  "bytecode": "0x608060405234801561001057600080fd5b50604051610f12380380610f1283398101604081905261002f9161013c565b338061005657604051631e4fbdf760e01b8152600060048201526024015b60405180910390fd5b61005f816100ec565b50600180556001600160a01b0383166100ba5760405162461bcd60e51b815260206004820152601560248201527f496e76616c696420746f6b656e20616464726573730000000000000000000000604482015260640161004d565b600280546001600160a01b0390941661010002610100600160a81b03199094169390931790925560035560045561017f565b600080546001600160a01b038381166001600160a01b0319831681178455604051919092169283917f8be0079c531659141344cd1fd0a4f28419497f9722a3daafe3b4186f6b6457e09190a35050565b60008060006060848603121561015157600080fd5b83516001600160a01b038116811461016857600080fd5b602085015160409095015190969495509392505050565b610d848061018e6000396000f3fe6080604052600436106101145760003560e01c80638da5cb5b116100a0578063d54ad2a111610064578063d54ad2a1146102ed578063e086e5ec14610303578063f2fde38b14610318578063f4cdda3614610338578063fc2ea8a51461037157600080fd5b80638da5cb5b1461023857806399d32fc414610256578063a5500c301461027a578063b9b2b5cd1461029a578063c59d4847146102b057600080fd5b80635c975abb116100e75780635c975abb146101785780636ff7b103146101a1578063715018a6146101de57806373b2e80e146101f35780638456cb591461022357600080fd5b80632e75ab5014610119578063315a095d1461013b5780633f4ba83a1461015b5780635b88349d14610170575b600080fd5b34801561012557600080fd5b50610139610134366004610ca3565b610387565b005b34801561014757600080fd5b50610139610156366004610ca3565b6103cb565b34801561016757600080fd5b506101396105c8565b6101396105da565b34801561018457600080fd5b5060025460ff165b60405190151581526020015b60405180910390f35b3480156101ad57600080fd5b506002546101c69061010090046001600160a01b031681565b6040516001600160a01b039091168152602001610198565b3480156101ea57600080fd5b50610139610891565b3480156101ff57600080fd5b5061018c61020e366004610cbc565b60056020526000908152604090205460ff1681565b34801561022f57600080fd5b506101396108a3565b34801561024457600080fd5b506000546001600160a01b03166101c6565b34801561026257600080fd5b5061026c60045481565b604051908152602001610198565b34801561028657600080fd5b50610139610295366004610ca3565b6108b3565b3480156102a657600080fd5b5061026c60075481565b3480156102bc57600080fd5b506102c56108f0565b604080519586526020860194909452928401919091526060830152608082015260a001610198565b3480156102f957600080fd5b5061026c60065481565b34801561030f57600080fd5b506101396109a6565b34801561032457600080fd5b50610139610333366004610cbc565b610aeb565b34801561034457600080fd5b5061018c610353366004610cbc565b6001600160a01b031660009081526005602052604090205460ff1690565b34801561037d57600080fd5b5061026c60035481565b61038f610b26565b60048190556040518181527f64374f1a975abb9bc8e8857d704b9ead41989ff599d90c1e8f7d34bc2ebea92a906020015b60405180910390a150565b6103d3610b26565b6103db610b53565b6002546040516370a0823160e01b8152306004820152829161010090046001600160a01b0316906370a0823190602401602060405180830381865afa158015610428573d6000803e3d6000fd5b505050506040513d601f19601f8201168201806040525081019061044c9190610cec565b10156104965760405162461bcd60e51b8152602060048201526014602482015273496e73756666696369656e742062616c616e636560601b60448201526064015b60405180910390fd5b6002546001600160a01b036101009091041663a9059cbb6104bf6000546001600160a01b031690565b6040516001600160e01b031960e084901b1681526001600160a01b039091166004820152602481018490526044016020604051808303816000875af115801561050c573d6000803e3d6000fd5b505050506040513d601f19601f820116820180604052508101906105309190610d05565b61056e5760405162461bcd60e51b815260206004820152600f60248201526e151c985b9cd9995c8819985a5b1959608a1b604482015260640161048d565b6000546001600160a01b03166001600160a01b03167f6352c5382c4a4578e712449ca65e83cdb392d045dfcf1cad9615189db2da244b826040516105b491815260200190565b60405180910390a26105c560018055565b50565b6105d0610b26565b6105d8610b7d565b565b6105e2610b53565b6105ea610bcf565b3360009081526005602052604090205460ff161561063c5760405162461bcd60e51b815260206004820152600f60248201526e105b1c9958591e4818db185a5b5959608a1b604482015260640161048d565b6004543410156106815760405162461bcd60e51b815260206004820152601060248201526f496e73756666696369656e742066656560801b604482015260640161048d565b6003546002546040516370a0823160e01b81523060048201526101009091046001600160a01b0316906370a0823190602401602060405180830381865afa1580156106d0573d6000803e3d6000fd5b505050506040513d601f19601f820116820180604052508101906106f49190610cec565b10156107425760405162461bcd60e51b815260206004820152601c60248201527f496e73756666696369656e742061697264726f702062616c616e636500000000604482015260640161048d565b336000908152600560205260408120805460ff191660011790556003546006805491929091610772908490610d27565b92505081905550346007600082825461078b9190610d27565b909155505060025460035460405163a9059cbb60e01b815233600482015260248101919091526101009091046001600160a01b03169063a9059cbb906044016020604051808303816000875af11580156107e9573d6000803e3d6000fd5b505050506040513d601f19601f8201168201806040525081019061080d9190610d05565b61084b5760405162461bcd60e51b815260206004820152600f60248201526e151c985b9cd9995c8819985a5b1959608a1b604482015260640161048d565b6003546040805191825234602083015233917fd0755a9ef5a74f50d34b3503bb5b65ad71a112c001b76dfa6412c9aa4a1f43b0910160405180910390a26105d860018055565b610899610b26565b6105d86000610bf3565b6108ab610b26565b6105d8610c43565b6108bb610b26565b60038190556040518181527f26c76ed9d3ad7d6dc5354f3a22e0b8f3a55d756f2bf361343546921967940bca906020016103c0565b6000806000806000600354600454600654600754600260019054906101000a90046001600160a01b03166001600160a01b03166370a08231306040518263ffffffff1660e01b815260040161095491906001600160a01b0391909116815260200190565b602060405180830381865afa158015610971573d6000803e3d6000fd5b505050506040513d601f19601f820116820180604052508101906109959190610cec565b945094509450945094509091929394565b6109ae610b26565b6109b6610b53565b47806109f95760405162461bcd60e51b81526020600482015260126024820152714e6f20504f4c20746f20776974686472617760701b604482015260640161048d565b600080546040516001600160a01b039091169083908381818185875af1925050503d8060008114610a46576040519150601f19603f3d011682016040523d82523d6000602084013e610a4b565b606091505b5050905080610a925760405162461bcd60e51b81526020600482015260136024820152721413d3081d1c985b9cd9995c8819985a5b1959606a1b604482015260640161048d565b6000546001600160a01b03166001600160a01b03167f94b2de810873337ed265c5f8cf98c9cffefa06b8607f9a2f1fbaebdfbcfbef1c83604051610ad891815260200190565b60405180910390a250506105d860018055565b610af3610b26565b6001600160a01b038116610b1d57604051631e4fbdf760e01b81526000600482015260240161048d565b6105c581610bf3565b6000546001600160a01b031633146105d85760405163118cdaa760e01b815233600482015260240161048d565b600260015403610b7657604051633ee5aeb560e01b815260040160405180910390fd5b6002600155565b610b85610c80565b6002805460ff191690557f5db9ee0a495bf2e6ff9c91a7834c1ba4fdd244a5e8aa4e537bd38aeae4b073aa335b6040516001600160a01b03909116815260200160405180910390a1565b60025460ff16156105d85760405163d93c066560e01b815260040160405180910390fd5b600080546001600160a01b038381166001600160a01b0319831681178455604051919092169283917f8be0079c531659141344cd1fd0a4f28419497f9722a3daafe3b4186f6b6457e09190a35050565b610c4b610bcf565b6002805460ff191660011790557f62e78cea01bee320cd4e420270b5ea74000d11b0c9f74754ebdbfc544b05a258610bb23390565b60025460ff166105d857604051638dfc202b60e01b815260040160405180910390fd5b600060208284031215610cb557600080fd5b5035919050565b600060208284031215610cce57600080fd5b81356001600160a01b0381168114610ce557600080fd5b9392505050565b600060208284031215610cfe57600080fd5b5051919050565b600060208284031215610d1757600080fd5b81518015158114610ce557600080fd5b80820180821115610d4857634e487b7160e01b600052601160045260246000fd5b9291505056fea2646970667358221220b67a563d57e52aea183a6c61eb6c859185a61ddec02dd7b9d144d1f10c7fe9a064736f6c63430008140033",
  "linkReferences": {},
  "deployedLinkReferences": {}
}