{
  "_format": "hh-sol-artifact-1",
  "contractName": "RogueCoin",
  "sourceName": "contracts/RogueCoin.sol",
  "abi": [
    {
      "inputs": [],
      "stateMutability": "nonpayable",
      "type": "constructor"
    },
    {
      "inputs": [
        {
          "internalType": "address",
          "name": "spender",
          "type": "address"
        },
        {
          "internalType": "uint256",
          "name": "allowance",
          "type": "uint256"
        },
        {
          "internalType": "uint256",
          "name": "needed",
          "type": "uint256"
        }
      ],
      "name": "ERC20InsufficientAllowance",
      "type": "error"
    },
    {
      "inputs": [
        {
          "internalType": "address",
          "name": "sender",
          "type": "address"
        },
        {
          "internalType": "uint256",
          "name": "balance",
          "type": "uint256"
        },
        {
          "internalType": "uint256",
          "name": "needed",
          "type": "uint256"
        }
      ],
      "name": "ERC20InsufficientBalance",
      "type": "error"
    },
    {
      "inputs": [
        {
          "internalType": "address",
          "name": "approver",
          "type": "address"
        }
      ],
      "name": "ERC20InvalidApprover",
      "type": "error"
    },
    {
      "inputs": [
        {
          "internalType": "address",
          "name": "receiver",
          "type": "address"
        }
      ],
      "name": "ERC20InvalidReceiver",
      "type": "error"
    },
    {
      "inputs": [
        {
          "internalType": "address",
          "name": "sender",
          "type": "address"
        }
      ],
      "name": "ERC20InvalidSender",
      "type": "error"
    },
    {
      "inputs": [
        {
          "internalType": "address",
          "name": "spender",
          "type": "address"
        }
      ],
      "name": "ERC20InvalidSpender",
      "type": "error"
    },
    {
      "inputs": [],
      "name": "EnforcedPause",
      "type": "error"
    },
    {
      "inputs": [],
      "name": "ExpectedPause",
      "type": "error"
    },
    {
      "inputs": [
        {
          "internalType": "address",
          "name": "owner",
          "type": "address"
        }
      ],
      "name": "OwnableInvalidOwner",
      "type": "error"
    },
    {
      "inputs": [
        {
          "internalType": "address",
          "name": "account",
          "type": "address"
        }
      ],
      "name": "OwnableUnauthorizedAccount",
      "type": "error"
    },
    {
      "inputs": [],
      "name": "ReentrancyGuardReentrantCall",
      "type": "error"
    },
    {
      "anonymous": false,
      "inputs": [
        {
          "indexed": false,
          "internalType": "address",
          "name": "account",
          "type": "address"
        },
        {
          "indexed": false,
          "internalType": "bool",
          "name": "blacklisted",
          "type": "bool"
        }
      ],
      "name": "AddressBlacklisted",
      "type": "event"
    },
    {
      "anonymous": false,
      "inputs": [
        {
          "indexed": false,
          "internalType": "address",
          "name": "account",
          "type": "address"
        },
        {
          "indexed": false,
          "internalType": "bool",
          "name": "excluded",
          "type": "bool"
        }
      ],
      "name": "AddressExcludedFromLimits",
      "type": "event"
    },
    {
      "anonymous": false,
      "inputs": [
        {
          "indexed": true,
          "internalType": "address",
          "name": "owner",
          "type": "address"
        },
        {
          "indexed": true,
          "internalType": "address",
          "name": "spender",
          "type": "address"
        },
        {
          "indexed": false,
          "internalType": "uint256",
          "name": "value",
          "type": "uint256"
        }
      ],
      "name": "Approval",
      "type": "event"
    },
    {
      "anonymous": false,
      "inputs": [
        {
          "indexed": false,
          "internalType": "uint256",
          "name": "newAmount",
          "type": "uint256"
        }
      ],
      "name": "MaxTransactionAmountUpdated",
      "type": "event"
    },
    {
      "anonymous": false,
      "inputs": [
        {
          "indexed": false,
          "internalType": "uint256",
          "name": "newAmount",
          "type": "uint256"
        }
      ],
      "name": "MaxWalletAmountUpdated",
      "type": "event"
    },
    {
      "anonymous": false,
      "inputs": [
        {
          "indexed": true,
          "internalType": "address",
          "name": "previousOwner",
          "type": "address"
        },
        {
          "indexed": true,
          "internalType": "address",
          "name": "newOwner",
          "type": "address"
        }
      ],
      "name": "OwnershipTransferred",
      "type": "event"
    },
    {
      "anonymous": false,
      "inputs": [
        {
          "indexed": false,
          "internalType": "address",
          "name": "account",
          "type": "address"
        }
      ],
      "name": "Paused",
      "type": "event"
    },
    {
      "anonymous": false,
      "inputs": [
        {
          "indexed": false,
          "internalType": "uint256",
          "name": "amount",
          "type": "uint256"
        },
        {
          "indexed": false,
          "internalType": "uint256",
          "name": "timestamp",
          "type": "uint256"
        }
      ],
      "name": "TeamTokensReleased",
      "type": "event"
    },
    {
      "anonymous": false,
      "inputs": [
        {
          "indexed": false,
          "internalType": "uint256",
          "name": "timestamp",
          "type": "uint256"
        }
      ],
      "name": "TradingEnabled",
      "type": "event"
    },
    {
      "anonymous": false,
      "inputs": [
        {
          "indexed": true,
          "internalType": "address",
          "name": "from",
          "type": "address"
        },
        {
          "indexed": true,
          "internalType": "address",
          "name": "to",
          "type": "address"
        },
        {
          "indexed": false,
          "internalType": "uint256",
          "name": "value",
          "type": "uint256"
        }
      ],
      "name": "Transfer",
      "type": "event"
    },
    {
      "anonymous": false,
      "inputs": [
        {
          "indexed": false,
          "internalType": "address",
          "name": "account",
          "type": "address"
        }
      ],
      "name": "Unpaused",
      "type": "event"
    },
    {
      "inputs": [
        {
          "internalType": "address",
          "name": "owner",
          "type": "address"
        },
        {
          "internalType": "address",
          "name": "spender",
          "type": "address"
        }
      ],
      "name": "allowance",
      "outputs": [
        {
          "internalType": "uint256",
          "name": "",
          "type": "uint256"
        }
      ],
      "stateMutability": "view",
      "type": "function"
    },
    {
      "inputs": [
        {
          "internalType": "address",
          "name": "spender",
          "type": "address"
        },
        {
          "internalType": "uint256",
          "name": "value",
          "type": "uint256"
        }
      ],
      "name": "approve",
      "outputs": [
        {
          "internalType": "bool",
          "name": "",
          "type": "bool"
        }
      ],
      "stateMutability": "nonpayable",
      "type": "function"
    },
    {
      "inputs": [
        {
          "internalType": "address",
          "name": "account",
          "type": "address"
        }
      ],
      "name": "balanceOf",
      "outputs": [
        {
          "internalType": "uint256",
          "name": "",
          "type": "uint256"
        }
      ],
      "stateMutability": "view",
      "type": "function"
    },
    {
      "inputs": [
        {
          "internalType": "uint256",
          "name": "value",
          "type": "uint256"
        }
      ],
      "name": "burn",
      "outputs": [],
      "stateMutability": "nonpayable",
      "type": "function"
    },
    {
      "inputs": [
        {
          "internalType": "address",
          "name": "account",
          "type": "address"
        },
        {
          "internalType": "uint256",
          "name": "value",
          "type": "uint256"
        }
      ],
      "name": "burnFrom",
      "outputs": [],
      "stateMutability": "nonpayable",
      "type": "function"
    },
    {
      "inputs": [],
      "name": "decimals",
      "outputs": [
        {
          "internalType": "uint8",
          "name": "",
          "type": "uint8"
        }
      ],
      "stateMutability": "view",
      "type": "function"
    },
    {
      "inputs": [],
      "name": "enableTrading",
      "outputs": [],
      "stateMutability": "nonpayable",
      "type": "function"
    },
    {
      "inputs": [],
      "name": "getReleasableTeamTokens",
      "outputs": [
        {
          "internalType": "uint256",
          "name": "",
          "type": "uint256"
        }
      ],
      "stateMutability": "view",
      "type": "function"
    },
    {
      "inputs": [],
      "name": "getTokenDistribution",
      "outputs": [
        {
          "internalType": "uint256",
          "name": "totalSupply",
          "type": "uint256"
        },
        {
          "internalType": "uint256",
          "name": "teamAllocation",
          "type": "uint256"
        },
        {
          "internalType": "uint256",
          "name": "liquidityAllocation",
          "type": "uint256"
        },
        {
          "internalType": "uint256",
          "name": "communityAllocation",
          "type": "uint256"
        },
        {
          "internalType": "uint256",
          "name": "airdropAllocation",
          "type": "uint256"
        },
        {
          "internalType": "uint256",
          "name": "gameTreasury",
          "type": "uint256"
        }
      ],
      "stateMutability": "pure",
      "type": "function"
    },
    {
      "inputs": [
        {
          "internalType": "address",
          "name": "",
          "type": "address"
        }
      ],
      "name": "isBlacklisted",
      "outputs": [
        {
          "internalType": "bool",
          "name": "",
          "type": "bool"
        }
      ],
      "stateMutability": "view",
      "type": "function"
    },
    {
      "inputs": [
        {
          "internalType": "address",
          "name": "",
          "type": "address"
        }
      ],
      "name": "isExcludedFromLimits",
      "outputs": [
        {
          "internalType": "bool",
          "name": "",
          "type": "bool"
        }
      ],
      "stateMutability": "view",
      "type": "function"
    },
    {
      "inputs": [],
      "name": "launchTimestamp",
      "outputs": [
        {
          "internalType": "uint256",
          "name": "",
          "type": "uint256"
        }
      ],
      "stateMutability": "view",
      "type": "function"
    },
    {
      "inputs": [],
      "name": "maxTransactionAmount",
      "outputs": [
        {
          "internalType": "uint256",
          "name": "",
          "type": "uint256"
        }
      ],
      "stateMutability": "view",
      "type": "function"
    },
    {
      "inputs": [],
      "name": "maxWalletAmount",
      "outputs": [
        {
          "internalType": "uint256",
          "name": "",
          "type": "uint256"
        }
      ],
      "stateMutability": "view",
      "type": "function"
    },
    {
      "inputs": [],
      "name": "name",
      "outputs": [
        {
          "internalType": "string",
          "name": "",
          "type": "string"
        }
      ],
      "stateMutability": "view",
      "type": "function"
    },
    {
      "inputs": [],
      "name": "owner",
      "outputs": [
        {
          "internalType": "address",
          "name": "",
          "type": "address"
        }
      ],
      "stateMutability": "view",
      "type": "function"
    },
    {
      "inputs": [],
      "name": "pause",
      "outputs": [],
      "stateMutability": "nonpayable",
      "type": "function"
    },
    {
      "inputs": [],
      "name": "paused",
      "outputs": [
        {
          "internalType": "bool",
          "name": "",
          "type": "bool"
        }
      ],
      "stateMutability": "view",
      "type": "function"
    },
    {
      "inputs": [
        {
          "internalType": "address",
          "name": "tokenAddress",
          "type": "address"
        },
        {
          "internalType": "uint256",
          "name": "tokenAmount",
          "type": "uint256"
        }
      ],
      "name": "recoverERC20",
      "outputs": [],
      "stateMutability": "nonpayable",
      "type": "function"
    },
    {
      "inputs": [],
      "name": "releaseTeamTokens",
      "outputs": [],
      "stateMutability": "nonpayable",
      "type": "function"
    },
    {
      "inputs": [],
      "name": "removeLimits",
      "outputs": [],
      "stateMutability": "nonpayable",
      "type": "function"
    },
    {
      "inputs": [],
      "name": "renounceOwnership",
      "outputs": [],
      "stateMutability": "nonpayable",
      "type": "function"
    },
    {
      "inputs": [
        {
          "internalType": "address",
          "name": "account",
          "type": "address"
        },
        {
          "internalType": "bool",
          "name": "blacklisted",
          "type": "bool"
        }
      ],
      "name": "setBlacklisted",
      "outputs": [],
      "stateMutability": "nonpayable",
      "type": "function"
    },
    {
      "inputs": [
        {
          "internalType": "address",
          "name": "account",
          "type": "address"
        },
        {
          "internalType": "bool",
          "name": "excluded",
          "type": "bool"
        }
      ],
      "name": "setExcludedFromLimits",
      "outputs": [],
      "stateMutability": "nonpayable",
      "type": "function"
    },
    {
      "inputs": [
        {
          "internalType": "uint256",
          "name": "_maxTransactionAmount",
          "type": "uint256"
        }
      ],
      "name": "setMaxTransactionAmount",
      "outputs": [],
      "stateMutability": "nonpayable",
      "type": "function"
    },
    {
      "inputs": [
        {
          "internalType": "uint256",
          "name": "_maxWalletAmount",
          "type": "uint256"
        }
      ],
      "name": "setMaxWalletAmount",
      "outputs": [],
      "stateMutability": "nonpayable",
      "type": "function"
    },
    {
      "inputs": [
        {
          "internalType": "address",
          "name": "_teamWallet",
          "type": "address"
        }
      ],
      "name": "setTeamWallet",
      "outputs": [],
      "stateMutability": "nonpayable",
      "type": "function"
    },
    {
      "inputs": [],
      "name": "symbol",
      "outputs": [
        {
          "internalType": "string",
          "name": "",
          "type": "string"
        }
      ],
      "stateMutability": "view",
      "type": "function"
    },
    {
      "inputs": [],
      "name": "teamTokensReleased",
      "outputs": [
        {
          "internalType": "uint256",
          "name": "",
          "type": "uint256"
        }
      ],
      "stateMutability": "view",
      "type": "function"
    },
    {
      "inputs": [],
      "name": "teamVestingStart",
      "outputs": [
        {
          "internalType": "uint256",
          "name": "",
          "type": "uint256"
        }
      ],
      "stateMutability": "view",
      "type": "function"
    },
    {
      "inputs": [],
      "name": "teamWallet",
      "outputs": [
        {
          "internalType": "address",
          "name": "",
          "type": "address"
        }
      ],
      "stateMutability": "view",
      "type": "function"
    },
    {
      "inputs": [],
      "name": "totalSupply",
      "outputs": [
        {
          "internalType": "uint256",
          "name": "",
          "type": "uint256"
        }
      ],
      "stateMutability": "view",
      "type": "function"
    },
    {
      "inputs": [],
      "name": "tradingEnabled",
      "outputs": [
        {
          "internalType": "bool",
          "name": "",
          "type": "bool"
        }
      ],
      "stateMutability": "view",
      "type": "function"
    },
    {
      "inputs": [
        {
          "internalType": "address",
          "name": "to",
          "type": "address"
        },
        {
          "internalType": "uint256",
          "name": "value",
          "type": "uint256"
        }
      ],
      "name": "transfer",
      "outputs": [
        {
          "internalType": "bool",
          "name": "",
          "type": "bool"
        }
      ],
      "stateMutability": "nonpayable",
      "type": "function"
    },
    {
      "inputs": [
        {
          "internalType": "address",
          "name": "from",
          "type": "address"
        },
        {
          "internalType": "address",
          "name": "to",
          "type": "address"
        },
        {
          "internalType": "uint256",
          "name": "value",
          "type": "uint256"
        }
      ],
      "name": "transferFrom",
      "outputs": [
        {
          "internalType": "bool",
          "name": "",
          "type": "bool"
        }
      ],
      "stateMutability": "nonpayable",
      "type": "function"
    },
    {
      "inputs": [
        {
          "internalType": "address",
          "name": "newOwner",
          "type": "address"
        }
      ],
      "name": "transferOwnership",
      "outputs": [],
      "stateMutability": "nonpayable",
      "type": "function"
    },
    {
      "inputs": [],
      "name": "unpause",
      "outputs": [],
      "stateMutability": "nonpayable",
      "type": "function"
    }
  ],
  "bytecode": "0x60806040526009805460ff191690553480156200001b57600080fd5b5033604051806040016040528060098152602001682937b3bab2a1b7b4b760b91b8152506040518060400160405280600381526020016252474360e81b81525081600390816200006c91906200079f565b5060046200007b82826200079f565b5050506001600160a01b038116620000ae57604051631e4fbdf760e01b8152600060048201526024015b60405180910390fd5b620000b9816200024e565b5060016006556064620000da6b033b2e3c9fd0803ce8000000600262000881565b620000e69190620008a1565b6007556064620001046b033b2e3c9fd0803ce8000000600262000881565b620001109190620008a1565b600855600b80546001600160a01b0319163390811790915542600d556000818152600e6020526040808220805460ff199081166001908117909255308452919092208054909116909117905562000173906aa56fa5b99019a5c8000000620002a8565b6200018a336af8277896582678ac000000620002a8565b620001a1336a295be96e64066972000000620002a8565b620001b8336af8277896582678ac000000620002a8565b620001cf306a7c13bc4b2c133c56000000620002a8565b33600060008051602062001fe0833981519152620002056a7c13bc4b2c133c560000006b033b2e3c9fd0803ce8000000620008c4565b60405190815260200160405180910390a36040516a7c13bc4b2c133c560000008152309060009060008051602062001fe08339815191529060200160405180910390a3620008f0565b600580546001600160a01b03838116610100818102610100600160a81b031985161790945560405193909204169182907f8be0079c531659141344cd1fd0a4f28419497f9722a3daafe3b4186f6b6457e090600090a35050565b6001600160a01b038216620002d45760405163ec442f0560e01b815260006004820152602401620000a5565b620002e260008383620002e6565b5050565b60095460ff1680620003075750336000908152600e602052604090205460ff165b620003555760405162461bcd60e51b815260206004820152601360248201527f54726164696e67206e6f7420656e61626c6564000000000000000000000000006044820152606401620000a5565b6001600160a01b0383166000908152600f6020526040902054839060ff1615620003c25760405162461bcd60e51b815260206004820152601660248201527f4164647265737320697320626c61636b6c6973746564000000000000000000006044820152606401620000a5565b6001600160a01b0383166000908152600f6020526040902054839060ff16156200042f5760405162461bcd60e51b815260206004820152601660248201527f4164647265737320697320626c61636b6c6973746564000000000000000000006044820152606401620000a5565b6001600160a01b03851615806200044d57506001600160a01b038416155b806200047157506001600160a01b0385166000908152600e602052604090205460ff165b806200049557506001600160a01b0384166000908152600e602052604090205460ff165b15620004ae57620004a885858562000596565b6200058f565b600754831115620005025760405162461bcd60e51b815260206004820152601e60248201527f45786365656473206d6178207472616e73616374696f6e20616d6f756e7400006044820152606401620000a5565b6008548362000526866001600160a01b031660009081526020819052604090205490565b620005329190620008da565b1115620005825760405162461bcd60e51b815260206004820152601960248201527f45786365656473206d61782077616c6c657420616d6f756e74000000000000006044820152606401620000a5565b6200058f85858562000596565b5050505050565b620005a0620005b2565b620005ad838383620005d9565b505050565b60055460ff1615620005d75760405163d93c066560e01b815260040160405180910390fd5b565b6001600160a01b03831662000608578060026000828254620005fc9190620008da565b909155506200067c9050565b6001600160a01b038316600090815260208190526040902054818110156200065d5760405163391434e360e21b81526001600160a01b03851660048201526024810182905260448101839052606401620000a5565b6001600160a01b03841660009081526020819052604090209082900390555b6001600160a01b0382166200069a57600280548290039055620006b9565b6001600160a01b03821660009081526020819052604090208054820190555b816001600160a01b0316836001600160a01b031660008051602062001fe083398151915283604051620006ee91815260200190565b60405180910390a3505050565b634e487b7160e01b600052604160045260246000fd5b600181811c908216806200072657607f821691505b6020821081036200074757634e487b7160e01b600052602260045260246000fd5b50919050565b601f821115620005ad57600081815260208120601f850160051c81016020861015620007765750805b601f850160051c820191505b81811015620007975782815560010162000782565b505050505050565b81516001600160401b03811115620007bb57620007bb620006fb565b620007d381620007cc845462000711565b846200074d565b602080601f8311600181146200080b5760008415620007f25750858301515b600019600386901b1c1916600185901b17855562000797565b600085815260208120601f198616915b828110156200083c578886015182559484019460019091019084016200081b565b50858210156200085b5787850151600019600388901b60f8161c191681555b5050505050600190811b01905550565b634e487b7160e01b600052601160045260246000fd5b80820281158282048414176200089b576200089b6200086b565b92915050565b600082620008bf57634e487b7160e01b600052601260045260246000fd5b500490565b818103818111156200089b576200089b6200086b565b808201808211156200089b576200089b6200086b565b6116e080620009006000396000f3fe608060405234801561001057600080fd5b50600436106102275760003560e01c806370a0823111610130578063a2de66fc116100b8578063d01dd6d21161007c578063d01dd6d2146104ac578063dd62ed3e146104bf578063ea7f9888146104f8578063f2fde38b14610501578063fe575a871461051457600080fd5b8063a2de66fc14610476578063a9059cbb1461047e578063aa4bde2814610491578063c8c8ebe41461049a578063cd881742146104a357600080fd5b80638456cb59116100ff5780638456cb59146104355780638980f11f1461043d5780638a8c523c146104505780638da5cb5b1461045857806395d89b411461046e57600080fd5b806370a08231146103e9578063715018a614610412578063751039fc1461041a57806379cc67901461042257600080fd5b806336fddb04116101b35780634ada218b116101825780634ada218b1461037a57806359927044146103875780635c975abb146103b25780635cce86cd146103bd57806365cf7c9b146103e057600080fd5b806336fddb04146102e45780633975e4ea146102f75780633f4ba83a1461035f57806342966c681461036757600080fd5b806318160ddd116101fa57806318160ddd1461028a5780631e293c101461029c57806323b872dd146102af57806327a14fc2146102c2578063313ce567146102d557600080fd5b806306fdde031461022c578063095ea7b31461024a57806314c411c71461026d5780631525ff7d14610277575b600080fd5b610234610537565b604051610241919061145b565b60405180910390f35b61025d6102583660046114c5565b6105c9565b6040519015158152602001610241565b6102756105e3565b005b6102756102853660046114ef565b61072c565b6002545b604051908152602001610241565b6102756102aa366004611511565b61079e565b61025d6102bd36600461152a565b61083b565b6102756102d0366004611511565b61085f565b60405160128152602001610241565b6102756102f2366004611574565b6108f5565b604080516b033b2e3c9fd0803ce800000081526a7c13bc4b2c133c5600000060208201526aa56fa5b99019a5c8000000918101919091526af8277896582678ac000000606082018190526a295be96e64066972000000608083015260a082015260c001610241565b610275610961565b610275610375366004611511565b610971565b60095461025d9060ff1681565b600b5461039a906001600160a01b031681565b6040516001600160a01b039091168152602001610241565b60055460ff1661025d565b61025d6103cb3660046114ef565b600e6020526000908152604090205460ff1681565b61028e600a5481565b61028e6103f73660046114ef565b6001600160a01b031660009081526020819052604090205490565b61027561097e565b610275610990565b6102756104303660046114c5565b610a24565b610275610a3d565b61027561044b3660046114c5565b610a4d565b610275610b4a565b60055461010090046001600160a01b031661039a565b610234610bea565b61028e610bf9565b61025d61048c3660046114c5565b610c77565b61028e60085481565b61028e60075481565b61028e600c5481565b6102756104ba366004611574565b610c85565b61028e6104cd3660046115ab565b6001600160a01b03918216600090815260016020908152604080832093909416825291909152205490565b61028e600d5481565b61027561050f3660046114ef565b610ce9565b61025d6105223660046114ef565b600f6020526000908152604090205460ff1681565b606060038054610546906115de565b80601f0160208091040260200160405190810160405280929190818152602001828054610572906115de565b80156105bf5780601f10610594576101008083540402835291602001916105bf565b820191906000526020600020905b8154815290600101906020018083116105a257829003601f168201915b5050505050905090565b6000336105d7818585610d24565b60019150505b92915050565b6105eb610d31565b600b546001600160a01b0316331480610625575060055461010090046001600160a01b03166001600160a01b0316336001600160a01b0316145b6106655760405162461bcd60e51b815260206004820152600c60248201526b155b985d5d1a1bdc9a5e995960a21b60448201526064015b60405180910390fd5b600061066f610bf9565b9050600081116106b85760405162461bcd60e51b81526020600482015260146024820152734e6f20746f6b656e7320746f2072656c6561736560601b604482015260640161065c565b80600c60008282546106ca919061162e565b9091555050600b546106e79030906001600160a01b031683610d5b565b604080518281524260208201527ff8d4e868d21b6cfbdbbdec864799e9a4026da7f0e1e517581108bdba1949e96f910160405180910390a15061072a6001600655565b565b610734610dba565b6001600160a01b03811661077c5760405162461bcd60e51b815260206004820152600f60248201526e496e76616c6964206164647265737360881b604482015260640161065c565b600b80546001600160a01b0319166001600160a01b0392909216919091179055565b6107a6610dba565b6107be6103e86b033b2e3c9fd0803ce8000000611641565b8110156107ff5760405162461bcd60e51b815260206004820152600f60248201526e546f6f20726573747269637469766560881b604482015260640161065c565b60078190556040518181527f7c1cb3702d8e1fa6d24b12dd90670ab69c6d66d58233103d37da8b07d6b850ac906020015b60405180910390a150565b600033610849858285610ded565b610854858585610d5b565b506001949350505050565b610867610dba565b61087f6103e86b033b2e3c9fd0803ce8000000611641565b8110156108c05760405162461bcd60e51b815260206004820152600f60248201526e546f6f20726573747269637469766560881b604482015260640161065c565b60088190556040518181527f4b39c36d20c57d220f61fd25c4349d4435cc03ef6c2a680942f15333c3c3e00190602001610830565b6108fd610dba565b6001600160a01b0382166000818152600e6020908152604091829020805460ff19168515159081179091558251938452908301527fc595fc2efde600a18f1717c9d6b918b40327c77877aee714804fe0061853da7991015b60405180910390a15050565b610969610dba565b61072a610e6c565b61097b3382610eb9565b50565b610986610dba565b61072a6000610eef565b610998610dba565b6b033b2e3c9fd0803ce8000000600781905560088190556040519081527f7c1cb3702d8e1fa6d24b12dd90670ab69c6d66d58233103d37da8b07d6b850ac9060200160405180910390a16040516b033b2e3c9fd0803ce800000081527f4b39c36d20c57d220f61fd25c4349d4435cc03ef6c2a680942f15333c3c3e001906020015b60405180910390a1565b610a2f823383610ded565b610a398282610eb9565b5050565b610a45610dba565b61072a610f49565b610a55610dba565b306001600160a01b03831603610aad5760405162461bcd60e51b815260206004820152601960248201527f43616e6e6f74207265636f7665722052474320746f6b656e7300000000000000604482015260640161065c565b816001600160a01b031663a9059cbb610ad46005546001600160a01b036101009091041690565b6040516001600160e01b031960e084901b1681526001600160a01b039091166004820152602481018490526044016020604051808303816000875af1158015610b21573d6000803e3d6000fd5b505050506040513d601f19601f82011682018060405250810190610b459190611663565b505050565b610b52610dba565b60095460ff1615610ba55760405162461bcd60e51b815260206004820152601760248201527f54726164696e6720616c726561647920656e61626c6564000000000000000000604482015260640161065c565b6009805460ff1916600117905542600a8190556040517fb3da2db3dfc3778f99852546c6e9ab39ec253f9de7b0847afec61bd27878e92391610a1a9190815260200190565b606060048054610546906115de565b6000600d54421015610c0b5750600090565b6000600d5442610c1b9190611680565b905060006303b538008210610c3c57506a7c13bc4b2c133c56000000610c63565b6303b53800610c56836a7c13bc4b2c133c56000000611693565b610c609190611641565b90505b600c54610c709082611680565b9250505090565b6000336105d7818585610d5b565b610c8d610dba565b6001600160a01b0382166000818152600f6020908152604091829020805460ff19168515159081179091558251938452908301527f97b7af35c8c05eca90f543eb78b16fdf2664d3e6c9a907286f310647d9813b719101610955565b610cf1610dba565b6001600160a01b038116610d1b57604051631e4fbdf760e01b81526000600482015260240161065c565b61097b81610eef565b610b458383836001610f86565b600260065403610d5457604051633ee5aeb560e01b815260040160405180910390fd5b6002600655565b6001600160a01b038316610d8557604051634b637e8f60e11b81526000600482015260240161065c565b6001600160a01b038216610daf5760405163ec442f0560e01b81526000600482015260240161065c565b610b4583838361105b565b6005546001600160a01b0361010090910416331461072a5760405163118cdaa760e01b815233600482015260240161065c565b6001600160a01b03838116600090815260016020908152604080832093861683529290522054600019811015610e665781811015610e5757604051637dc7a0d960e11b81526001600160a01b0384166004820152602481018290526044810183905260640161065c565b610e6684848484036000610f86565b50505050565b610e746112dc565b6005805460ff191690557f5db9ee0a495bf2e6ff9c91a7834c1ba4fdd244a5e8aa4e537bd38aeae4b073aa335b6040516001600160a01b039091168152602001610a1a565b6001600160a01b038216610ee357604051634b637e8f60e11b81526000600482015260240161065c565b610a398260008361105b565b600580546001600160a01b03838116610100818102610100600160a81b031985161790945560405193909204169182907f8be0079c531659141344cd1fd0a4f28419497f9722a3daafe3b4186f6b6457e090600090a35050565b610f516112ff565b6005805460ff191660011790557f62e78cea01bee320cd4e420270b5ea74000d11b0c9f74754ebdbfc544b05a258610ea13390565b6001600160a01b038416610fb05760405163e602df0560e01b81526000600482015260240161065c565b6001600160a01b038316610fda57604051634a1406b160e11b81526000600482015260240161065c565b6001600160a01b0380851660009081526001602090815260408083209387168352929052208290558015610e6657826001600160a01b0316846001600160a01b03167f8c5be1e5ebec7d5bd14f71427d1e84f3dd0314c0f7b2291e5b200ac8c7c3b9258460405161104d91815260200190565b60405180910390a350505050565b60095460ff168061107b5750336000908152600e602052604090205460ff165b6110bd5760405162461bcd60e51b8152602060048201526013602482015272151c98591a5b99c81b9bdd08195b98589b1959606a1b604482015260640161065c565b6001600160a01b0383166000908152600f6020526040902054839060ff16156111215760405162461bcd60e51b81526020600482015260166024820152751059191c995cdcc81a5cc8189b1858dadb1a5cdd195960521b604482015260640161065c565b6001600160a01b0383166000908152600f6020526040902054839060ff16156111855760405162461bcd60e51b81526020600482015260166024820152751059191c995cdcc81a5cc8189b1858dadb1a5cdd195960521b604482015260640161065c565b6001600160a01b03851615806111a257506001600160a01b038416155b806111c557506001600160a01b0385166000908152600e602052604090205460ff165b806111e857506001600160a01b0384166000908152600e602052604090205460ff165b156111fd576111f8858585611323565b6112d5565b60075483111561124f5760405162461bcd60e51b815260206004820152601e60248201527f45786365656473206d6178207472616e73616374696f6e20616d6f756e740000604482015260640161065c565b60085483611272866001600160a01b031660009081526020819052604090205490565b61127c919061162e565b11156112ca5760405162461bcd60e51b815260206004820152601960248201527f45786365656473206d61782077616c6c657420616d6f756e7400000000000000604482015260640161065c565b6112d5858585611323565b5050505050565b60055460ff1661072a57604051638dfc202b60e01b815260040160405180910390fd5b60055460ff161561072a5760405163d93c066560e01b815260040160405180910390fd5b61132b6112ff565b610b458383836001600160a01b03831661135c578060026000828254611351919061162e565b909155506113ce9050565b6001600160a01b038316600090815260208190526040902054818110156113af5760405163391434e360e21b81526001600160a01b0385166004820152602481018290526044810183905260640161065c565b6001600160a01b03841660009081526020819052604090209082900390555b6001600160a01b0382166113ea57600280548290039055611409565b6001600160a01b03821660009081526020819052604090208054820190555b816001600160a01b0316836001600160a01b03167fddf252ad1be2c89b69c2b068fc378daa952ba7f163c4a11628f55a4df523b3ef8360405161144e91815260200190565b60405180910390a3505050565b600060208083528351808285015260005b818110156114885785810183015185820160400152820161146c565b506000604082860101526040601f19601f8301168501019250505092915050565b80356001600160a01b03811681146114c057600080fd5b919050565b600080604083850312156114d857600080fd5b6114e1836114a9565b946020939093013593505050565b60006020828403121561150157600080fd5b61150a826114a9565b9392505050565b60006020828403121561152357600080fd5b5035919050565b60008060006060848603121561153f57600080fd5b611548846114a9565b9250611556602085016114a9565b9150604084013590509250925092565b801515811461097b57600080fd5b6000806040838503121561158757600080fd5b611590836114a9565b915060208301356115a081611566565b809150509250929050565b600080604083850312156115be57600080fd5b6115c7836114a9565b91506115d5602084016114a9565b90509250929050565b600181811c908216806115f257607f821691505b60208210810361161257634e487b7160e01b600052602260045260246000fd5b50919050565b634e487b7160e01b600052601160045260246000fd5b808201808211156105dd576105dd611618565b60008261165e57634e487b7160e01b600052601260045260246000fd5b500490565b60006020828403121561167557600080fd5b815161150a81611566565b818103818111156105dd576105dd611618565b80820281158282048414176105dd576105dd61161856fea2646970667358221220026ea343536cec032c323cd59a827e369521af6a90a48d9949a9a9e4f3b87f7b64736f6c63430008140033ddf252ad1be2c89b69c2b068fc378daa952ba7f163c4a11628f55a4df523b3ef",
  "linkReferences": {},
  "deployedLinkReferences": {}
}